{
  "contractName": "Decimal",
  "abi": [
    {
      "inputs": [],
      "name": "decimals",
      "outputs": [
        {
          "internalType": "uint8",
          "name": "",
          "type": "uint8"
        }
      ],
      "stateMutability": "view",
      "type": "function"
    },
    {
      "inputs": [
        {
          "internalType": "uint256",
          "name": "_integral",
          "type": "uint256"
        },
        {
          "internalType": "uint256",
          "name": "_fractional",
          "type": "uint256"
        }
      ],
      "name": "decimalTo",
      "outputs": [
        {
          "internalType": "uint256",
          "name": "",
          "type": "uint256"
        }
      ],
      "stateMutability": "pure",
      "type": "function"
    }
  ],
  "bytecode": "0x610640610053600b82828239805160001a607314610046577f4e487b7100000000000000000000000000000000000000000000000000000000600052600060045260246000fd5b30600052607381538281f3fe73000000000000000000000000000000000000000030146080604052600436106100405760003560e01c8063313ce56714610045578063df3bcdcf14610063575b600080fd5b61004d610093565b60405161005a91906102f3565b60405180910390f35b61007d600480360381019061007891906101be565b610098565b60405161008a91906102d8565b60405180910390f35b601281565b60006100c6826100b86100a96100ce565b866100e390919063ffffffff16565b61015090919063ffffffff16565b905092915050565b60006012600a6100de91906103f9565b905090565b60008082148061010b5750828283856100fc9190610517565b9250826101099190610375565b145b61014a576040517f08c379a000000000000000000000000000000000000000000000000000000000815260040161014190610298565b60405180910390fd5b92915050565b600082828461015f919061031f565b91508110156101a3576040517f08c379a000000000000000000000000000000000000000000000000000000000815260040161019a906102b8565b60405180910390fd5b92915050565b6000813590506101b8816105f3565b92915050565b600080604083850312156101d157600080fd5b60006101df858286016101a9565b92505060206101f0858286016101a9565b9150509250929050565b600061020760148361030e565b91507f64732d6d6174682d6d756c2d6f766572666c6f770000000000000000000000006000830152602082019050919050565b600061024760148361030e565b91507f64732d6d6174682d6164642d6f766572666c6f770000000000000000000000006000830152602082019050919050565b61028381610571565b82525050565b6102928161057b565b82525050565b600060208201905081810360008301526102b1816101fa565b9050919050565b600060208201905081810360008301526102d18161023a565b9050919050565b60006020820190506102ed600083018461027a565b92915050565b60006020820190506103086000830184610289565b92915050565b600082825260208201905092915050565b600061032a82610571565b915061033583610571565b9250827fffffffffffffffffffffffffffffffffffffffffffffffffffffffffffffffff0382111561036a57610369610588565b5b828201905092915050565b600061038082610571565b915061038b83610571565b92508261039b5761039a6105b7565b5b828204905092915050565b6000808291508390505b60018511156103f0578086048111156103cc576103cb610588565b5b60018516156103db5780820291505b80810290506103e9856105e6565b94506103b0565b94509492505050565b600061040482610571565b915061040f8361057b565b925061043c7fffffffffffffffffffffffffffffffffffffffffffffffffffffffffffffffff8484610444565b905092915050565b6000826104545760019050610510565b816104625760009050610510565b81600181146104785760028114610482576104b1565b6001915050610510565b60ff84111561049457610493610588565b5b8360020a9150848211156104ab576104aa610588565b5b50610510565b5060208310610133831016604e8410600b84101617156104e65782820a9050838111156104e1576104e0610588565b5b610510565b6104f384848460016103a6565b9250905081840481111561050a57610509610588565b5b81810290505b9392505050565b600061052282610571565b915061052d83610571565b9250817fffffffffffffffffffffffffffffffffffffffffffffffffffffffffffffffff048311821515161561056657610565610588565b5b828202905092915050565b6000819050919050565b600060ff82169050919050565b7f4e487b7100000000000000000000000000000000000000000000000000000000600052601160045260246000fd5b7f4e487b7100000000000000000000000000000000000000000000000000000000600052601260045260246000fd5b60008160011c9050919050565b6105fc81610571565b811461060757600080fd5b5056fea264697066735822122002ade26c744ad42a3efc6c7548d2d44c718994eb1b4c6989a43d19772cce871364736f6c63430008000033",
  "immutableReferences": {},
  "source": "// SPDX-License-Identifier: GPL-3.0-or-later\r\npragma solidity >=0.8.0;\r\n\r\nimport './SafeMath.sol';\r\n\r\nlibrary Decimal {\r\n    using SafeMath for uint;\r\n    uint8 public constant decimals = 18;\r\n    /**\r\n     * @dev This method represents number of digits after decimal point supported\r\n     */\r\n    function multiplier() internal pure returns(uint) {\r\n        return 10**decimals;\r\n    }\r\n    /**\r\n     * @dev This method returns integer part of solidity decimal\r\n     */\r\n    function integer(uint _value) internal pure returns (uint) {\r\n        return (_value / multiplier()) * multiplier(); // Can't overflow\r\n    }\r\n    /**\r\n     * @dev This method returns fractional part of solidity decimal\r\n     */\r\n    function fractional(uint _value) internal pure returns (uint) {\r\n        return _value.sub(integer(_value));\r\n    }\r\n    /**\r\n     * @dev This method separates out solidity decimal to integral & fraction parts\r\n     */\r\n    function decimalFrom(uint _value) internal pure returns(uint, uint) {\r\n        return ((_value / multiplier()), fractional(_value));\r\n    }\r\n    /**\r\n     * @dev This method converts integral & fraction parts into solidity decimal\r\n     */\r\n    function decimalTo(uint _integral, uint _fractional) public pure returns(uint) {\r\n        //return _integral.mul(multiplier()).add(_fractional.mul(multiplier()) / calculateFractionMultiplier(_fractional));\r\n        return _integral.mul(multiplier()).add(_fractional);\r\n    }\r\n\r\n    function calculateFractionMultiplier(uint number) internal pure returns(uint) {\r\n        uint fractionMultiplier = 1;\r\n        while (number != 0) {\r\n            number /= 10;\r\n            fractionMultiplier = fractionMultiplier.mul(10);\r\n        }\r\n        return fractionMultiplier;\r\n    }\r\n    /**\r\n     * @dev This method adds solidity decimal with integer value\r\n     */\r\n    function uintAddition(uint _value, uint x) internal pure returns(uint) {\r\n        return _value.add(x.mul(multiplier()));\r\n    }\r\n    /**\r\n     * @dev This method adds solidity decimal with solidity decimal\r\n     * Assumption both the decimals conatains same decimal multiplier\r\n     */\r\n    function decimalAddition(uint _value, uint x) internal pure returns(uint) {\r\n        return _value.add(x);\r\n    }\r\n    /**\r\n     * @dev This method adds solidity decimal with integer value\r\n     */\r\n    function uintSubtraction(uint _value, uint x) internal pure returns(uint) {\r\n        return _value.sub(x.mul(multiplier()));\r\n    }\r\n    /**\r\n     * @dev This method adds solidity decimal with solidity decimal\r\n     * Assumption both the decimals conatains same decimal multiplier\r\n     */\r\n    function decimalSubtraction(uint _value, uint x) internal pure returns(uint) {\r\n        return _value.sub(x);\r\n    }\r\n    /**\r\n     * @dev This method multiplies solidity decimal with integer value\r\n     */\r\n    function uintMultiply(uint _value, uint x) internal pure returns(uint) {\r\n        return _value.mul(x);\r\n    }\r\n    /**\r\n     * @dev This method multiplies solidity decimal with solidity decimal\r\n     * Assumption both the decimals conatains same decimal multiplier\r\n     */\r\n    function decimalMultiply(uint _value, uint y) internal pure returns (uint) {\r\n        if (_value == 0 || y == 0) return 0;\r\n\r\n        // Separate into integer and fractional parts\r\n        // x = x1 + x2, y = y1 + y2\r\n        uint x1 = integer(_value);\r\n        uint x2 = fractional(_value);\r\n        uint y1 = integer(y);\r\n        uint y2 = fractional(y);\r\n\r\n        // (x1 + x2) * (y1 + y2) = (x1 * y1) + (x1 * y2) + (x2 * y1) + (x2 * y2)\r\n        uint x1y1 = x1.mul(y1);\r\n        uint x2y1 = x2.mul(y1);\r\n        uint x1y2 = x1.mul(y2);\r\n        uint x2y2 = x2.mul(y2);\r\n\r\n        return (x1y1.add(x2y1).add(x1y2).add(x2y2)) / multiplier();\r\n    }\r\n\r\n    function reciprocal(uint x) internal pure returns (uint) {\r\n        assert(x != 0);\r\n        return multiplier() * multiplier() / x;\r\n    }\r\n    /**\r\n     * @dev This method divides solidity decimal with solidity decimal\r\n     * Assumption both the decimals conatains same decimal multiplier\r\n     */\r\n    function decimalDivide(uint _value, uint y) internal pure returns (uint) {\r\n        assert(y != 0);\r\n        return decimalMultiply(_value, reciprocal(y));\r\n    }\r\n}",
  "sourcePath": "C:/GitHub/Swapify-Lottery/contracts/libraries/Decimal.sol",
  "compiler": {
    "name": "solc",
    "version": "0.8.0+commit.c7dfd78e.Emscripten.clang"
  },
  "schemaVersion": "3.4.1",
  "updatedAt": "2022-03-03T20:15:53.743Z",
  "devdoc": {
    "kind": "dev",
    "methods": {
      "decimalTo(uint256,uint256)": {
        "details": "This method converts integral & fraction parts into solidity decimal"
      }
    },
    "version": 1
  },
  "userdoc": {
    "kind": "user",
    "methods": {},
    "version": 1
  }
}