{
  "contractName": "LotteryContractMock",
  "abi": [
    {
      "inputs": [
        {
          "internalType": "address",
          "name": "_rewardsTokenAddress",
          "type": "address"
        }
      ],
      "stateMutability": "nonpayable",
      "type": "constructor"
    },
    {
      "anonymous": false,
      "inputs": [
        {
          "indexed": true,
          "internalType": "address",
          "name": "owner",
          "type": "address"
        },
        {
          "indexed": true,
          "internalType": "address",
          "name": "spender",
          "type": "address"
        },
        {
          "indexed": false,
          "internalType": "uint256",
          "name": "value",
          "type": "uint256"
        }
      ],
      "name": "Approval",
      "type": "event"
    },
    {
      "anonymous": false,
      "inputs": [
        {
          "indexed": true,
          "internalType": "address",
          "name": "previousOwner",
          "type": "address"
        },
        {
          "indexed": true,
          "internalType": "address",
          "name": "newOwner",
          "type": "address"
        }
      ],
      "name": "OwnershipTransferred",
      "type": "event"
    },
    {
      "anonymous": false,
      "inputs": [
        {
          "indexed": true,
          "internalType": "address",
          "name": "from",
          "type": "address"
        },
        {
          "indexed": true,
          "internalType": "address",
          "name": "to",
          "type": "address"
        },
        {
          "indexed": false,
          "internalType": "uint256",
          "name": "value",
          "type": "uint256"
        }
      ],
      "name": "Transfer",
      "type": "event"
    },
    {
      "inputs": [
        {
          "internalType": "address",
          "name": "_account",
          "type": "address"
        }
      ],
      "name": "addPermittedAccount",
      "outputs": [],
      "stateMutability": "nonpayable",
      "type": "function"
    },
    {
      "inputs": [
        {
          "internalType": "uint256",
          "name": "rewardAmount",
          "type": "uint256"
        }
      ],
      "name": "addReward",
      "outputs": [],
      "stateMutability": "nonpayable",
      "type": "function"
    },
    {
      "inputs": [
        {
          "internalType": "address",
          "name": "",
          "type": "address"
        },
        {
          "internalType": "address",
          "name": "",
          "type": "address"
        }
      ],
      "name": "allowance",
      "outputs": [
        {
          "internalType": "uint256",
          "name": "",
          "type": "uint256"
        }
      ],
      "stateMutability": "view",
      "type": "function"
    },
    {
      "inputs": [
        {
          "internalType": "address",
          "name": "spender",
          "type": "address"
        },
        {
          "internalType": "uint256",
          "name": "value",
          "type": "uint256"
        }
      ],
      "name": "approve",
      "outputs": [
        {
          "internalType": "bool",
          "name": "",
          "type": "bool"
        }
      ],
      "stateMutability": "nonpayable",
      "type": "function"
    },
    {
      "inputs": [
        {
          "internalType": "address",
          "name": "",
          "type": "address"
        }
      ],
      "name": "balanceOf",
      "outputs": [
        {
          "internalType": "uint256",
          "name": "",
          "type": "uint256"
        }
      ],
      "stateMutability": "view",
      "type": "function"
    },
    {
      "inputs": [
        {
          "internalType": "address",
          "name": "user",
          "type": "address"
        },
        {
          "internalType": "uint256",
          "name": "round",
          "type": "uint256"
        }
      ],
      "name": "claimRewards",
      "outputs": [],
      "stateMutability": "nonpayable",
      "type": "function"
    },
    {
      "inputs": [],
      "name": "currentReward",
      "outputs": [
        {
          "internalType": "uint256",
          "name": "",
          "type": "uint256"
        }
      ],
      "stateMutability": "view",
      "type": "function"
    },
    {
      "inputs": [],
      "name": "currentRound",
      "outputs": [
        {
          "internalType": "uint256",
          "name": "",
          "type": "uint256"
        }
      ],
      "stateMutability": "view",
      "type": "function"
    },
    {
      "inputs": [],
      "name": "decimals",
      "outputs": [
        {
          "internalType": "uint8",
          "name": "",
          "type": "uint8"
        }
      ],
      "stateMutability": "view",
      "type": "function"
    },
    {
      "inputs": [],
      "name": "drawWinningNumber",
      "outputs": [],
      "stateMutability": "nonpayable",
      "type": "function"
    },
    {
      "inputs": [
        {
          "internalType": "uint256",
          "name": "round",
          "type": "uint256"
        }
      ],
      "name": "getRoundHistory",
      "outputs": [
        {
          "components": [
            {
              "internalType": "uint256",
              "name": "round",
              "type": "uint256"
            },
            {
              "components": [
                {
                  "internalType": "uint8",
                  "name": "position1",
                  "type": "uint8"
                },
                {
                  "internalType": "uint8",
                  "name": "position2",
                  "type": "uint8"
                },
                {
                  "internalType": "uint8",
                  "name": "position3",
                  "type": "uint8"
                },
                {
                  "internalType": "uint8",
                  "name": "position4",
                  "type": "uint8"
                }
              ],
              "internalType": "struct SwapifyLotterySystem.Ticket",
              "name": "winningNumbers",
              "type": "tuple"
            },
            {
              "internalType": "uint256",
              "name": "reward",
              "type": "uint256"
            },
            {
              "components": [
                {
                  "internalType": "uint8",
                  "name": "position1",
                  "type": "uint8"
                },
                {
                  "internalType": "uint8",
                  "name": "position2",
                  "type": "uint8"
                },
                {
                  "internalType": "uint8",
                  "name": "position3",
                  "type": "uint8"
                },
                {
                  "internalType": "uint8",
                  "name": "position4",
                  "type": "uint8"
                }
              ],
              "internalType": "struct SwapifyLotterySystem.Ticket[]",
              "name": "tickets",
              "type": "tuple[]"
            },
            {
              "components": [
                {
                  "internalType": "uint8",
                  "name": "matchAll",
                  "type": "uint8"
                },
                {
                  "internalType": "uint8",
                  "name": "match3",
                  "type": "uint8"
                },
                {
                  "internalType": "uint8",
                  "name": "match2",
                  "type": "uint8"
                },
                {
                  "internalType": "uint8",
                  "name": "match1",
                  "type": "uint8"
                }
              ],
              "internalType": "struct SwapifyLotterySystem.RewardRatio",
              "name": "rewardRatio",
              "type": "tuple"
            },
            {
              "internalType": "uint8",
              "name": "match1",
              "type": "uint8"
            },
            {
              "internalType": "uint8",
              "name": "match2",
              "type": "uint8"
            },
            {
              "internalType": "uint8",
              "name": "match3",
              "type": "uint8"
            },
            {
              "internalType": "uint8",
              "name": "matchAll",
              "type": "uint8"
            },
            {
              "internalType": "bool",
              "name": "noMatch",
              "type": "bool"
            }
          ],
          "internalType": "struct SwapifyLotterySystem.RoundData",
          "name": "",
          "type": "tuple"
        }
      ],
      "stateMutability": "view",
      "type": "function"
    },
    {
      "inputs": [
        {
          "internalType": "address",
          "name": "user",
          "type": "address"
        },
        {
          "internalType": "uint256",
          "name": "round",
          "type": "uint256"
        }
      ],
      "name": "getUserRoundData",
      "outputs": [
        {
          "components": [
            {
              "internalType": "uint256",
              "name": "round",
              "type": "uint256"
            },
            {
              "internalType": "address",
              "name": "user",
              "type": "address"
            },
            {
              "components": [
                {
                  "internalType": "uint8",
                  "name": "position1",
                  "type": "uint8"
                },
                {
                  "internalType": "uint8",
                  "name": "position2",
                  "type": "uint8"
                },
                {
                  "internalType": "uint8",
                  "name": "position3",
                  "type": "uint8"
                },
                {
                  "internalType": "uint8",
                  "name": "position4",
                  "type": "uint8"
                }
              ],
              "internalType": "struct SwapifyLotterySystem.Ticket[]",
              "name": "tickets",
              "type": "tuple[]"
            },
            {
              "internalType": "uint8[]",
              "name": "boughtTickets",
              "type": "uint8[]"
            },
            {
              "internalType": "bool",
              "name": "claimed",
              "type": "bool"
            },
            {
              "internalType": "uint256",
              "name": "reward",
              "type": "uint256"
            }
          ],
          "internalType": "struct SwapifyLotterySystem.UserData",
          "name": "",
          "type": "tuple"
        }
      ],
      "stateMutability": "view",
      "type": "function"
    },
    {
      "inputs": [],
      "name": "isOwner",
      "outputs": [
        {
          "internalType": "bool",
          "name": "",
          "type": "bool"
        }
      ],
      "stateMutability": "view",
      "type": "function"
    },
    {
      "inputs": [],
      "name": "isPermissible",
      "outputs": [
        {
          "internalType": "bool",
          "name": "",
          "type": "bool"
        }
      ],
      "stateMutability": "view",
      "type": "function"
    },
    {
      "inputs": [
        {
          "internalType": "address",
          "name": "user",
          "type": "address"
        },
        {
          "internalType": "uint256",
          "name": "swapifyLotteryTicketAmount",
          "type": "uint256"
        }
      ],
      "name": "mintTickets",
      "outputs": [],
      "stateMutability": "nonpayable",
      "type": "function"
    },
    {
      "inputs": [],
      "name": "name",
      "outputs": [
        {
          "internalType": "string",
          "name": "",
          "type": "string"
        }
      ],
      "stateMutability": "view",
      "type": "function"
    },
    {
      "inputs": [],
      "name": "owner",
      "outputs": [
        {
          "internalType": "address",
          "name": "",
          "type": "address"
        }
      ],
      "stateMutability": "view",
      "type": "function"
    },
    {
      "inputs": [
        {
          "internalType": "address",
          "name": "_account",
          "type": "address"
        }
      ],
      "name": "removePermittedAccount",
      "outputs": [],
      "stateMutability": "nonpayable",
      "type": "function"
    },
    {
      "inputs": [],
      "name": "renounceOwnership",
      "outputs": [],
      "stateMutability": "nonpayable",
      "type": "function"
    },
    {
      "inputs": [],
      "name": "rewardRatio",
      "outputs": [
        {
          "internalType": "uint8",
          "name": "",
          "type": "uint8"
        }
      ],
      "stateMutability": "view",
      "type": "function"
    },
    {
      "inputs": [],
      "name": "rewardsToken",
      "outputs": [
        {
          "internalType": "address",
          "name": "",
          "type": "address"
        }
      ],
      "stateMutability": "view",
      "type": "function"
    },
    {
      "inputs": [
        {
          "internalType": "uint256",
          "name": "_nonce",
          "type": "uint256"
        }
      ],
      "name": "setNonce",
      "outputs": [],
      "stateMutability": "nonpayable",
      "type": "function"
    },
    {
      "inputs": [
        {
          "internalType": "uint8",
          "name": "ratio",
          "type": "uint8"
        }
      ],
      "name": "setRewardRatio",
      "outputs": [],
      "stateMutability": "nonpayable",
      "type": "function"
    },
    {
      "inputs": [
        {
          "internalType": "address",
          "name": "_rewardsTokenAddress",
          "type": "address"
        }
      ],
      "name": "setRewardToken",
      "outputs": [],
      "stateMutability": "nonpayable",
      "type": "function"
    },
    {
      "inputs": [
        {
          "internalType": "address",
          "name": "user",
          "type": "address"
        },
        {
          "internalType": "uint256",
          "name": "amount",
          "type": "uint256"
        }
      ],
      "name": "submitTicket",
      "outputs": [],
      "stateMutability": "nonpayable",
      "type": "function"
    },
    {
      "inputs": [],
      "name": "symbol",
      "outputs": [
        {
          "internalType": "string",
          "name": "",
          "type": "string"
        }
      ],
      "stateMutability": "view",
      "type": "function"
    },
    {
      "inputs": [],
      "name": "ticketsInCurrentRound",
      "outputs": [
        {
          "components": [
            {
              "internalType": "uint8",
              "name": "position1",
              "type": "uint8"
            },
            {
              "internalType": "uint8",
              "name": "position2",
              "type": "uint8"
            },
            {
              "internalType": "uint8",
              "name": "position3",
              "type": "uint8"
            },
            {
              "internalType": "uint8",
              "name": "position4",
              "type": "uint8"
            }
          ],
          "internalType": "struct SwapifyLotterySystem.Ticket[]",
          "name": "",
          "type": "tuple[]"
        }
      ],
      "stateMutability": "view",
      "type": "function"
    },
    {
      "inputs": [],
      "name": "totalSupply",
      "outputs": [
        {
          "internalType": "uint256",
          "name": "",
          "type": "uint256"
        }
      ],
      "stateMutability": "view",
      "type": "function"
    },
    {
      "inputs": [
        {
          "internalType": "address",
          "name": "to",
          "type": "address"
        },
        {
          "internalType": "uint256",
          "name": "value",
          "type": "uint256"
        }
      ],
      "name": "transfer",
      "outputs": [
        {
          "internalType": "bool",
          "name": "",
          "type": "bool"
        }
      ],
      "stateMutability": "nonpayable",
      "type": "function"
    },
    {
      "inputs": [
        {
          "internalType": "address",
          "name": "from",
          "type": "address"
        },
        {
          "internalType": "address",
          "name": "to",
          "type": "address"
        },
        {
          "internalType": "uint256",
          "name": "value",
          "type": "uint256"
        }
      ],
      "name": "transferFrom",
      "outputs": [
        {
          "internalType": "bool",
          "name": "",
          "type": "bool"
        }
      ],
      "stateMutability": "nonpayable",
      "type": "function"
    },
    {
      "inputs": [
        {
          "internalType": "address",
          "name": "newOwner",
          "type": "address"
        }
      ],
      "name": "transferOwnership",
      "outputs": [],
      "stateMutability": "nonpayable",
      "type": "function"
    },
    {
      "inputs": [
        {
          "internalType": "uint8",
          "name": "matchAll",
          "type": "uint8"
        },
        {
          "internalType": "uint8",
          "name": "match3",
          "type": "uint8"
        },
        {
          "internalType": "uint8",
          "name": "match2",
          "type": "uint8"
        },
        {
          "internalType": "uint8",
          "name": "match1",
          "type": "uint8"
        }
      ],
      "name": "updateMatchPoolAllocation",
      "outputs": [],
      "stateMutability": "nonpayable",
      "type": "function"
    },
    {
      "inputs": [
        {
          "internalType": "uint8[]",
          "name": "winningTickets",
          "type": "uint8[]"
        }
      ],
      "name": "mockDrawWinningNumber",
      "outputs": [],
      "stateMutability": "nonpayable",
      "type": "function"
    },
    {
      "inputs": [
        {
          "internalType": "address",
          "name": "user",
          "type": "address"
        },
        {
          "internalType": "uint8[]",
          "name": "ticketPositions",
          "type": "uint8[]"
        }
      ],
      "name": "mockSubmitTicket",
      "outputs": [],
      "stateMutability": "nonpayable",
      "type": "function"
    }
  ],
  "bytecode": "0x60806040526004600560146101000a81548160ff021916908360ff1602179055503480156200002d57600080fd5b5060405162006d4338038062006d438339818101604052810190620000539190620002ec565b8032600360006101000a81548173ffffffffffffffffffffffffffffffffffffffff021916908373ffffffffffffffffffffffffffffffffffffffff160217905550600360009054906101000a900473ffffffffffffffffffffffffffffffffffffffff1673ffffffffffffffffffffffffffffffffffffffff16600073ffffffffffffffffffffffffffffffffffffffff167f8be0079c531659141344cd1fd0a4f28419497f9722a3daafe3b4186f6b6457e060405160405180910390a360016004600062000128620002ab60201b60201c565b73ffffffffffffffffffffffffffffffffffffffff1673ffffffffffffffffffffffffffffffffffffffff16815260200190815260200160002060006101000a81548160ff02191690831515021790555080600560006101000a81548173ffffffffffffffffffffffffffffffffffffffff021916908373ffffffffffffffffffffffffffffffffffffffff16021790555060016006819055506506f26c0fbec4600981905550603260076000600654815260200190815260200160002060040160000160006101000a81548160ff021916908360ff160217905550601e60076000600654815260200190815260200160002060040160000160016101000a81548160ff021916908360ff160217905550600f60076000600654815260200190815260200160002060040160000160026101000a81548160ff021916908360ff160217905550600560076000600654815260200190815260200160002060040160000160036101000a81548160ff021916908360ff160217905550505062000366565b6000600360009054906101000a900473ffffffffffffffffffffffffffffffffffffffff16905090565b600081519050620002e6816200034c565b92915050565b600060208284031215620002ff57600080fd5b60006200030f84828501620002d5565b91505092915050565b600062000325826200032c565b9050919050565b600073ffffffffffffffffffffffffffffffffffffffff82169050919050565b620003578162000318565b81146200036357600080fd5b50565b6169cd80620003766000396000f3fe608060405234801561001057600080fd5b50600436106102065760003560e01c80638a19c8bc1161011a578063a9059cbb116100ad578063dd20c4a71161007c578063dd20c4a7146105a3578063dd62ed3e146105bf578063f2fde38b146105ef578063f360c1831461060b578063f84817aa1461062757610206565b8063a9059cbb1461051b578063d0ed95881461054b578063d1af0c7d14610567578063db7734fb1461058557610206565b80639371099a116100e95780639371099a146104815780639506a4ec146104b157806395d89b41146104e15780639a99b4f0146104ff57610206565b80638a19c8bc1461040b5780638aee8127146104295780638da5cb5b146104455780638f32d59b1461046357610206565b806349fd689f1161019d578063667d05721161016c578063667d05721461038f57806370a0823114610399578063715018a6146103c957806374de4ec4146103d35780637cdc133b146103ef57610206565b806349fd689f1461031b5780635ea16f931461033757806361ebb58b14610355578063646033bc1461037157610206565b806318160ddd116101d957806318160ddd1461029357806323b872dd146102b1578063313ce567146102e157806338fdae0b146102ff57610206565b8063042f90fa1461020b57806306fdde031461022757806307621eca14610245578063095ea7b314610263575b600080fd5b6102256004803603810190610220919061512d565b610643565b005b61022f6109d5565b60405161023c9190616103565b60405180910390f35b61024d610a0e565b60405161025a9190616469565b60405180910390f35b61027d6004803603810190610278919061512d565b610a2e565b60405161028a91906160e8565b60405180910390f35b61029b610a45565b6040516102a89190616469565b60405180910390f35b6102cb60048036038101906102c6919061508a565b610a4b565b6040516102d891906160e8565b60405180910390f35b6102e9610cd5565b6040516102f69190616484565b60405180910390f35b61031960048036038101906103149190615225565b610cda565b005b610335600480360381019061033091906151fc565b610e5e565b005b61033f610f09565b60405161034c91906160c6565b60405180910390f35b61036f600480360381019061036a9190615025565b610fee565b005b610379611090565b6040516103869190616484565b60405180910390f35b6103976110a3565b005b6103b360048036038101906103ae9190615025565b61169a565b6040516103c09190616469565b60405180910390f35b6103d16116b2565b005b6103ed60048036038101906103e891906151d3565b6117ba565b005b610409600480360381019061040491906150d9565b611942565b005b610413611dfb565b6040516104209190616469565b60405180910390f35b610443600480360381019061043e9190615025565b611e01565b005b61044d611efc565b60405161045a919061604b565b60405180910390f35b61046b611f26565b60405161047891906160e8565b60405180910390f35b61049b6004803603810190610496919061512d565b611f7e565b6040516104a89190616447565b60405180910390f35b6104cb60048036038101906104c691906151d3565b61286e565b6040516104d89190616425565b60405180910390f35b6104e9612b1e565b6040516104f69190616103565b60405180910390f35b6105196004803603810190610514919061512d565b612b57565b005b6105356004803603810190610530919061512d565b612e1d565b60405161054291906160e8565b60405180910390f35b61056560048036038101906105609190615169565b612e34565b005b61056f613511565b60405161057c919061604b565b60405180910390f35b61058d613537565b60405161059a91906160e8565b60405180910390f35b6105bd60048036038101906105b8919061512d565b61358b565b005b6105d960048036038101906105d4919061504e565b613693565b6040516105e69190616469565b60405180910390f35b61060960048036038101906106049190615025565b6136b8565b005b610625600480360381019061062091906151d3565b61370b565b005b610641600480360381019061063c9190615025565b61375c565b005b60008111610686576040517f08c379a000000000000000000000000000000000000000000000000000000000815260040161067d906163e5565b60405180910390fd5b60065460086000600654815260200190815260200160002060008473ffffffffffffffffffffffffffffffffffffffff1673ffffffffffffffffffffffffffffffffffffffff168152602001908152602001600020600001819055508160086000600654815260200190815260200160002060008473ffffffffffffffffffffffffffffffffffffffff1673ffffffffffffffffffffffffffffffffffffffff16815260200190815260200160002060010160006101000a81548173ffffffffffffffffffffffffffffffffffffffff021916908373ffffffffffffffffffffffffffffffffffffffff16021790555060005b818110156109c657610789614e18565b6107916137fe565b816000019060ff16908160ff16815250506107aa6137fe565b816020019060ff16908160ff16815250506107c36137fe565b816040019060ff16908160ff16815250506107dc6137fe565b816060019060ff16908160ff168152505060086000600654815260200190815260200160002060008573ffffffffffffffffffffffffffffffffffffffff1673ffffffffffffffffffffffffffffffffffffffff168152602001908152602001600020600201819080600181540180825580915050600190039060005260206000200160009091909190915060008201518160000160006101000a81548160ff021916908360ff16021790555060208201518160000160016101000a81548160ff021916908360ff16021790555060408201518160000160026101000a81548160ff021916908360ff16021790555060608201518160000160036101000a81548160ff021916908360ff1602179055505050600760006006548152602001908152602001600020600301819080600181540180825580915050600190039060005260206000200160009091909190915060008201518160000160006101000a81548160ff021916908360ff16021790555060208201518160000160016101000a81548160ff021916908360ff16021790555060408201518160000160026101000a81548160ff021916908360ff16021790555060608201518160000160036101000a81548160ff021916908360ff16021790555050505080806109be906167b4565b915050610779565b506109d1828261385e565b5050565b6040518060400160405280601c81526020017f53776170696679204c6f7474657279205469636b657420546f6b656e0000000081525081565b600060076000600654815260200190815260200160002060020154905090565b6000610a3b338484613aaf565b6001905092915050565b60005481565b600081600260008673ffffffffffffffffffffffffffffffffffffffff1673ffffffffffffffffffffffffffffffffffffffff16815260200190815260200160002060003373ffffffffffffffffffffffffffffffffffffffff1673ffffffffffffffffffffffffffffffffffffffff168152602001908152602001600020541015610b0c576040517f08c379a0000000000000000000000000000000000000000000000000000000008152600401610b03906162a5565b60405180910390fd5b7fffffffffffffffffffffffffffffffffffffffffffffffffffffffffffffffff600260008673ffffffffffffffffffffffffffffffffffffffff1673ffffffffffffffffffffffffffffffffffffffff16815260200190815260200160002060003373ffffffffffffffffffffffffffffffffffffffff1673ffffffffffffffffffffffffffffffffffffffff1681526020019081526020016000205414610cbf57610c3e82600260008773ffffffffffffffffffffffffffffffffffffffff1673ffffffffffffffffffffffffffffffffffffffff16815260200190815260200160002060003373ffffffffffffffffffffffffffffffffffffffff1673ffffffffffffffffffffffffffffffffffffffff16815260200190815260200160002054613c0a90919063ffffffff16565b600260008673ffffffffffffffffffffffffffffffffffffffff1673ffffffffffffffffffffffffffffffffffffffff16815260200190815260200160002060003373ffffffffffffffffffffffffffffffffffffffff1673ffffffffffffffffffffffffffffffffffffffff168152602001908152602001600020819055505b610cca848484613c63565b600190509392505050565b600081565b610ce2611f26565b610d21576040517f08c379a0000000000000000000000000000000000000000000000000000000008152600401610d1890616325565b60405180910390fd5b606481838587610d3191906165f1565b610d3b91906165f1565b610d4591906165f1565b60ff1614610d88576040517f08c379a0000000000000000000000000000000000000000000000000000000008152600401610d7f90616365565b60405180910390fd5b8360076000600654815260200190815260200160002060040160000160006101000a81548160ff021916908360ff1602179055508260076000600654815260200190815260200160002060040160000160016101000a81548160ff021916908360ff1602179055508160076000600654815260200190815260200160002060040160000160026101000a81548160ff021916908360ff1602179055508060076000600654815260200190815260200160002060040160000160036101000a81548160ff021916908360ff16021790555050505050565b610e66611f26565b610ea5576040517f08c379a0000000000000000000000000000000000000000000000000000000008152600401610e9c90616325565b60405180910390fd5b60008160ff1611610eeb576040517f08c379a0000000000000000000000000000000000000000000000000000000008152600401610ee290616225565b60405180910390fd5b80600560146101000a81548160ff021916908360ff16021790555050565b6060600760006006548152602001908152602001600020600301805480602002602001604051908101604052809291908181526020016000905b82821015610fe5578382906000526020600020016040518060800160405290816000820160009054906101000a900460ff1660ff1660ff1681526020016000820160019054906101000a900460ff1660ff1660ff1681526020016000820160029054906101000a900460ff1660ff1660ff1681526020016000820160039054906101000a900460ff1660ff1660ff168152505081526020019060010190610f43565b50505050905090565b610ff6611f26565b611035576040517f08c379a000000000000000000000000000000000000000000000000000000000815260040161102c90616325565b60405180910390fd5b6000600460008373ffffffffffffffffffffffffffffffffffffffff1673ffffffffffffffffffffffffffffffffffffffff16815260200190815260200160002060006101000a81548160ff02191690831515021790555050565b600560149054906101000a900460ff1681565b6110ab611f26565b6110ea576040517f08c379a00000000000000000000000000000000000000000000000000000000081526004016110e190616325565b60405180910390fd5b6110f26137fe565b60076000600654815260200190815260200160002060010160000160006101000a81548160ff021916908360ff16021790555061112d6137fe565b60076000600654815260200190815260200160002060010160000160016101000a81548160ff021916908360ff1602179055506111686137fe565b60076000600654815260200190815260200160002060010160000160026101000a81548160ff021916908360ff1602179055506111a36137fe565b60076000600654815260200190815260200160002060010160000160036101000a81548160ff021916908360ff1602179055506112bf600760006006548152602001908152602001600020600301805480602002602001604051908101604052809291908181526020016000905b828210156112b3578382906000526020600020016040518060800160405290816000820160009054906101000a900460ff1660ff1660ff1681526020016000820160019054906101000a900460ff1660ff1660ff1681526020016000820160029054906101000a900460ff1660ff1660ff1681526020016000820160039054906101000a900460ff1660ff1660ff168152505081526020019060010190611211565b50505050600654613f59565b60076000600654815260200190815260200160002060050160036007600060065481526020019081526020016000206005016002600760006006548152602001908152602001600020600501600160076000600654815260200190815260200160002060050160008891906101000a81548160ff021916908360ff1602179055508791906101000a81548160ff021916908360ff1602179055508691906101000a81548160ff021916908360ff1602179055508591906101000a81548160ff021916908360ff16021790555050505050600060076000600654815260200190815260200160002060050160009054906101000a900460ff1660ff161480156113ef5750600060076000600654815260200190815260200160002060050160019054906101000a900460ff1660ff16145b80156114235750600060076000600654815260200190815260200160002060050160029054906101000a900460ff1660ff16145b80156114575750600060076000600654815260200190815260200160002060050160039054906101000a900460ff1660ff16145b1561148e57600160076000600654815260200190815260200160002060050160046101000a81548160ff0219169083151502179055505b600660008154809291906114a1906167b4565b9190505550600654600760006006548152602001908152602001600020600001819055506114dc60016006546114d791906166ee565b614495565b6007600060065481526020019081526020016000206002018190555060076000600160065461150b91906166ee565b815260200190815260200160002060040160000160009054906101000a900460ff1660076000600654815260200190815260200160002060040160000160006101000a81548160ff021916908360ff16021790555060076000600160065461157391906166ee565b815260200190815260200160002060040160000160019054906101000a900460ff1660076000600654815260200190815260200160002060040160000160016101000a81548160ff021916908360ff1602179055506007600060016006546115db91906166ee565b815260200190815260200160002060040160000160029054906101000a900460ff1660076000600654815260200190815260200160002060040160000160026101000a81548160ff021916908360ff16021790555060076000600160065461164391906166ee565b815260200190815260200160002060040160000160039054906101000a900460ff1660076000600654815260200190815260200160002060040160000160036101000a81548160ff021916908360ff160217905550565b60016020528060005260406000206000915090505481565b6116ba611f26565b6116f9576040517f08c379a00000000000000000000000000000000000000000000000000000000081526004016116f090616325565b60405180910390fd5b600073ffffffffffffffffffffffffffffffffffffffff16600360009054906101000a900473ffffffffffffffffffffffffffffffffffffffff1673ffffffffffffffffffffffffffffffffffffffff167f8be0079c531659141344cd1fd0a4f28419497f9722a3daafe3b4186f6b6457e060405160405180910390a36000600360006101000a81548173ffffffffffffffffffffffffffffffffffffffff021916908373ffffffffffffffffffffffffffffffffffffffff160217905550565b6117c2611f26565b611801576040517f08c379a00000000000000000000000000000000000000000000000000000000081526004016117f890616325565b60405180910390fd5b600560009054906101000a900473ffffffffffffffffffffffffffffffffffffffff1673ffffffffffffffffffffffffffffffffffffffff166323b872dd611847611efc565b30846040518463ffffffff1660e01b815260040161186793929190616066565b602060405180830381600087803b15801561188157600080fd5b505af1158015611895573d6000803e3d6000fd5b505050506040513d601f19601f820116820180604052508101906118b991906151aa565b6118f8576040517f08c379a00000000000000000000000000000000000000000000000000000000081526004016118ef90616165565b60405180910390fd5b61192381600760006006548152602001908152602001600020600201546145ad90919063ffffffff16565b6007600060065481526020019081526020016000206002018190555050565b600060048251611952919061685f565b14611992576040517f08c379a0000000000000000000000000000000000000000000000000000000008152600401611989906161e5565b60405180910390fd5b60065460086000600654815260200190815260200160002060008473ffffffffffffffffffffffffffffffffffffffff1673ffffffffffffffffffffffffffffffffffffffff168152602001908152602001600020600001819055508160086000600654815260200190815260200160002060008473ffffffffffffffffffffffffffffffffffffffff1673ffffffffffffffffffffffffffffffffffffffff16815260200190815260200160002060010160006101000a81548173ffffffffffffffffffffffffffffffffffffffff021916908373ffffffffffffffffffffffffffffffffffffffff160217905550600060048251611a929190616628565b905060005b8251811015611deb57611aa8614e18565b838280611ab4906167b4565b935081518110611aed577f4e487b7100000000000000000000000000000000000000000000000000000000600052603260045260246000fd5b6020026020010151816000019060ff16908160ff1681525050838280611b12906167b4565b935081518110611b4b577f4e487b7100000000000000000000000000000000000000000000000000000000600052603260045260246000fd5b6020026020010151816020019060ff16908160ff1681525050838280611b70906167b4565b935081518110611ba9577f4e487b7100000000000000000000000000000000000000000000000000000000600052603260045260246000fd5b6020026020010151816040019060ff16908160ff1681525050838280611bce906167b4565b935081518110611c07577f4e487b7100000000000000000000000000000000000000000000000000000000600052603260045260246000fd5b6020026020010151816060019060ff16908160ff168152505060086000600654815260200190815260200160002060008673ffffffffffffffffffffffffffffffffffffffff1673ffffffffffffffffffffffffffffffffffffffff168152602001908152602001600020600201819080600181540180825580915050600190039060005260206000200160009091909190915060008201518160000160006101000a81548160ff021916908360ff16021790555060208201518160000160016101000a81548160ff021916908360ff16021790555060408201518160000160026101000a81548160ff021916908360ff16021790555060608201518160000160036101000a81548160ff021916908360ff1602179055505050600760006006548152602001908152602001600020600301819080600181540180825580915050600190039060005260206000200160009091909190915060008201518160000160006101000a81548160ff021916908360ff16021790555060208201518160000160016101000a81548160ff021916908360ff16021790555060408201518160000160026101000a81548160ff021916908360ff16021790555060608201518160000160036101000a81548160ff021916908360ff160217905550505050611a97565b50611df6838261385e565b505050565b60065481565b611e09611f26565b611e48576040517f08c379a0000000000000000000000000000000000000000000000000000000008152600401611e3f90616325565b60405180910390fd5b600073ffffffffffffffffffffffffffffffffffffffff168173ffffffffffffffffffffffffffffffffffffffff161415611eb8576040517f08c379a0000000000000000000000000000000000000000000000000000000008152600401611eaf90616285565b60405180910390fd5b80600560006101000a81548173ffffffffffffffffffffffffffffffffffffffff021916908373ffffffffffffffffffffffffffffffffffffffff16021790555050565b6000600360009054906101000a900473ffffffffffffffffffffffffffffffffffffffff16905090565b6000600360009054906101000a900473ffffffffffffffffffffffffffffffffffffffff1673ffffffffffffffffffffffffffffffffffffffff163373ffffffffffffffffffffffffffffffffffffffff1614905090565b611f86614e4c565b60006006548310156120de576000806000806120ba6008600089815260200190815260200160002060008a73ffffffffffffffffffffffffffffffffffffffff1673ffffffffffffffffffffffffffffffffffffffff168152602001908152602001600020600201805480602002602001604051908101604052809291908181526020016000905b828210156120b0578382906000526020600020016040518060800160405290816000820160009054906101000a900460ff1660ff1660ff1681526020016000820160019054906101000a900460ff1660ff1660ff1681526020016000820160029054906101000a900460ff1660ff1660ff1681526020016000820160039054906101000a900460ff1660ff1660ff16815250508152602001906001019061200e565b5050505088613f59565b809450819550829650839750505050506120d7848484848b6145ca565b9450505050505b60006040518060c001604052806008600087815260200190815260200160002060008873ffffffffffffffffffffffffffffffffffffffff1673ffffffffffffffffffffffffffffffffffffffff1681526020019081526020016000206000015481526020016008600087815260200190815260200160002060008873ffffffffffffffffffffffffffffffffffffffff1673ffffffffffffffffffffffffffffffffffffffff16815260200190815260200160002060010160009054906101000a900473ffffffffffffffffffffffffffffffffffffffff1673ffffffffffffffffffffffffffffffffffffffff168152602001600067ffffffffffffffff811115612214577f4e487b7100000000000000000000000000000000000000000000000000000000600052604160045260246000fd5b60405190808252806020026020018201604052801561224d57816020015b61223a614e18565b8152602001906001900390816122325790505b50815260200160046008600088815260200190815260200160002060008973ffffffffffffffffffffffffffffffffffffffff1673ffffffffffffffffffffffffffffffffffffffff168152602001908152602001600020600201805490506122b69190616659565b67ffffffffffffffff8111156122f5577f4e487b7100000000000000000000000000000000000000000000000000000000600052604160045260246000fd5b6040519080825280602002602001820160405280156123235781602001602082028036833780820191505090505b5081526020016008600087815260200190815260200160002060008873ffffffffffffffffffffffffffffffffffffffff1673ffffffffffffffffffffffffffffffffffffffff16815260200190815260200160002060040160009054906101000a900460ff161515815260200183815250905060005b6008600086815260200190815260200160002060008773ffffffffffffffffffffffffffffffffffffffff1673ffffffffffffffffffffffffffffffffffffffff168152602001908152602001600020600201805490508160ff161015612862576008600086815260200190815260200160002060008773ffffffffffffffffffffffffffffffffffffffff1673ffffffffffffffffffffffffffffffffffffffff1681526020019081526020016000206002018160ff1681548110612489577f4e487b7100000000000000000000000000000000000000000000000000000000600052603260045260246000fd5b9060005260206000200160000160009054906101000a900460ff16826060015160006004846124b891906166b3565b6124c291906165f1565b60ff16815181106124fc577f4e487b7100000000000000000000000000000000000000000000000000000000600052603260045260246000fd5b602002602001019060ff16908160ff16815250506008600086815260200190815260200160002060008773ffffffffffffffffffffffffffffffffffffffff1673ffffffffffffffffffffffffffffffffffffffff1681526020019081526020016000206002018160ff168154811061259e577f4e487b7100000000000000000000000000000000000000000000000000000000600052603260045260246000fd5b9060005260206000200160000160019054906101000a900460ff16826060015160016004846125cd91906166b3565b6125d791906165f1565b60ff1681518110612611577f4e487b7100000000000000000000000000000000000000000000000000000000600052603260045260246000fd5b602002602001019060ff16908160ff16815250506008600086815260200190815260200160002060008773ffffffffffffffffffffffffffffffffffffffff1673ffffffffffffffffffffffffffffffffffffffff1681526020019081526020016000206002018160ff16815481106126b3577f4e487b7100000000000000000000000000000000000000000000000000000000600052603260045260246000fd5b9060005260206000200160000160029054906101000a900460ff16826060015160026004846126e291906166b3565b6126ec91906165f1565b60ff1681518110612726577f4e487b7100000000000000000000000000000000000000000000000000000000600052603260045260246000fd5b602002602001019060ff16908160ff16815250506008600086815260200190815260200160002060008773ffffffffffffffffffffffffffffffffffffffff1673ffffffffffffffffffffffffffffffffffffffff1681526020019081526020016000206002018160ff16815481106127c8577f4e487b7100000000000000000000000000000000000000000000000000000000600052603260045260246000fd5b9060005260206000200160000160039054906101000a900460ff16826060015160036004846127f791906166b3565b61280191906165f1565b60ff168151811061283b577f4e487b7100000000000000000000000000000000000000000000000000000000600052603260045260246000fd5b602002602001019060ff16908160ff1681525050808061285a906167fd565b91505061239a565b50809250505092915050565b612876614e9a565b600760008381526020019081526020016000206040518061014001604052908160008201548152602001600182016040518060800160405290816000820160009054906101000a900460ff1660ff1660ff1681526020016000820160019054906101000a900460ff1660ff1660ff1681526020016000820160029054906101000a900460ff1660ff1660ff1681526020016000820160039054906101000a900460ff1660ff1660ff168152505081526020016002820154815260200160038201805480602002602001604051908101604052809291908181526020016000905b828210156129f8578382906000526020600020016040518060800160405290816000820160009054906101000a900460ff1660ff1660ff1681526020016000820160019054906101000a900460ff1660ff1660ff1681526020016000820160029054906101000a900460ff1660ff1660ff1681526020016000820160039054906101000a900460ff1660ff1660ff168152505081526020019060010190612956565b505050508152602001600482016040518060800160405290816000820160009054906101000a900460ff1660ff1660ff1681526020016000820160019054906101000a900460ff1660ff1660ff1681526020016000820160029054906101000a900460ff1660ff1660ff1681526020016000820160039054906101000a900460ff1660ff1660ff168152505081526020016005820160009054906101000a900460ff1660ff1660ff1681526020016005820160019054906101000a900460ff1660ff1660ff1681526020016005820160029054906101000a900460ff1660ff1660ff1681526020016005820160039054906101000a900460ff1660ff1660ff1681526020016005820160049054906101000a900460ff1615151515815250509050919050565b6040518060400160405280600b81526020017f53574150415449434b455400000000000000000000000000000000000000000081525081565b600080600080612c7f6008600087815260200190815260200160002060008873ffffffffffffffffffffffffffffffffffffffff1673ffffffffffffffffffffffffffffffffffffffff168152602001908152602001600020600201805480602002602001604051908101604052809291908181526020016000905b82821015612c75578382906000526020600020016040518060800160405290816000820160009054906101000a900460ff1660ff1660ff1681526020016000820160019054906101000a900460ff1660ff1660ff1681526020016000820160029054906101000a900460ff1660ff1660ff1681526020016000820160039054906101000a900460ff1660ff1660ff168152505081526020019060010190612bd3565b5050505086613f59565b809450819550829650839750505050506000612c9e858585858a6145ca565b9050806008600088815260200190815260200160002060008973ffffffffffffffffffffffffffffffffffffffff1673ffffffffffffffffffffffffffffffffffffffff1681526020019081526020016000206005018190555060016008600088815260200190815260200160002060008973ffffffffffffffffffffffffffffffffffffffff1673ffffffffffffffffffffffffffffffffffffffff16815260200190815260200160002060040160006101000a81548160ff021916908315150217905550600560009054906101000a900473ffffffffffffffffffffffffffffffffffffffff1673ffffffffffffffffffffffffffffffffffffffff1663a9059cbb88836040518363ffffffff1660e01b8152600401612dc192919061609d565b602060405180830381600087803b158015612ddb57600080fd5b505af1158015612def573d6000803e3d6000fd5b505050506040513d601f19601f82011682018060405250810190612e1391906151aa565b5050505050505050565b6000612e2a338484613c63565b6001905092915050565b6004815114612e78576040517f08c379a0000000000000000000000000000000000000000000000000000000008152600401612e6f90616145565b60405180910390fd5b80600081518110612eb2577f4e487b7100000000000000000000000000000000000000000000000000000000600052603260045260246000fd5b602002602001015160076000600654815260200190815260200160002060010160000160006101000a81548160ff021916908360ff16021790555080600181518110612f27577f4e487b7100000000000000000000000000000000000000000000000000000000600052603260045260246000fd5b602002602001015160076000600654815260200190815260200160002060010160000160016101000a81548160ff021916908360ff16021790555080600281518110612f9c577f4e487b7100000000000000000000000000000000000000000000000000000000600052603260045260246000fd5b602002602001015160076000600654815260200190815260200160002060010160000160026101000a81548160ff021916908360ff16021790555080600381518110613011577f4e487b7100000000000000000000000000000000000000000000000000000000600052603260045260246000fd5b602002602001015160076000600654815260200190815260200160002060010160000160036101000a81548160ff021916908360ff160217905550613135600760006006548152602001908152602001600020600301805480602002602001604051908101604052809291908181526020016000905b82821015613129578382906000526020600020016040518060800160405290816000820160009054906101000a900460ff1660ff1660ff1681526020016000820160019054906101000a900460ff1660ff1660ff1681526020016000820160029054906101000a900460ff1660ff1660ff1681526020016000820160039054906101000a900460ff1660ff1660ff168152505081526020019060010190613087565b50505050600654613f59565b60076000600654815260200190815260200160002060050160036007600060065481526020019081526020016000206005016002600760006006548152602001908152602001600020600501600160076000600654815260200190815260200160002060050160008891906101000a81548160ff021916908360ff1602179055508791906101000a81548160ff021916908360ff1602179055508691906101000a81548160ff021916908360ff1602179055508591906101000a81548160ff021916908360ff16021790555050505050600060076000600654815260200190815260200160002060050160009054906101000a900460ff1660ff161480156132655750600060076000600654815260200190815260200160002060050160019054906101000a900460ff1660ff16145b80156132995750600060076000600654815260200190815260200160002060050160029054906101000a900460ff1660ff16145b80156132cd5750600060076000600654815260200190815260200160002060050160039054906101000a900460ff1660ff16145b1561330457600160076000600654815260200190815260200160002060050160046101000a81548160ff0219169083151502179055505b60066000815480929190613317906167b4565b919050555060065460076000600654815260200190815260200160002060000181905550613352600160065461334d91906166ee565b614495565b6007600060065481526020019081526020016000206002018190555060076000600160065461338191906166ee565b815260200190815260200160002060040160000160009054906101000a900460ff1660076000600654815260200190815260200160002060040160000160006101000a81548160ff021916908360ff1602179055506007600060016006546133e991906166ee565b815260200190815260200160002060040160000160019054906101000a900460ff1660076000600654815260200190815260200160002060040160000160016101000a81548160ff021916908360ff16021790555060076000600160065461345191906166ee565b815260200190815260200160002060040160000160029054906101000a900460ff1660076000600654815260200190815260200160002060040160000160026101000a81548160ff021916908360ff1602179055506007600060016006546134b991906166ee565b815260200190815260200160002060040160000160039054906101000a900460ff1660076000600654815260200190815260200160002060040160000160036101000a81548160ff021916908360ff16021790555050565b600560009054906101000a900473ffffffffffffffffffffffffffffffffffffffff1681565b6000600460003373ffffffffffffffffffffffffffffffffffffffff1673ffffffffffffffffffffffffffffffffffffffff16815260200190815260200160002060009054906101000a900460ff16905090565b613593613537565b6135d2576040517f08c379a00000000000000000000000000000000000000000000000000000000081526004016135c9906162e5565b60405180910390fd5b600073ffffffffffffffffffffffffffffffffffffffff168273ffffffffffffffffffffffffffffffffffffffff161415613642576040517f08c379a000000000000000000000000000000000000000000000000000000000815260040161363990616305565b60405180910390fd5b60008111613685576040517f08c379a000000000000000000000000000000000000000000000000000000000815260040161367c90616225565b60405180910390fd5b61368f82826149b1565b5050565b6002602052816000526040600020602052806000526040600020600091509150505481565b6136c0611f26565b6136ff576040517f08c379a00000000000000000000000000000000000000000000000000000000081526004016136f690616325565b60405180910390fd5b61370881614be8565b50565b613713611f26565b613752576040517f08c379a000000000000000000000000000000000000000000000000000000000815260040161374990616325565b60405180910390fd5b8060098190555050565b613764611f26565b6137a3576040517f08c379a000000000000000000000000000000000000000000000000000000000815260040161379a90616325565b60405180910390fd5b6001600460008373ffffffffffffffffffffffffffffffffffffffff1673ffffffffffffffffffffffffffffffffffffffff16815260200190815260200160002060006101000a81548160ff02191690831515021790555050565b6000600360096000828254613813919061659b565b92505081905550600a434033426009546040516020016138369493929190615ffd565b6040516020818303038152906040528051906020012060001c613859919061685f565b905090565b600073ffffffffffffffffffffffffffffffffffffffff168273ffffffffffffffffffffffffffffffffffffffff1614156138ce576040517f08c379a00000000000000000000000000000000000000000000000000000000081526004016138c5906163c5565b60405180910390fd5b80600160008473ffffffffffffffffffffffffffffffffffffffff1673ffffffffffffffffffffffffffffffffffffffff168152602001908152602001600020541015613950576040517f08c379a000000000000000000000000000000000000000000000000000000000815260040161394790616245565b60405180910390fd5b6139a281600160008573ffffffffffffffffffffffffffffffffffffffff1673ffffffffffffffffffffffffffffffffffffffff16815260200190815260200160002054613c0a90919063ffffffff16565b600160008473ffffffffffffffffffffffffffffffffffffffff1673ffffffffffffffffffffffffffffffffffffffff16815260200190815260200160002081905550600054811115613a2a576040517f08c379a0000000000000000000000000000000000000000000000000000000008152600401613a2190616265565b60405180910390fd5b613a3f81600054613c0a90919063ffffffff16565b600081905550600073ffffffffffffffffffffffffffffffffffffffff168273ffffffffffffffffffffffffffffffffffffffff167fddf252ad1be2c89b69c2b068fc378daa952ba7f163c4a11628f55a4df523b3ef83604051613aa39190616469565b60405180910390a35050565b600073ffffffffffffffffffffffffffffffffffffffff168273ffffffffffffffffffffffffffffffffffffffff161415613b1f576040517f08c379a0000000000000000000000000000000000000000000000000000000008152600401613b1690616405565b60405180910390fd5b80600260008573ffffffffffffffffffffffffffffffffffffffff1673ffffffffffffffffffffffffffffffffffffffff16815260200190815260200160002060008473ffffffffffffffffffffffffffffffffffffffff1673ffffffffffffffffffffffffffffffffffffffff168152602001908152602001600020819055508173ffffffffffffffffffffffffffffffffffffffff168373ffffffffffffffffffffffffffffffffffffffff167f8c5be1e5ebec7d5bd14f71427d1e84f3dd0314c0f7b2291e5b200ac8c7c3b92583604051613bfd9190616469565b60405180910390a3505050565b6000828284613c1991906166ee565b9150811115613c5d576040517f08c379a0000000000000000000000000000000000000000000000000000000008152600401613c5490616125565b60405180910390fd5b92915050565b600073ffffffffffffffffffffffffffffffffffffffff168373ffffffffffffffffffffffffffffffffffffffff161415613cd3576040517f08c379a0000000000000000000000000000000000000000000000000000000008152600401613cca90616185565b60405180910390fd5b600073ffffffffffffffffffffffffffffffffffffffff168273ffffffffffffffffffffffffffffffffffffffff161415613d43576040517f08c379a0000000000000000000000000000000000000000000000000000000008152600401613d3a90616345565b60405180910390fd5b80600160008573ffffffffffffffffffffffffffffffffffffffff1673ffffffffffffffffffffffffffffffffffffffff168152602001908152602001600020541015613dc5576040517f08c379a0000000000000000000000000000000000000000000000000000000008152600401613dbc906163a5565b60405180910390fd5b613e1781600160008673ffffffffffffffffffffffffffffffffffffffff1673ffffffffffffffffffffffffffffffffffffffff16815260200190815260200160002054613c0a90919063ffffffff16565b600160008573ffffffffffffffffffffffffffffffffffffffff1673ffffffffffffffffffffffffffffffffffffffff16815260200190815260200160002081905550613eac81600160008573ffffffffffffffffffffffffffffffffffffffff1673ffffffffffffffffffffffffffffffffffffffff16815260200190815260200160002054614d1890919063ffffffff16565b600160008473ffffffffffffffffffffffffffffffffffffffff1673ffffffffffffffffffffffffffffffffffffffff168152602001908152602001600020819055508173ffffffffffffffffffffffffffffffffffffffff168373ffffffffffffffffffffffffffffffffffffffff167fddf252ad1be2c89b69c2b068fc378daa952ba7f163c4a11628f55a4df523b3ef83604051613f4c9190616469565b60405180910390a3505050565b60008060008060005b865181101561448b576007600087815260200190815260200160002060010160000160009054906101000a900460ff1660ff16878281518110613fce577f4e487b7100000000000000000000000000000000000000000000000000000000600052603260045260246000fd5b60200260200101516000015160ff1614801561405957506007600087815260200190815260200160002060010160000160019054906101000a900460ff1660ff16878281518110614048577f4e487b7100000000000000000000000000000000000000000000000000000000600052603260045260246000fd5b60200260200101516020015160ff16145b80156140d457506007600087815260200190815260200160002060010160000160029054906101000a900460ff1660ff168782815181106140c3577f4e487b7100000000000000000000000000000000000000000000000000000000600052603260045260246000fd5b60200260200101516040015160ff16145b801561414f57506007600087815260200190815260200160002060010160000160039054906101000a900460ff1660ff1687828151811061413e577f4e487b7100000000000000000000000000000000000000000000000000000000600052603260045260246000fd5b60200260200101516060015160ff16145b1561416757848061415f906167fd565b955050614478565b6007600087815260200190815260200160002060010160000160009054906101000a900460ff1660ff168782815181106141ca577f4e487b7100000000000000000000000000000000000000000000000000000000600052603260045260246000fd5b60200260200101516000015160ff1614801561425557506007600087815260200190815260200160002060010160000160019054906101000a900460ff1660ff16878281518110614244577f4e487b7100000000000000000000000000000000000000000000000000000000600052603260045260246000fd5b60200260200101516020015160ff16145b80156142d057506007600087815260200190815260200160002060010160000160029054906101000a900460ff1660ff168782815181106142bf577f4e487b7100000000000000000000000000000000000000000000000000000000600052603260045260246000fd5b60200260200101516040015160ff16145b156142e85783806142e0906167fd565b945050614477565b6007600087815260200190815260200160002060010160000160009054906101000a900460ff1660ff1687828151811061434b577f4e487b7100000000000000000000000000000000000000000000000000000000600052603260045260246000fd5b60200260200101516000015160ff161480156143d657506007600087815260200190815260200160002060010160000160019054906101000a900460ff1660ff168782815181106143c5577f4e487b7100000000000000000000000000000000000000000000000000000000600052603260045260246000fd5b60200260200101516020015160ff16145b156143ee5782806143e6906167fd565b935050614476565b6007600087815260200190815260200160002060010160000160009054906101000a900460ff1660ff16878281518110614451577f4e487b7100000000000000000000000000000000000000000000000000000000600052603260045260246000fd5b60200260200101516000015160ff161415614475578180614471906167fd565b9250505b5b5b5b8080614483906167b4565b915050613f62565b5092959194509250565b60006007600083815260200190815260200160002060050160049054906101000a900460ff16156144de57600760008381526020019081526020016000206002015490506145a8565b60006145796007600085815260200190815260200160002060050160039054906101000a900460ff166007600086815260200190815260200160002060050160029054906101000a900460ff166007600087815260200190815260200160002060050160019054906101000a900460ff166007600088815260200190815260200160002060050160009054906101000a900460ff16876145ca565b90506145a4816007600086815260200190815260200160002060020154614d7190919063ffffffff16565b9150505b919050565b60006145c28284614d1890919063ffffffff16565b905092915050565b60008060646146216007600086815260200190815260200160002060040160000160009054906101000a900460ff1660ff166007600087815260200190815260200160002060020154614d8e90919063ffffffff16565b61462b9190616628565b9050600060646146836007600087815260200190815260200160002060040160000160019054906101000a900460ff1660ff166007600088815260200190815260200160002060020154614d8e90919063ffffffff16565b61468d9190616628565b9050600060646146e56007600088815260200190815260200160002060040160000160029054906101000a900460ff1660ff166007600089815260200190815260200160002060020154614d8e90919063ffffffff16565b6146ef9190616628565b9050600060646147476007600089815260200190815260200160002060040160000160039054906101000a900460ff1660ff16600760008a815260200190815260200160002060020154614d8e90919063ffffffff16565b6147519190616628565b90506000806007600089815260200190815260200160002060050160039054906101000a900460ff1660ff1611801561478d575060008b60ff16115b156147e7576007600088815260200190815260200160002060050160039054906101000a900460ff1660ff166147cf8c60ff1687614d8e90919063ffffffff16565b6147d99190616628565b816147e4919061659b565b90505b60006007600089815260200190815260200160002060050160029054906101000a900460ff1660ff16118015614820575060008a60ff16115b1561487a576007600088815260200190815260200160002060050160029054906101000a900460ff1660ff166148628b60ff1686614d8e90919063ffffffff16565b61486c9190616628565b81614877919061659b565b90505b60006007600089815260200190815260200160002060050160019054906101000a900460ff1660ff161180156148b3575060008960ff16115b1561490d576007600088815260200190815260200160002060050160019054906101000a900460ff1660ff166148f58a60ff1685614d8e90919063ffffffff16565b6148ff9190616628565b8161490a919061659b565b90505b60006007600089815260200190815260200160002060050160009054906101000a900460ff1660ff16118015614946575060008860ff16115b156149a0576007600088815260200190815260200160002060050160009054906101000a900460ff1660ff166149888960ff1684614d8e90919063ffffffff16565b6149929190616628565b8161499d919061659b565b90505b809550505050505095945050505050565b6000547fffffffffffffffffffffffffffffffffffffffffffffffffffffffffffffffff6149df91906166ee565b811115614a21576040517f08c379a0000000000000000000000000000000000000000000000000000000008152600401614a1890616385565b60405180910390fd5b614a3681600054614d1890919063ffffffff16565b600081905550600160008373ffffffffffffffffffffffffffffffffffffffff1673ffffffffffffffffffffffffffffffffffffffff168152602001908152602001600020547fffffffffffffffffffffffffffffffffffffffffffffffffffffffffffffffff614aa791906166ee565b811115614ae9576040517f08c379a0000000000000000000000000000000000000000000000000000000008152600401614ae0906162c5565b60405180910390fd5b614b3b81600160008573ffffffffffffffffffffffffffffffffffffffff1673ffffffffffffffffffffffffffffffffffffffff16815260200190815260200160002054614d1890919063ffffffff16565b600160008473ffffffffffffffffffffffffffffffffffffffff1673ffffffffffffffffffffffffffffffffffffffff168152602001908152602001600020819055508173ffffffffffffffffffffffffffffffffffffffff16600073ffffffffffffffffffffffffffffffffffffffff167fddf252ad1be2c89b69c2b068fc378daa952ba7f163c4a11628f55a4df523b3ef83604051614bdc9190616469565b60405180910390a35050565b600073ffffffffffffffffffffffffffffffffffffffff168173ffffffffffffffffffffffffffffffffffffffff161415614c58576040517f08c379a0000000000000000000000000000000000000000000000000000000008152600401614c4f906161a5565b60405180910390fd5b8073ffffffffffffffffffffffffffffffffffffffff16600360009054906101000a900473ffffffffffffffffffffffffffffffffffffffff1673ffffffffffffffffffffffffffffffffffffffff167f8be0079c531659141344cd1fd0a4f28419497f9722a3daafe3b4186f6b6457e060405160405180910390a380600360006101000a81548173ffffffffffffffffffffffffffffffffffffffff021916908373ffffffffffffffffffffffffffffffffffffffff16021790555050565b6000828284614d27919061659b565b9150811015614d6b576040517f08c379a0000000000000000000000000000000000000000000000000000000008152600401614d6290616205565b60405180910390fd5b92915050565b6000614d868284613c0a90919063ffffffff16565b905092915050565b6000614da38284614dab90919063ffffffff16565b905092915050565b600080821480614dd3575082828385614dc49190616659565b925082614dd19190616628565b145b614e12576040517f08c379a0000000000000000000000000000000000000000000000000000000008152600401614e09906161c5565b60405180910390fd5b92915050565b6040518060800160405280600060ff168152602001600060ff168152602001600060ff168152602001600060ff1681525090565b6040518060c0016040528060008152602001600073ffffffffffffffffffffffffffffffffffffffff1681526020016060815260200160608152602001600015158152602001600081525090565b60405180610140016040528060008152602001614eb5614e18565b81526020016000815260200160608152602001614ed0614f07565b8152602001600060ff168152602001600060ff168152602001600060ff168152602001600060ff1681526020016000151581525090565b6040518060800160405280600060ff168152602001600060ff168152602001600060ff168152602001600060ff1681525090565b6000614f4e614f49846164d0565b61649f565b90508083825260208201905082856020860282011115614f6d57600080fd5b60005b85811015614f9d5781614f838882615010565b845260208401935060208301925050600181019050614f70565b5050509392505050565b600081359050614fb68161693b565b92915050565b600082601f830112614fcd57600080fd5b8135614fdd848260208601614f3b565b91505092915050565b600081519050614ff581616952565b92915050565b60008135905061500a81616969565b92915050565b60008135905061501f81616980565b92915050565b60006020828403121561503757600080fd5b600061504584828501614fa7565b91505092915050565b6000806040838503121561506157600080fd5b600061506f85828601614fa7565b925050602061508085828601614fa7565b9150509250929050565b60008060006060848603121561509f57600080fd5b60006150ad86828701614fa7565b93505060206150be86828701614fa7565b92505060406150cf86828701614ffb565b9150509250925092565b600080604083850312156150ec57600080fd5b60006150fa85828601614fa7565b925050602083013567ffffffffffffffff81111561511757600080fd5b61512385828601614fbc565b9150509250929050565b6000806040838503121561514057600080fd5b600061514e85828601614fa7565b925050602061515f85828601614ffb565b9150509250929050565b60006020828403121561517b57600080fd5b600082013567ffffffffffffffff81111561519557600080fd5b6151a184828501614fbc565b91505092915050565b6000602082840312156151bc57600080fd5b60006151ca84828501614fe6565b91505092915050565b6000602082840312156151e557600080fd5b60006151f384828501614ffb565b91505092915050565b60006020828403121561520e57600080fd5b600061521c84828501615010565b91505092915050565b6000806000806080858703121561523b57600080fd5b600061524987828801615010565b945050602061525a87828801615010565b935050604061526b87828801615010565b925050606061527c87828801615010565b91505092959194509250565b60006152948383615ec5565b60808301905092915050565b60006152ac8383615fdf565b60208301905092915050565b6152c181616722565b82525050565b6152d081616722565b82525050565b6152e76152e282616722565b616827565b82525050565b60006152f88261651c565b6153028185616557565b935061530d836164fc565b8060005b8381101561533e5781516153258882615288565b97506153308361653d565b925050600181019050615311565b5085935050505092915050565b60006153568261651c565b6153608185616568565b935061536b836164fc565b8060005b8381101561539c5781516153838882615288565b975061538e8361653d565b92505060018101905061536f565b5085935050505092915050565b60006153b482616527565b6153be8185616579565b93506153c98361650c565b8060005b838110156153fa5781516153e188826152a0565b97506153ec8361654a565b9250506001810190506153cd565b5085935050505092915050565b61541081616734565b82525050565b61541f81616734565b82525050565b61543661543182616740565b616839565b82525050565b600061544782616532565b615451818561658a565b9350615461818560208601616781565b61546a8161691d565b840191505092915050565b600061548260158361658a565b91507f64732d6d6174682d7375622d756e646572666c6f7700000000000000000000006000830152602082019050919050565b60006154c260288361658a565b91507f57696e6e696e67205469636b657420506f736974696f6e73206d75737420657160008301527f75616c20746f20340000000000000000000000000000000000000000000000006020830152604082019050919050565b600061552860608361658a565b91507f537761706966794c6f747465727953797374656d3a2052657761726420616d6f60008301527f756e7420636f756c64206e6f74206265206465706f736974656420746f20746860208301527f65204c6f747465727920636f6e747261637420666f722074686520726f756e646040830152606082019050919050565b60006155b460318361658a565b91507f537761706966794c6f74746572795469636b657445524332303a20496e76616c60008301527f69642053656e64657220416464726573730000000000000000000000000000006020830152604082019050919050565b600061561a60268361658a565b91507f4f776e61626c653a206e6577206f776e657220697320746865207a65726f206160008301527f64647265737300000000000000000000000000000000000000000000000000006020830152604082019050919050565b600061568060148361658a565b91507f64732d6d6174682d6d756c2d6f766572666c6f770000000000000000000000006000830152602082019050919050565b60006156c0601d8361658a565b91507f5469636b657420506f736974696f6e73206469766964656420627920340000006000830152602082019050919050565b600061570060148361658a565b91507f64732d6d6174682d6164642d6f766572666c6f770000000000000000000000006000830152602082019050919050565b600061574060218361658a565b91507f537761706966794c6f747465727953797374656d3a205a45524f5f414d4f554e60008301527f54000000000000000000000000000000000000000000000000000000000000006020830152604082019050919050565b60006157a660448361658a565b91507f537761706966794c6f74746572795469636b657445524332303a206275726e2060008301527f616d6f756e7420657863656564732062616c616e6365206f662074686520686f60208301527f6c646572000000000000000000000000000000000000000000000000000000006040830152606082019050919050565b600061583260358361658a565b91507f537761706966794c6f74746572795469636b657445524332303a20496e73756660008301527f66696369656e7420746f74616c20737570706c792e00000000000000000000006020830152604082019050919050565b6000615898600d8361658a565b91507f4164647265737320456d707479000000000000000000000000000000000000006000830152602082019050919050565b60006158d8603c8361658a565b91507f537761706966794c6f74746572795469636b657445524332303a207472616e7360008301527f66657220616d6f756e74206578636565647320616c6c6f77616e6365000000006020830152604082019050919050565b600061593e60408361658a565b91507f537761706966794c6f74746572795469636b657445524332303a2042616c616e60008301527f6365206f66206d696e746572206578636565646564206d6178206c696d69742e6020830152604082019050919050565b60006159a460368361658a565b91507f5065726d69737369626c653a2063616c6c6572206973206e6f7420696e20746860008301527f65206c697374206f66205065726d69737369626c6573000000000000000000006020830152604082019050919050565b6000615a0a60228361658a565b91507f537761706966794c6f747465727953797374656d3a205a45524f5f414444524560008301527f53530000000000000000000000000000000000000000000000000000000000006020830152604082019050919050565b6000615a7060208361658a565b91507f4f776e61626c653a2063616c6c6572206973206e6f7420746865206f776e65726000830152602082019050919050565b6000615ab060348361658a565b91507f537761706966794c6f74746572795469636b657445524332303a20496e76616c60008301527f696420526563697069656e7420416464726573730000000000000000000000006020830152604082019050919050565b6000615b16601a8361658a565b91507f526174696f73206d7573742061646420757020746f20313030250000000000006000830152602082019050919050565b6000615b56603b8361658a565b91507f537761706966794c6f74746572795469636b657445524332303a20546f74616c60008301527f20737570706c79206578636565646564206d6178206c696d69742e00000000006020830152604082019050919050565b6000615bbc60448361658a565b91507f537761706966794c6f74746572795469636b657445524332303a205472616e7360008301527f66657220616d6f756e7420657863656564732062616c616e6365206f6620736560208301527f6e646572000000000000000000000000000000000000000000000000000000006040830152606082019050919050565b6000615c4860358361658a565b91507f537761706966794c6f74746572795469636b657445524332303a206275726e2060008301527f66726f6d20746865207a65726f206164647265737300000000000000000000006020830152604082019050919050565b6000615cae60378361658a565b91507f537761706966794c6f747465727953797374656d3a20416d6f756e742069732060008301527f726571756972656420746f206d6f7265207468616e20300000000000000000006020830152604082019050919050565b6000615d1460418361658a565b91507f537761706966794c6f74746572795469636b657445524332303a20617070726f60008301527f766520746f2074686520696e76616c6964206f72207a65726f2061646472657360208301527f73000000000000000000000000000000000000000000000000000000000000006040830152606082019050919050565b608082016000820151615da96000850182615fdf565b506020820151615dbc6020850182615fdf565b506040820151615dcf6040850182615fdf565b506060820151615de26060850182615fdf565b50505050565b600061020083016000830151615e016000860182615faa565b506020830151615e146020860182615ec5565b506040830151615e2760a0860182615faa565b50606083015184820360c0860152615e3f82826152ed565b9150506080830151615e5460e0860182615d93565b5060a0830151615e68610160860182615fdf565b5060c0830151615e7c610180860182615fdf565b5060e0830151615e906101a0860182615fdf565b50610100830151615ea56101c0860182615fdf565b50610120830151615eba6101e0860182615407565b508091505092915050565b608082016000820151615edb6000850182615fdf565b506020820151615eee6020850182615fdf565b506040820151615f016040850182615fdf565b506060820151615f146060850182615fdf565b50505050565b600060c083016000830151615f326000860182615faa565b506020830151615f4560208601826152b8565b5060408301518482036040860152615f5d82826152ed565b91505060608301518482036060860152615f7782826153a9565b9150506080830151615f8c6080860182615407565b5060a0830151615f9f60a0860182615faa565b508091505092915050565b615fb38161676a565b82525050565b615fc28161676a565b82525050565b615fd9615fd48261676a565b616855565b82525050565b615fe881616774565b82525050565b615ff781616774565b82525050565b60006160098287615425565b60208201915061601982866152d6565b6014820191506160298285615fc8565b6020820191506160398284615fc8565b60208201915081905095945050505050565b600060208201905061606060008301846152c7565b92915050565b600060608201905061607b60008301866152c7565b61608860208301856152c7565b6160956040830184615fb9565b949350505050565b60006040820190506160b260008301856152c7565b6160bf6020830184615fb9565b9392505050565b600060208201905081810360008301526160e0818461534b565b905092915050565b60006020820190506160fd6000830184615416565b92915050565b6000602082019050818103600083015261611d818461543c565b905092915050565b6000602082019050818103600083015261613e81615475565b9050919050565b6000602082019050818103600083015261615e816154b5565b9050919050565b6000602082019050818103600083015261617e8161551b565b9050919050565b6000602082019050818103600083015261619e816155a7565b9050919050565b600060208201905081810360008301526161be8161560d565b9050919050565b600060208201905081810360008301526161de81615673565b9050919050565b600060208201905081810360008301526161fe816156b3565b9050919050565b6000602082019050818103600083015261621e816156f3565b9050919050565b6000602082019050818103600083015261623e81615733565b9050919050565b6000602082019050818103600083015261625e81615799565b9050919050565b6000602082019050818103600083015261627e81615825565b9050919050565b6000602082019050818103600083015261629e8161588b565b9050919050565b600060208201905081810360008301526162be816158cb565b9050919050565b600060208201905081810360008301526162de81615931565b9050919050565b600060208201905081810360008301526162fe81615997565b9050919050565b6000602082019050818103600083015261631e816159fd565b9050919050565b6000602082019050818103600083015261633e81615a63565b9050919050565b6000602082019050818103600083015261635e81615aa3565b9050919050565b6000602082019050818103600083015261637e81615b09565b9050919050565b6000602082019050818103600083015261639e81615b49565b9050919050565b600060208201905081810360008301526163be81615baf565b9050919050565b600060208201905081810360008301526163de81615c3b565b9050919050565b600060208201905081810360008301526163fe81615ca1565b9050919050565b6000602082019050818103600083015261641e81615d07565b9050919050565b6000602082019050818103600083015261643f8184615de8565b905092915050565b600060208201905081810360008301526164618184615f1a565b905092915050565b600060208201905061647e6000830184615fb9565b92915050565b60006020820190506164996000830184615fee565b92915050565b6000604051905081810181811067ffffffffffffffff821117156164c6576164c56168ee565b5b8060405250919050565b600067ffffffffffffffff8211156164eb576164ea6168ee565b5b602082029050602081019050919050565b6000819050602082019050919050565b6000819050602082019050919050565b600081519050919050565b600081519050919050565b600081519050919050565b6000602082019050919050565b6000602082019050919050565b600082825260208201905092915050565b600082825260208201905092915050565b600082825260208201905092915050565b600082825260208201905092915050565b60006165a68261676a565b91506165b18361676a565b9250827fffffffffffffffffffffffffffffffffffffffffffffffffffffffffffffffff038211156165e6576165e5616890565b5b828201905092915050565b60006165fc82616774565b915061660783616774565b92508260ff0382111561661d5761661c616890565b5b828201905092915050565b60006166338261676a565b915061663e8361676a565b92508261664e5761664d6168bf565b5b828204905092915050565b60006166648261676a565b915061666f8361676a565b9250817fffffffffffffffffffffffffffffffffffffffffffffffffffffffffffffffff04831182151516156166a8576166a7616890565b5b828202905092915050565b60006166be82616774565b91506166c983616774565b92508160ff04831182151516156166e3576166e2616890565b5b828202905092915050565b60006166f98261676a565b91506167048361676a565b92508282101561671757616716616890565b5b828203905092915050565b600061672d8261674a565b9050919050565b60008115159050919050565b6000819050919050565b600073ffffffffffffffffffffffffffffffffffffffff82169050919050565b6000819050919050565b600060ff82169050919050565b60005b8381101561679f578082015181840152602081019050616784565b838111156167ae576000848401525b50505050565b60006167bf8261676a565b91507fffffffffffffffffffffffffffffffffffffffffffffffffffffffffffffffff8214156167f2576167f1616890565b5b600182019050919050565b600061680882616774565b915060ff82141561681c5761681b616890565b5b600182019050919050565b600061683282616843565b9050919050565b6000819050919050565b600061684e8261692e565b9050919050565b6000819050919050565b600061686a8261676a565b91506168758361676a565b925082616885576168846168bf565b5b828206905092915050565b7f4e487b7100000000000000000000000000000000000000000000000000000000600052601160045260246000fd5b7f4e487b7100000000000000000000000000000000000000000000000000000000600052601260045260246000fd5b7f4e487b7100000000000000000000000000000000000000000000000000000000600052604160045260246000fd5b6000601f19601f8301169050919050565b60008160601b9050919050565b61694481616722565b811461694f57600080fd5b50565b61695b81616734565b811461696657600080fd5b50565b6169728161676a565b811461697d57600080fd5b50565b61698981616774565b811461699457600080fd5b5056fea2646970667358221220e42d6541852120c6ada06d49c7bde65d1d8de5191589921d2fec0b2df9773c3364736f6c63430008000033",
  "immutableReferences": {},
  "source": "// SPDX-License-Identifier: GPL-3.0-or-later\r\npragma solidity >=0.8.0;\r\n\r\nimport '../SwapifyLotterySystem.sol';\r\n\r\ncontract LotteryContractMock is SwapifyLotterySystem {\r\n\r\n    constructor(address _rewardsTokenAddress) SwapifyLotterySystem(_rewardsTokenAddress) {}\r\n\r\n    function mockDrawWinningNumber(uint8[] memory winningTickets) external {\r\n        require(winningTickets.length == 4, 'Winning Ticket Positions must equal to 4');\r\n        roundHistory[currentRound].winningNumbers.position1 = winningTickets[0];\r\n        roundHistory[currentRound].winningNumbers.position2 = winningTickets[1];\r\n        roundHistory[currentRound].winningNumbers.position3 = winningTickets[2];\r\n        roundHistory[currentRound].winningNumbers.position4 = winningTickets[3];\r\n\r\n        (roundHistory[currentRound].matchAll,\r\n            roundHistory[currentRound].match3,\r\n            roundHistory[currentRound].match2,\r\n            roundHistory[currentRound].match1) = findWinningMatches(roundHistory[currentRound].tickets, currentRound);\r\n            \r\n        if(roundHistory[currentRound].match1 == 0 && roundHistory[currentRound].match2 == 0 && \r\n                    roundHistory[currentRound].match3 == 0 && roundHistory[currentRound].matchAll == 0) {\r\n            roundHistory[currentRound].noMatch = true;\r\n        }\r\n        currentRound++;\r\n        roundHistory[currentRound].round = currentRound;\r\n        roundHistory[currentRound].reward = calculateCarryForwardRewards(currentRound - 1);\r\n        roundHistory[currentRound].rewardRatio.matchAll = roundHistory[currentRound - 1].rewardRatio.matchAll;\r\n        roundHistory[currentRound].rewardRatio.match3 = roundHistory[currentRound - 1].rewardRatio.match3;\r\n        roundHistory[currentRound].rewardRatio.match2 = roundHistory[currentRound - 1].rewardRatio.match2;\r\n        roundHistory[currentRound].rewardRatio.match1 = roundHistory[currentRound - 1].rewardRatio.match1;\r\n    }\r\n\r\n    function mockSubmitTicket(address user, uint8[] memory ticketPositions) external {\r\n        require(ticketPositions.length % 4 == 0, 'Ticket Positions divided by 4');\r\n        userRoundData[currentRound][user].round = currentRound;\r\n        userRoundData[currentRound][user].user = user;\r\n        uint count = ticketPositions.length / 4;\r\n        for(uint i=0; i < ticketPositions.length; ) {\r\n            Ticket memory ticket;\r\n            ticket.position1 = ticketPositions[i++];\r\n            ticket.position2 = ticketPositions[i++];\r\n            ticket.position3 = ticketPositions[i++];\r\n            ticket.position4 = ticketPositions[i++];\r\n\r\n            userRoundData[currentRound][user].tickets.push(ticket);\r\n            roundHistory[currentRound].tickets.push(ticket);\r\n        }\r\n        _burn(user, count);\r\n    }\r\n}",
  "sourcePath": "C:/GitHub/Swapify-Lottery/contracts/test/LotteryContractMock.sol",
  "compiler": {
    "name": "solc",
    "version": "0.8.0+commit.c7dfd78e.Emscripten.clang"
  },
  "schemaVersion": "3.4.1",
  "updatedAt": "2022-03-21T21:36:30.590Z",
  "devdoc": {
    "kind": "dev",
    "methods": {
      "addPermittedAccount(address)": {
        "details": "Adds the address to the list of permitted accounts. Only external accounts should be added. Adding a contract address will not be permitted to do transaction."
      },
      "addReward(uint256)": {
        "details": "Admin can only use this function.  Adds SWAPIFY rewards to the current round."
      },
      "claimRewards(address,uint256)": {
        "details": "claims rewards during the specified round if there are any to be claimed."
      },
      "currentReward()": {
        "details": "show the current round reward.  Return uint. "
      },
      "drawWinningNumber()": {
        "details": "Admin draws the 4 winning numbers.  (Random numbers between 0-9). Stores data on chain and starts a new round. Updates the mapping for rounds. Only Admin can execute this function."
      },
      "getRoundHistory(uint256)": {
        "details": "This function shows round data by round number"
      },
      "getUserRoundData(address,uint256)": {
        "details": "This function calculates rewards & show userdata"
      },
      "isOwner()": {
        "details": "Returns true if the caller is the current owner."
      },
      "isPermissible()": {
        "details": "Returns true if the caller is among the list of permitted accounts. Only allowed for external accounts."
      },
      "mintTickets(address,uint256)": {
        "details": "mints SwapifyTICKET and sends it to the specified address.   This will be used in the DEX contract whenever trades get fulfilled."
      },
      "owner()": {
        "details": "Returns the address of the current owner."
      },
      "removePermittedAccount(address)": {
        "details": "Removes or deactivate the address from the list of permitted accounts."
      },
      "renounceOwnership()": {
        "details": "Leaves the contract without owner. It will not be possible to call `onlyOwner` functions anymore. Can only be called by the current owner. > Note: Renouncing ownership will leave the contract without an owner, thereby removing any functionality that is only available to the owner."
      },
      "setNonce(uint256)": {
        "details": "set nonce for randomize ticket generation."
      },
      "setRewardRatio(uint8)": {
        "details": "Admin can change the reward ratio. This ratio represents how many SWAPAFY required to buy 1 SWAPATICKET"
      },
      "submitTicket(address,uint256)": {
        "details": "user will submit the amount of tickets (SWAPATICKETS) and they must have sufficient amount of tickets in their wallet.  This will then create an entry with 4 random numbers between 0 - 9.  Each ticket user submits grants them one entry with 4 different and random numbers between 0 - 9. User can only submit the amount of tickets that is equivalent to the amount of SWAPATICKETS they have in their wallet.   When user submits ticket(s), SWAPATICKETS get burnt in the process."
      },
      "ticketsInCurrentRound()": {
        "details": "shows array of tickets that are in current round."
      },
      "transferOwnership(address)": {
        "details": "Transfers ownership of the contract to a new account (`newOwner`). Can only be called by the current owner."
      },
      "updateMatchPoolAllocation(uint8,uint8,uint8,uint8)": {
        "details": "updates the reward allocation ratio for each pool.  Ratios must add up to 1.   Example:  updateMatchPoolAllocation(0.5, 0.3, 0.15, 0.05)"
      }
    },
    "version": 1
  },
  "userdoc": {
    "kind": "user",
    "methods": {},
    "version": 1
  }
}