{
  "contractName": "LotteryContractMock",
  "abi": [
    {
      "inputs": [
        {
          "internalType": "address",
          "name": "_rewardsTokenAddress",
          "type": "address"
        }
      ],
      "stateMutability": "nonpayable",
      "type": "constructor"
    },
    {
      "anonymous": false,
      "inputs": [
        {
          "indexed": true,
          "internalType": "address",
          "name": "owner",
          "type": "address"
        },
        {
          "indexed": true,
          "internalType": "address",
          "name": "spender",
          "type": "address"
        },
        {
          "indexed": false,
          "internalType": "uint256",
          "name": "value",
          "type": "uint256"
        }
      ],
      "name": "Approval",
      "type": "event"
    },
    {
      "anonymous": false,
      "inputs": [
        {
          "indexed": true,
          "internalType": "address",
          "name": "previousOwner",
          "type": "address"
        },
        {
          "indexed": true,
          "internalType": "address",
          "name": "newOwner",
          "type": "address"
        }
      ],
      "name": "OwnershipTransferred",
      "type": "event"
    },
    {
      "anonymous": false,
      "inputs": [
        {
          "indexed": true,
          "internalType": "address",
          "name": "from",
          "type": "address"
        },
        {
          "indexed": true,
          "internalType": "address",
          "name": "to",
          "type": "address"
        },
        {
          "indexed": false,
          "internalType": "uint256",
          "name": "value",
          "type": "uint256"
        }
      ],
      "name": "Transfer",
      "type": "event"
    },
    {
      "inputs": [
        {
          "internalType": "uint256",
          "name": "rewardAmount",
          "type": "uint256"
        }
      ],
      "name": "addReward",
      "outputs": [],
      "stateMutability": "nonpayable",
      "type": "function"
    },
    {
      "inputs": [
        {
          "internalType": "address",
          "name": "",
          "type": "address"
        },
        {
          "internalType": "address",
          "name": "",
          "type": "address"
        }
      ],
      "name": "allowance",
      "outputs": [
        {
          "internalType": "uint256",
          "name": "",
          "type": "uint256"
        }
      ],
      "stateMutability": "view",
      "type": "function"
    },
    {
      "inputs": [
        {
          "internalType": "address",
          "name": "spender",
          "type": "address"
        },
        {
          "internalType": "uint256",
          "name": "value",
          "type": "uint256"
        }
      ],
      "name": "approve",
      "outputs": [
        {
          "internalType": "bool",
          "name": "",
          "type": "bool"
        }
      ],
      "stateMutability": "nonpayable",
      "type": "function"
    },
    {
      "inputs": [
        {
          "internalType": "address",
          "name": "",
          "type": "address"
        }
      ],
      "name": "balanceOf",
      "outputs": [
        {
          "internalType": "uint256",
          "name": "",
          "type": "uint256"
        }
      ],
      "stateMutability": "view",
      "type": "function"
    },
    {
      "inputs": [
        {
          "internalType": "address",
          "name": "user",
          "type": "address"
        },
        {
          "internalType": "uint256",
          "name": "rewardsAmount",
          "type": "uint256"
        }
      ],
      "name": "buyTickets",
      "outputs": [],
      "stateMutability": "nonpayable",
      "type": "function"
    },
    {
      "inputs": [
        {
          "internalType": "address",
          "name": "user",
          "type": "address"
        },
        {
          "internalType": "uint256",
          "name": "round",
          "type": "uint256"
        }
      ],
      "name": "claimRewards",
      "outputs": [],
      "stateMutability": "nonpayable",
      "type": "function"
    },
    {
      "inputs": [],
      "name": "currentReward",
      "outputs": [
        {
          "internalType": "uint256",
          "name": "",
          "type": "uint256"
        }
      ],
      "stateMutability": "view",
      "type": "function"
    },
    {
      "inputs": [],
      "name": "currentRound",
      "outputs": [
        {
          "internalType": "uint256",
          "name": "",
          "type": "uint256"
        }
      ],
      "stateMutability": "view",
      "type": "function"
    },
    {
      "inputs": [],
      "name": "decimals",
      "outputs": [
        {
          "internalType": "uint8",
          "name": "",
          "type": "uint8"
        }
      ],
      "stateMutability": "view",
      "type": "function"
    },
    {
      "inputs": [],
      "name": "drawWinningNumber",
      "outputs": [],
      "stateMutability": "nonpayable",
      "type": "function"
    },
    {
      "inputs": [
        {
          "internalType": "uint256",
          "name": "round",
          "type": "uint256"
        }
      ],
      "name": "getRoundHistory",
      "outputs": [
        {
          "components": [
            {
              "internalType": "uint256",
              "name": "round",
              "type": "uint256"
            },
            {
              "components": [
                {
                  "internalType": "uint8",
                  "name": "position1",
                  "type": "uint8"
                },
                {
                  "internalType": "uint8",
                  "name": "position2",
                  "type": "uint8"
                },
                {
                  "internalType": "uint8",
                  "name": "position3",
                  "type": "uint8"
                },
                {
                  "internalType": "uint8",
                  "name": "position4",
                  "type": "uint8"
                }
              ],
              "internalType": "struct SwapifyLotterySystem.Ticket",
              "name": "winningNumbers",
              "type": "tuple"
            },
            {
              "internalType": "uint256",
              "name": "reward",
              "type": "uint256"
            },
            {
              "components": [
                {
                  "internalType": "uint8",
                  "name": "position1",
                  "type": "uint8"
                },
                {
                  "internalType": "uint8",
                  "name": "position2",
                  "type": "uint8"
                },
                {
                  "internalType": "uint8",
                  "name": "position3",
                  "type": "uint8"
                },
                {
                  "internalType": "uint8",
                  "name": "position4",
                  "type": "uint8"
                }
              ],
              "internalType": "struct SwapifyLotterySystem.Ticket[]",
              "name": "tickets",
              "type": "tuple[]"
            },
            {
              "components": [
                {
                  "internalType": "uint8",
                  "name": "matchAll",
                  "type": "uint8"
                },
                {
                  "internalType": "uint8",
                  "name": "match3",
                  "type": "uint8"
                },
                {
                  "internalType": "uint8",
                  "name": "match2",
                  "type": "uint8"
                },
                {
                  "internalType": "uint8",
                  "name": "match1",
                  "type": "uint8"
                }
              ],
              "internalType": "struct SwapifyLotterySystem.RewardRatio",
              "name": "rewardRatio",
              "type": "tuple"
            },
            {
              "internalType": "uint8",
              "name": "match1",
              "type": "uint8"
            },
            {
              "internalType": "uint8",
              "name": "match2",
              "type": "uint8"
            },
            {
              "internalType": "uint8",
              "name": "match3",
              "type": "uint8"
            },
            {
              "internalType": "uint8",
              "name": "matchAll",
              "type": "uint8"
            },
            {
              "internalType": "bool",
              "name": "noMatch",
              "type": "bool"
            }
          ],
          "internalType": "struct SwapifyLotterySystem.RoundData",
          "name": "",
          "type": "tuple"
        }
      ],
      "stateMutability": "view",
      "type": "function"
    },
    {
      "inputs": [
        {
          "internalType": "address",
          "name": "user",
          "type": "address"
        },
        {
          "internalType": "uint256",
          "name": "round",
          "type": "uint256"
        }
      ],
      "name": "getUserRoundData",
      "outputs": [
        {
          "components": [
            {
              "internalType": "uint256",
              "name": "round",
              "type": "uint256"
            },
            {
              "internalType": "address",
              "name": "user",
              "type": "address"
            },
            {
              "components": [
                {
                  "internalType": "uint8",
                  "name": "position1",
                  "type": "uint8"
                },
                {
                  "internalType": "uint8",
                  "name": "position2",
                  "type": "uint8"
                },
                {
                  "internalType": "uint8",
                  "name": "position3",
                  "type": "uint8"
                },
                {
                  "internalType": "uint8",
                  "name": "position4",
                  "type": "uint8"
                }
              ],
              "internalType": "struct SwapifyLotterySystem.Ticket[]",
              "name": "tickets",
              "type": "tuple[]"
            },
            {
              "internalType": "uint8[]",
              "name": "boughtTickets",
              "type": "uint8[]"
            },
            {
              "internalType": "bool",
              "name": "claimed",
              "type": "bool"
            },
            {
              "internalType": "uint256",
              "name": "reward",
              "type": "uint256"
            }
          ],
          "internalType": "struct SwapifyLotterySystem.UserData",
          "name": "",
          "type": "tuple"
        }
      ],
      "stateMutability": "view",
      "type": "function"
    },
    {
      "inputs": [],
      "name": "isOwner",
      "outputs": [
        {
          "internalType": "bool",
          "name": "",
          "type": "bool"
        }
      ],
      "stateMutability": "view",
      "type": "function"
    },
    {
      "inputs": [
        {
          "internalType": "address",
          "name": "user",
          "type": "address"
        },
        {
          "internalType": "uint256",
          "name": "swapifyLotteryTicketAmount",
          "type": "uint256"
        }
      ],
      "name": "mintTickets",
      "outputs": [],
      "stateMutability": "nonpayable",
      "type": "function"
    },
    {
      "inputs": [],
      "name": "name",
      "outputs": [
        {
          "internalType": "string",
          "name": "",
          "type": "string"
        }
      ],
      "stateMutability": "view",
      "type": "function"
    },
    {
      "inputs": [],
      "name": "owner",
      "outputs": [
        {
          "internalType": "address",
          "name": "",
          "type": "address"
        }
      ],
      "stateMutability": "view",
      "type": "function"
    },
    {
      "inputs": [],
      "name": "renounceOwnership",
      "outputs": [],
      "stateMutability": "nonpayable",
      "type": "function"
    },
    {
      "inputs": [],
      "name": "rewardRatio",
      "outputs": [
        {
          "internalType": "uint8",
          "name": "",
          "type": "uint8"
        }
      ],
      "stateMutability": "view",
      "type": "function"
    },
    {
      "inputs": [],
      "name": "rewardsToken",
      "outputs": [
        {
          "internalType": "address",
          "name": "",
          "type": "address"
        }
      ],
      "stateMutability": "view",
      "type": "function"
    },
    {
      "inputs": [
        {
          "internalType": "uint256",
          "name": "_nonce",
          "type": "uint256"
        }
      ],
      "name": "setNonce",
      "outputs": [],
      "stateMutability": "nonpayable",
      "type": "function"
    },
    {
      "inputs": [
        {
          "internalType": "uint8",
          "name": "ratio",
          "type": "uint8"
        }
      ],
      "name": "setRewardRatio",
      "outputs": [],
      "stateMutability": "nonpayable",
      "type": "function"
    },
    {
      "inputs": [
        {
          "internalType": "address",
          "name": "_rewardsTokenAddress",
          "type": "address"
        }
      ],
      "name": "setRewardToken",
      "outputs": [],
      "stateMutability": "nonpayable",
      "type": "function"
    },
    {
      "inputs": [
        {
          "internalType": "address",
          "name": "user",
          "type": "address"
        },
        {
          "internalType": "uint256",
          "name": "amount",
          "type": "uint256"
        }
      ],
      "name": "submitTicket",
      "outputs": [],
      "stateMutability": "nonpayable",
      "type": "function"
    },
    {
      "inputs": [],
      "name": "symbol",
      "outputs": [
        {
          "internalType": "string",
          "name": "",
          "type": "string"
        }
      ],
      "stateMutability": "view",
      "type": "function"
    },
    {
      "inputs": [],
      "name": "ticketsInCurrentRound",
      "outputs": [
        {
          "components": [
            {
              "internalType": "uint8",
              "name": "position1",
              "type": "uint8"
            },
            {
              "internalType": "uint8",
              "name": "position2",
              "type": "uint8"
            },
            {
              "internalType": "uint8",
              "name": "position3",
              "type": "uint8"
            },
            {
              "internalType": "uint8",
              "name": "position4",
              "type": "uint8"
            }
          ],
          "internalType": "struct SwapifyLotterySystem.Ticket[]",
          "name": "",
          "type": "tuple[]"
        }
      ],
      "stateMutability": "view",
      "type": "function"
    },
    {
      "inputs": [],
      "name": "totalSupply",
      "outputs": [
        {
          "internalType": "uint256",
          "name": "",
          "type": "uint256"
        }
      ],
      "stateMutability": "view",
      "type": "function"
    },
    {
      "inputs": [
        {
          "internalType": "address",
          "name": "to",
          "type": "address"
        },
        {
          "internalType": "uint256",
          "name": "value",
          "type": "uint256"
        }
      ],
      "name": "transfer",
      "outputs": [
        {
          "internalType": "bool",
          "name": "",
          "type": "bool"
        }
      ],
      "stateMutability": "nonpayable",
      "type": "function"
    },
    {
      "inputs": [
        {
          "internalType": "address",
          "name": "from",
          "type": "address"
        },
        {
          "internalType": "address",
          "name": "to",
          "type": "address"
        },
        {
          "internalType": "uint256",
          "name": "value",
          "type": "uint256"
        }
      ],
      "name": "transferFrom",
      "outputs": [
        {
          "internalType": "bool",
          "name": "",
          "type": "bool"
        }
      ],
      "stateMutability": "nonpayable",
      "type": "function"
    },
    {
      "inputs": [
        {
          "internalType": "address",
          "name": "newOwner",
          "type": "address"
        }
      ],
      "name": "transferOwnership",
      "outputs": [],
      "stateMutability": "nonpayable",
      "type": "function"
    },
    {
      "inputs": [
        {
          "internalType": "uint8",
          "name": "matchAll",
          "type": "uint8"
        },
        {
          "internalType": "uint8",
          "name": "match3",
          "type": "uint8"
        },
        {
          "internalType": "uint8",
          "name": "match2",
          "type": "uint8"
        },
        {
          "internalType": "uint8",
          "name": "match1",
          "type": "uint8"
        }
      ],
      "name": "updateMatchPoolAllocation",
      "outputs": [],
      "stateMutability": "nonpayable",
      "type": "function"
    },
    {
      "inputs": [
        {
          "internalType": "uint8[]",
          "name": "winningTickets",
          "type": "uint8[]"
        }
      ],
      "name": "mockDrawWinningNumber",
      "outputs": [],
      "stateMutability": "nonpayable",
      "type": "function"
    },
    {
      "inputs": [
        {
          "internalType": "address",
          "name": "user",
          "type": "address"
        },
        {
          "internalType": "uint8[]",
          "name": "ticketPositions",
          "type": "uint8[]"
        }
      ],
      "name": "mockSubmitTicket",
      "outputs": [],
      "stateMutability": "nonpayable",
      "type": "function"
    }
  ],
  "bytecode": "0x608060405260048060146101000a81548160ff021916908360ff1602179055503480156200002c57600080fd5b50604051620070843803806200708483398181016040528101906200005291906200025a565b8032600360006101000a81548173ffffffffffffffffffffffffffffffffffffffff021916908373ffffffffffffffffffffffffffffffffffffffff160217905550600360009054906101000a900473ffffffffffffffffffffffffffffffffffffffff1673ffffffffffffffffffffffffffffffffffffffff16600073ffffffffffffffffffffffffffffffffffffffff167f8be0079c531659141344cd1fd0a4f28419497f9722a3daafe3b4186f6b6457e060405160405180910390a380600460006101000a81548173ffffffffffffffffffffffffffffffffffffffff021916908373ffffffffffffffffffffffffffffffffffffffff16021790555060016005819055506506f26c0fbec4600881905550603260066000600554815260200190815260200160002060040160000160006101000a81548160ff021916908360ff160217905550601e60066000600554815260200190815260200160002060040160000160016101000a81548160ff021916908360ff160217905550600f60066000600554815260200190815260200160002060040160000160026101000a81548160ff021916908360ff160217905550600560066000600554815260200190815260200160002060040160000160036101000a81548160ff021916908360ff1602179055505050620002d4565b6000815190506200025481620002ba565b92915050565b6000602082840312156200026d57600080fd5b60006200027d8482850162000243565b91505092915050565b600062000293826200029a565b9050919050565b600073ffffffffffffffffffffffffffffffffffffffff82169050919050565b620002c58162000286565b8114620002d157600080fd5b50565b616da080620002e46000396000f3fe608060405234801561001057600080fd5b50600436106101f05760003560e01c806388f577671161010f5780639a99b4f0116100a2578063dd20c4a711610071578063dd20c4a71461056f578063dd62ed3e1461058b578063f2fde38b146105bb578063f360c183146105d7576101f0565b80639a99b4f0146104e9578063a9059cbb14610505578063d0ed958814610535578063d1af0c7d14610551576101f0565b80638f32d59b116100de5780638f32d59b1461044d5780639371099a1461046b5780639506a4ec1461049b57806395d89b41146104cb576101f0565b806388f57767146103d95780638a19c8bc146103f55780638aee8127146104135780638da5cb5b1461042f576101f0565b806349fd689f1161018757806370a082311161015657806370a0823114610367578063715018a61461039757806374de4ec4146103a15780637cdc133b146103bd576101f0565b806349fd689f146103055780635ea16f9314610321578063646033bc1461033f578063667d05721461035d576101f0565b806318160ddd116101c357806318160ddd1461027d57806323b872dd1461029b578063313ce567146102cb57806338fdae0b146102e9576101f0565b8063042f90fa146101f557806306fdde031461021157806307621eca1461022f578063095ea7b31461024d575b600080fd5b61020f600480360381019061020a9190615227565b6105f3565b005b610219610985565b6040516102269190616318565b60405180910390f35b6102376109be565b60405161024491906166be565b60405180910390f35b61026760048036038101906102629190615227565b6109de565b60405161027491906162fd565b60405180910390f35b6102856109f5565b60405161029291906166be565b60405180910390f35b6102b560048036038101906102b09190615184565b6109fb565b6040516102c291906162fd565b60405180910390f35b6102d3610c85565b6040516102e091906166d9565b60405180910390f35b61030360048036038101906102fe9190615348565b610c8a565b005b61031f600480360381019061031a91906152f6565b610e0e565b005b610329610eb9565b60405161033691906162db565b60405180910390f35b610347610f9e565b60405161035491906166d9565b60405180910390f35b610365610fb1565b005b610381600480360381019061037c919061511f565b6115a8565b60405161038e91906166be565b60405180910390f35b61039f6115c0565b005b6103bb60048036038101906103b691906152cd565b6116c8565b005b6103d760048036038101906103d291906151d3565b611850565b005b6103f360048036038101906103ee9190615227565b611d09565b005b6103fd61201d565b60405161040a91906166be565b60405180910390f35b61042d6004803603810190610428919061511f565b612023565b005b61043761211e565b6040516104449190616260565b60405180910390f35b610455612148565b60405161046291906162fd565b60405180910390f35b61048560048036038101906104809190615227565b6121a0565b604051610492919061669c565b60405180910390f35b6104b560048036038101906104b091906152cd565b612a90565b6040516104c2919061667a565b60405180910390f35b6104d3612d40565b6040516104e09190616318565b60405180910390f35b61050360048036038101906104fe9190615227565b612d79565b005b61051f600480360381019061051a9190615227565b61303f565b60405161052c91906162fd565b60405180910390f35b61054f600480360381019061054a9190615263565b613056565b005b610559613733565b6040516105669190616260565b60405180910390f35b61058960048036038101906105849190615227565b613759565b005b6105a560048036038101906105a09190615148565b61381a565b6040516105b291906166be565b60405180910390f35b6105d560048036038101906105d0919061511f565b61383f565b005b6105f160048036038101906105ec91906152cd565b613892565b005b60008111610636576040517f08c379a000000000000000000000000000000000000000000000000000000000815260040161062d9061663a565b60405180910390fd5b60055460076000600554815260200190815260200160002060008473ffffffffffffffffffffffffffffffffffffffff1673ffffffffffffffffffffffffffffffffffffffff168152602001908152602001600020600001819055508160076000600554815260200190815260200160002060008473ffffffffffffffffffffffffffffffffffffffff1673ffffffffffffffffffffffffffffffffffffffff16815260200190815260200160002060010160006101000a81548173ffffffffffffffffffffffffffffffffffffffff021916908373ffffffffffffffffffffffffffffffffffffffff16021790555060005b8181101561097657610739614efd565b6107416138e3565b816000019060ff16908160ff168152505061075a6138e3565b816020019060ff16908160ff16815250506107736138e3565b816040019060ff16908160ff168152505061078c6138e3565b816060019060ff16908160ff168152505060076000600554815260200190815260200160002060008573ffffffffffffffffffffffffffffffffffffffff1673ffffffffffffffffffffffffffffffffffffffff168152602001908152602001600020600201819080600181540180825580915050600190039060005260206000200160009091909190915060008201518160000160006101000a81548160ff021916908360ff16021790555060208201518160000160016101000a81548160ff021916908360ff16021790555060408201518160000160026101000a81548160ff021916908360ff16021790555060608201518160000160036101000a81548160ff021916908360ff1602179055505050600660006005548152602001908152602001600020600301819080600181540180825580915050600190039060005260206000200160009091909190915060008201518160000160006101000a81548160ff021916908360ff16021790555060208201518160000160016101000a81548160ff021916908360ff16021790555060408201518160000160026101000a81548160ff021916908360ff16021790555060608201518160000160036101000a81548160ff021916908360ff160217905550505050808061096e90616b7a565b915050610729565b506109818282613943565b5050565b6040518060400160405280601c81526020017f53776170696679204c6f7474657279205469636b657420546f6b656e0000000081525081565b600060066000600554815260200190815260200160002060020154905090565b60006109eb338484613b94565b6001905092915050565b60005481565b600081600260008673ffffffffffffffffffffffffffffffffffffffff1673ffffffffffffffffffffffffffffffffffffffff16815260200190815260200160002060003373ffffffffffffffffffffffffffffffffffffffff1673ffffffffffffffffffffffffffffffffffffffff168152602001908152602001600020541015610abc576040517f08c379a0000000000000000000000000000000000000000000000000000000008152600401610ab3906164ba565b60405180910390fd5b7fffffffffffffffffffffffffffffffffffffffffffffffffffffffffffffffff600260008673ffffffffffffffffffffffffffffffffffffffff1673ffffffffffffffffffffffffffffffffffffffff16815260200190815260200160002060003373ffffffffffffffffffffffffffffffffffffffff1673ffffffffffffffffffffffffffffffffffffffff1681526020019081526020016000205414610c6f57610bee82600260008773ffffffffffffffffffffffffffffffffffffffff1673ffffffffffffffffffffffffffffffffffffffff16815260200190815260200160002060003373ffffffffffffffffffffffffffffffffffffffff1673ffffffffffffffffffffffffffffffffffffffff16815260200190815260200160002054613cef90919063ffffffff16565b600260008673ffffffffffffffffffffffffffffffffffffffff1673ffffffffffffffffffffffffffffffffffffffff16815260200190815260200160002060003373ffffffffffffffffffffffffffffffffffffffff1673ffffffffffffffffffffffffffffffffffffffff168152602001908152602001600020819055505b610c7a848484613d48565b600190509392505050565b600081565b610c92612148565b610cd1576040517f08c379a0000000000000000000000000000000000000000000000000000000008152600401610cc89061651a565b60405180910390fd5b606481838587610ce19190616846565b610ceb9190616846565b610cf59190616846565b60ff1614610d38576040517f08c379a0000000000000000000000000000000000000000000000000000000008152600401610d2f9061657a565b60405180910390fd5b8360066000600554815260200190815260200160002060040160000160006101000a81548160ff021916908360ff1602179055508260066000600554815260200190815260200160002060040160000160016101000a81548160ff021916908360ff1602179055508160066000600554815260200190815260200160002060040160000160026101000a81548160ff021916908360ff1602179055508060066000600554815260200190815260200160002060040160000160036101000a81548160ff021916908360ff16021790555050505050565b610e16612148565b610e55576040517f08c379a0000000000000000000000000000000000000000000000000000000008152600401610e4c9061651a565b60405180910390fd5b60008160ff1611610e9b576040517f08c379a0000000000000000000000000000000000000000000000000000000008152600401610e929061643a565b60405180910390fd5b80600460146101000a81548160ff021916908360ff16021790555050565b6060600660006005548152602001908152602001600020600301805480602002602001604051908101604052809291908181526020016000905b82821015610f95578382906000526020600020016040518060800160405290816000820160009054906101000a900460ff1660ff1660ff1681526020016000820160019054906101000a900460ff1660ff1660ff1681526020016000820160029054906101000a900460ff1660ff1660ff1681526020016000820160039054906101000a900460ff1660ff1660ff168152505081526020019060010190610ef3565b50505050905090565b600460149054906101000a900460ff1681565b610fb9612148565b610ff8576040517f08c379a0000000000000000000000000000000000000000000000000000000008152600401610fef9061651a565b60405180910390fd5b6110006138e3565b60066000600554815260200190815260200160002060010160000160006101000a81548160ff021916908360ff16021790555061103b6138e3565b60066000600554815260200190815260200160002060010160000160016101000a81548160ff021916908360ff1602179055506110766138e3565b60066000600554815260200190815260200160002060010160000160026101000a81548160ff021916908360ff1602179055506110b16138e3565b60066000600554815260200190815260200160002060010160000160036101000a81548160ff021916908360ff1602179055506111cd600660006005548152602001908152602001600020600301805480602002602001604051908101604052809291908181526020016000905b828210156111c1578382906000526020600020016040518060800160405290816000820160009054906101000a900460ff1660ff1660ff1681526020016000820160019054906101000a900460ff1660ff1660ff1681526020016000820160029054906101000a900460ff1660ff1660ff1681526020016000820160039054906101000a900460ff1660ff1660ff16815250508152602001906001019061111f565b5050505060055461403e565b60066000600554815260200190815260200160002060050160036006600060055481526020019081526020016000206005016002600660006005548152602001908152602001600020600501600160066000600554815260200190815260200160002060050160008891906101000a81548160ff021916908360ff1602179055508791906101000a81548160ff021916908360ff1602179055508691906101000a81548160ff021916908360ff1602179055508591906101000a81548160ff021916908360ff16021790555050505050600060066000600554815260200190815260200160002060050160009054906101000a900460ff1660ff161480156112fd5750600060066000600554815260200190815260200160002060050160019054906101000a900460ff1660ff16145b80156113315750600060066000600554815260200190815260200160002060050160029054906101000a900460ff1660ff16145b80156113655750600060066000600554815260200190815260200160002060050160039054906101000a900460ff1660ff16145b1561139c57600160066000600554815260200190815260200160002060050160046101000a81548160ff0219169083151502179055505b600560008154809291906113af90616b7a565b9190505550600554600660006005548152602001908152602001600020600001819055506113ea60016005546113e59190616ab4565b61457a565b600660006005548152602001908152602001600020600201819055506006600060016005546114199190616ab4565b815260200190815260200160002060040160000160009054906101000a900460ff1660066000600554815260200190815260200160002060040160000160006101000a81548160ff021916908360ff1602179055506006600060016005546114819190616ab4565b815260200190815260200160002060040160000160019054906101000a900460ff1660066000600554815260200190815260200160002060040160000160016101000a81548160ff021916908360ff1602179055506006600060016005546114e99190616ab4565b815260200190815260200160002060040160000160029054906101000a900460ff1660066000600554815260200190815260200160002060040160000160026101000a81548160ff021916908360ff1602179055506006600060016005546115519190616ab4565b815260200190815260200160002060040160000160039054906101000a900460ff1660066000600554815260200190815260200160002060040160000160036101000a81548160ff021916908360ff160217905550565b60016020528060005260406000206000915090505481565b6115c8612148565b611607576040517f08c379a00000000000000000000000000000000000000000000000000000000081526004016115fe9061651a565b60405180910390fd5b600073ffffffffffffffffffffffffffffffffffffffff16600360009054906101000a900473ffffffffffffffffffffffffffffffffffffffff1673ffffffffffffffffffffffffffffffffffffffff167f8be0079c531659141344cd1fd0a4f28419497f9722a3daafe3b4186f6b6457e060405160405180910390a36000600360006101000a81548173ffffffffffffffffffffffffffffffffffffffff021916908373ffffffffffffffffffffffffffffffffffffffff160217905550565b6116d0612148565b61170f576040517f08c379a00000000000000000000000000000000000000000000000000000000081526004016117069061651a565b60405180910390fd5b600460009054906101000a900473ffffffffffffffffffffffffffffffffffffffff1673ffffffffffffffffffffffffffffffffffffffff166323b872dd61175561211e565b30846040518463ffffffff1660e01b81526004016117759392919061627b565b602060405180830381600087803b15801561178f57600080fd5b505af11580156117a3573d6000803e3d6000fd5b505050506040513d601f19601f820116820180604052508101906117c791906152a4565b611806576040517f08c379a00000000000000000000000000000000000000000000000000000000081526004016117fd9061637a565b60405180910390fd5b611831816006600060055481526020019081526020016000206002015461469290919063ffffffff16565b6006600060055481526020019081526020016000206002018190555050565b6000600482516118609190616c25565b146118a0576040517f08c379a0000000000000000000000000000000000000000000000000000000008152600401611897906163fa565b60405180910390fd5b60055460076000600554815260200190815260200160002060008473ffffffffffffffffffffffffffffffffffffffff1673ffffffffffffffffffffffffffffffffffffffff168152602001908152602001600020600001819055508160076000600554815260200190815260200160002060008473ffffffffffffffffffffffffffffffffffffffff1673ffffffffffffffffffffffffffffffffffffffff16815260200190815260200160002060010160006101000a81548173ffffffffffffffffffffffffffffffffffffffff021916908373ffffffffffffffffffffffffffffffffffffffff1602179055506000600482516119a0919061687d565b905060005b8251811015611cf9576119b6614efd565b8382806119c290616b7a565b9350815181106119fb577f4e487b7100000000000000000000000000000000000000000000000000000000600052603260045260246000fd5b6020026020010151816000019060ff16908160ff1681525050838280611a2090616b7a565b935081518110611a59577f4e487b7100000000000000000000000000000000000000000000000000000000600052603260045260246000fd5b6020026020010151816020019060ff16908160ff1681525050838280611a7e90616b7a565b935081518110611ab7577f4e487b7100000000000000000000000000000000000000000000000000000000600052603260045260246000fd5b6020026020010151816040019060ff16908160ff1681525050838280611adc90616b7a565b935081518110611b15577f4e487b7100000000000000000000000000000000000000000000000000000000600052603260045260246000fd5b6020026020010151816060019060ff16908160ff168152505060076000600554815260200190815260200160002060008673ffffffffffffffffffffffffffffffffffffffff1673ffffffffffffffffffffffffffffffffffffffff168152602001908152602001600020600201819080600181540180825580915050600190039060005260206000200160009091909190915060008201518160000160006101000a81548160ff021916908360ff16021790555060208201518160000160016101000a81548160ff021916908360ff16021790555060408201518160000160026101000a81548160ff021916908360ff16021790555060608201518160000160036101000a81548160ff021916908360ff1602179055505050600660006005548152602001908152602001600020600301819080600181540180825580915050600190039060005260206000200160009091909190915060008201518160000160006101000a81548160ff021916908360ff16021790555060208201518160000160016101000a81548160ff021916908360ff16021790555060408201518160000160026101000a81548160ff021916908360ff16021790555060608201518160000160036101000a81548160ff021916908360ff1602179055505050506119a5565b50611d048382613943565b505050565b600073ffffffffffffffffffffffffffffffffffffffff168273ffffffffffffffffffffffffffffffffffffffff161415611d79576040517f08c379a0000000000000000000000000000000000000000000000000000000008152600401611d70906164fa565b60405180910390fd5b60008111611dbc576040517f08c379a0000000000000000000000000000000000000000000000000000000008152600401611db39061659a565b60405180910390fd5b6000600460149054906101000a900460ff1660ff16600460009054906101000a900473ffffffffffffffffffffffffffffffffffffffff1673ffffffffffffffffffffffffffffffffffffffff1663313ce5676040518163ffffffff1660e01b815260040160206040518083038186803b158015611e3957600080fd5b505afa158015611e4d573d6000803e3d6000fd5b505050506040513d601f19601f82011682018060405250810190611e71919061531f565b600a611e7d9190616901565b83611e88919061687d565b611e92919061687d565b905060008111611ed7576040517f08c379a0000000000000000000000000000000000000000000000000000000008152600401611ece9061661a565b60405180910390fd5b600460009054906101000a900473ffffffffffffffffffffffffffffffffffffffff1673ffffffffffffffffffffffffffffffffffffffff166323b872dd8430856040518463ffffffff1660e01b8152600401611f369392919061627b565b602060405180830381600087803b158015611f5057600080fd5b505af1158015611f64573d6000803e3d6000fd5b505050506040513d601f19601f82011682018060405250810190611f8891906152a4565b611fc7576040517f08c379a0000000000000000000000000000000000000000000000000000000008152600401611fbe9061653a565b60405180910390fd5b611fd183826146af565b611ffc826006600060055481526020019081526020016000206002015461469290919063ffffffff16565b60066000600554815260200190815260200160002060020181905550505050565b60055481565b61202b612148565b61206a576040517f08c379a00000000000000000000000000000000000000000000000000000000081526004016120619061651a565b60405180910390fd5b600073ffffffffffffffffffffffffffffffffffffffff168173ffffffffffffffffffffffffffffffffffffffff1614156120da576040517f08c379a00000000000000000000000000000000000000000000000000000000081526004016120d19061649a565b60405180910390fd5b80600460006101000a81548173ffffffffffffffffffffffffffffffffffffffff021916908373ffffffffffffffffffffffffffffffffffffffff16021790555050565b6000600360009054906101000a900473ffffffffffffffffffffffffffffffffffffffff16905090565b6000600360009054906101000a900473ffffffffffffffffffffffffffffffffffffffff1673ffffffffffffffffffffffffffffffffffffffff163373ffffffffffffffffffffffffffffffffffffffff1614905090565b6121a8614f31565b6000600554831015612300576000806000806122dc6007600089815260200190815260200160002060008a73ffffffffffffffffffffffffffffffffffffffff1673ffffffffffffffffffffffffffffffffffffffff168152602001908152602001600020600201805480602002602001604051908101604052809291908181526020016000905b828210156122d2578382906000526020600020016040518060800160405290816000820160009054906101000a900460ff1660ff1660ff1681526020016000820160019054906101000a900460ff1660ff1660ff1681526020016000820160029054906101000a900460ff1660ff1660ff1681526020016000820160039054906101000a900460ff1660ff1660ff168152505081526020019060010190612230565b505050508861403e565b809450819550829650839750505050506122f9848484848b6148e6565b9450505050505b60006040518060c001604052806007600087815260200190815260200160002060008873ffffffffffffffffffffffffffffffffffffffff1673ffffffffffffffffffffffffffffffffffffffff1681526020019081526020016000206000015481526020016007600087815260200190815260200160002060008873ffffffffffffffffffffffffffffffffffffffff1673ffffffffffffffffffffffffffffffffffffffff16815260200190815260200160002060010160009054906101000a900473ffffffffffffffffffffffffffffffffffffffff1673ffffffffffffffffffffffffffffffffffffffff168152602001600067ffffffffffffffff811115612436577f4e487b7100000000000000000000000000000000000000000000000000000000600052604160045260246000fd5b60405190808252806020026020018201604052801561246f57816020015b61245c614efd565b8152602001906001900390816124545790505b50815260200160046007600088815260200190815260200160002060008973ffffffffffffffffffffffffffffffffffffffff1673ffffffffffffffffffffffffffffffffffffffff168152602001908152602001600020600201805490506124d89190616a1f565b67ffffffffffffffff811115612517577f4e487b7100000000000000000000000000000000000000000000000000000000600052604160045260246000fd5b6040519080825280602002602001820160405280156125455781602001602082028036833780820191505090505b5081526020016007600087815260200190815260200160002060008873ffffffffffffffffffffffffffffffffffffffff1673ffffffffffffffffffffffffffffffffffffffff16815260200190815260200160002060040160009054906101000a900460ff161515815260200183815250905060005b6007600086815260200190815260200160002060008773ffffffffffffffffffffffffffffffffffffffff1673ffffffffffffffffffffffffffffffffffffffff168152602001908152602001600020600201805490508160ff161015612a84576007600086815260200190815260200160002060008773ffffffffffffffffffffffffffffffffffffffff1673ffffffffffffffffffffffffffffffffffffffff1681526020019081526020016000206002018160ff16815481106126ab577f4e487b7100000000000000000000000000000000000000000000000000000000600052603260045260246000fd5b9060005260206000200160000160009054906101000a900460ff16826060015160006004846126da9190616a79565b6126e49190616846565b60ff168151811061271e577f4e487b7100000000000000000000000000000000000000000000000000000000600052603260045260246000fd5b602002602001019060ff16908160ff16815250506007600086815260200190815260200160002060008773ffffffffffffffffffffffffffffffffffffffff1673ffffffffffffffffffffffffffffffffffffffff1681526020019081526020016000206002018160ff16815481106127c0577f4e487b7100000000000000000000000000000000000000000000000000000000600052603260045260246000fd5b9060005260206000200160000160019054906101000a900460ff16826060015160016004846127ef9190616a79565b6127f99190616846565b60ff1681518110612833577f4e487b7100000000000000000000000000000000000000000000000000000000600052603260045260246000fd5b602002602001019060ff16908160ff16815250506007600086815260200190815260200160002060008773ffffffffffffffffffffffffffffffffffffffff1673ffffffffffffffffffffffffffffffffffffffff1681526020019081526020016000206002018160ff16815481106128d5577f4e487b7100000000000000000000000000000000000000000000000000000000600052603260045260246000fd5b9060005260206000200160000160029054906101000a900460ff16826060015160026004846129049190616a79565b61290e9190616846565b60ff1681518110612948577f4e487b7100000000000000000000000000000000000000000000000000000000600052603260045260246000fd5b602002602001019060ff16908160ff16815250506007600086815260200190815260200160002060008773ffffffffffffffffffffffffffffffffffffffff1673ffffffffffffffffffffffffffffffffffffffff1681526020019081526020016000206002018160ff16815481106129ea577f4e487b7100000000000000000000000000000000000000000000000000000000600052603260045260246000fd5b9060005260206000200160000160039054906101000a900460ff1682606001516003600484612a199190616a79565b612a239190616846565b60ff1681518110612a5d577f4e487b7100000000000000000000000000000000000000000000000000000000600052603260045260246000fd5b602002602001019060ff16908160ff16815250508080612a7c90616bc3565b9150506125bc565b50809250505092915050565b612a98614f7f565b600660008381526020019081526020016000206040518061014001604052908160008201548152602001600182016040518060800160405290816000820160009054906101000a900460ff1660ff1660ff1681526020016000820160019054906101000a900460ff1660ff1660ff1681526020016000820160029054906101000a900460ff1660ff1660ff1681526020016000820160039054906101000a900460ff1660ff1660ff168152505081526020016002820154815260200160038201805480602002602001604051908101604052809291908181526020016000905b82821015612c1a578382906000526020600020016040518060800160405290816000820160009054906101000a900460ff1660ff1660ff1681526020016000820160019054906101000a900460ff1660ff1660ff1681526020016000820160029054906101000a900460ff1660ff1660ff1681526020016000820160039054906101000a900460ff1660ff1660ff168152505081526020019060010190612b78565b505050508152602001600482016040518060800160405290816000820160009054906101000a900460ff1660ff1660ff1681526020016000820160019054906101000a900460ff1660ff1660ff1681526020016000820160029054906101000a900460ff1660ff1660ff1681526020016000820160039054906101000a900460ff1660ff1660ff168152505081526020016005820160009054906101000a900460ff1660ff1660ff1681526020016005820160019054906101000a900460ff1660ff1660ff1681526020016005820160029054906101000a900460ff1660ff1660ff1681526020016005820160039054906101000a900460ff1660ff1660ff1681526020016005820160049054906101000a900460ff1615151515815250509050919050565b6040518060400160405280600b81526020017f53574150415449434b455400000000000000000000000000000000000000000081525081565b600080600080612ea16007600087815260200190815260200160002060008873ffffffffffffffffffffffffffffffffffffffff1673ffffffffffffffffffffffffffffffffffffffff168152602001908152602001600020600201805480602002602001604051908101604052809291908181526020016000905b82821015612e97578382906000526020600020016040518060800160405290816000820160009054906101000a900460ff1660ff1660ff1681526020016000820160019054906101000a900460ff1660ff1660ff1681526020016000820160029054906101000a900460ff1660ff1660ff1681526020016000820160039054906101000a900460ff1660ff1660ff168152505081526020019060010190612df5565b505050508661403e565b809450819550829650839750505050506000612ec0858585858a6148e6565b9050806007600088815260200190815260200160002060008973ffffffffffffffffffffffffffffffffffffffff1673ffffffffffffffffffffffffffffffffffffffff1681526020019081526020016000206005018190555060016007600088815260200190815260200160002060008973ffffffffffffffffffffffffffffffffffffffff1673ffffffffffffffffffffffffffffffffffffffff16815260200190815260200160002060040160006101000a81548160ff021916908315150217905550600460009054906101000a900473ffffffffffffffffffffffffffffffffffffffff1673ffffffffffffffffffffffffffffffffffffffff1663a9059cbb88836040518363ffffffff1660e01b8152600401612fe39291906162b2565b602060405180830381600087803b158015612ffd57600080fd5b505af1158015613011573d6000803e3d6000fd5b505050506040513d601f19601f8201168201806040525081019061303591906152a4565b5050505050505050565b600061304c338484613d48565b6001905092915050565b600481511461309a576040517f08c379a00000000000000000000000000000000000000000000000000000000081526004016130919061635a565b60405180910390fd5b806000815181106130d4577f4e487b7100000000000000000000000000000000000000000000000000000000600052603260045260246000fd5b602002602001015160066000600554815260200190815260200160002060010160000160006101000a81548160ff021916908360ff16021790555080600181518110613149577f4e487b7100000000000000000000000000000000000000000000000000000000600052603260045260246000fd5b602002602001015160066000600554815260200190815260200160002060010160000160016101000a81548160ff021916908360ff160217905550806002815181106131be577f4e487b7100000000000000000000000000000000000000000000000000000000600052603260045260246000fd5b602002602001015160066000600554815260200190815260200160002060010160000160026101000a81548160ff021916908360ff16021790555080600381518110613233577f4e487b7100000000000000000000000000000000000000000000000000000000600052603260045260246000fd5b602002602001015160066000600554815260200190815260200160002060010160000160036101000a81548160ff021916908360ff160217905550613357600660006005548152602001908152602001600020600301805480602002602001604051908101604052809291908181526020016000905b8282101561334b578382906000526020600020016040518060800160405290816000820160009054906101000a900460ff1660ff1660ff1681526020016000820160019054906101000a900460ff1660ff1660ff1681526020016000820160029054906101000a900460ff1660ff1660ff1681526020016000820160039054906101000a900460ff1660ff1660ff1681525050815260200190600101906132a9565b5050505060055461403e565b60066000600554815260200190815260200160002060050160036006600060055481526020019081526020016000206005016002600660006005548152602001908152602001600020600501600160066000600554815260200190815260200160002060050160008891906101000a81548160ff021916908360ff1602179055508791906101000a81548160ff021916908360ff1602179055508691906101000a81548160ff021916908360ff1602179055508591906101000a81548160ff021916908360ff16021790555050505050600060066000600554815260200190815260200160002060050160009054906101000a900460ff1660ff161480156134875750600060066000600554815260200190815260200160002060050160019054906101000a900460ff1660ff16145b80156134bb5750600060066000600554815260200190815260200160002060050160029054906101000a900460ff1660ff16145b80156134ef5750600060066000600554815260200190815260200160002060050160039054906101000a900460ff1660ff16145b1561352657600160066000600554815260200190815260200160002060050160046101000a81548160ff0219169083151502179055505b6005600081548092919061353990616b7a565b919050555060055460066000600554815260200190815260200160002060000181905550613574600160055461356f9190616ab4565b61457a565b600660006005548152602001908152602001600020600201819055506006600060016005546135a39190616ab4565b815260200190815260200160002060040160000160009054906101000a900460ff1660066000600554815260200190815260200160002060040160000160006101000a81548160ff021916908360ff16021790555060066000600160055461360b9190616ab4565b815260200190815260200160002060040160000160019054906101000a900460ff1660066000600554815260200190815260200160002060040160000160016101000a81548160ff021916908360ff1602179055506006600060016005546136739190616ab4565b815260200190815260200160002060040160000160029054906101000a900460ff1660066000600554815260200190815260200160002060040160000160026101000a81548160ff021916908360ff1602179055506006600060016005546136db9190616ab4565b815260200190815260200160002060040160000160039054906101000a900460ff1660066000600554815260200190815260200160002060040160000160036101000a81548160ff021916908360ff16021790555050565b600460009054906101000a900473ffffffffffffffffffffffffffffffffffffffff1681565b600073ffffffffffffffffffffffffffffffffffffffff168273ffffffffffffffffffffffffffffffffffffffff1614156137c9576040517f08c379a00000000000000000000000000000000000000000000000000000000081526004016137c0906164fa565b60405180910390fd5b6000811161380c576040517f08c379a00000000000000000000000000000000000000000000000000000000081526004016138039061643a565b60405180910390fd5b61381682826146af565b5050565b6002602052816000526040600020602052806000526040600020600091509150505481565b613847612148565b613886576040517f08c379a000000000000000000000000000000000000000000000000000000000815260040161387d9061651a565b60405180910390fd5b61388f81614ccd565b50565b61389a612148565b6138d9576040517f08c379a00000000000000000000000000000000000000000000000000000000081526004016138d09061651a565b60405180910390fd5b8060088190555050565b60006003600860008282546138f891906167f0565b92505081905550600a4340334260085460405160200161391b9493929190616212565b6040516020818303038152906040528051906020012060001c61393e9190616c25565b905090565b600073ffffffffffffffffffffffffffffffffffffffff168273ffffffffffffffffffffffffffffffffffffffff1614156139b3576040517f08c379a00000000000000000000000000000000000000000000000000000000081526004016139aa906165fa565b60405180910390fd5b80600160008473ffffffffffffffffffffffffffffffffffffffff1673ffffffffffffffffffffffffffffffffffffffff168152602001908152602001600020541015613a35576040517f08c379a0000000000000000000000000000000000000000000000000000000008152600401613a2c9061645a565b60405180910390fd5b613a8781600160008573ffffffffffffffffffffffffffffffffffffffff1673ffffffffffffffffffffffffffffffffffffffff16815260200190815260200160002054613cef90919063ffffffff16565b600160008473ffffffffffffffffffffffffffffffffffffffff1673ffffffffffffffffffffffffffffffffffffffff16815260200190815260200160002081905550600054811115613b0f576040517f08c379a0000000000000000000000000000000000000000000000000000000008152600401613b069061647a565b60405180910390fd5b613b2481600054613cef90919063ffffffff16565b600081905550600073ffffffffffffffffffffffffffffffffffffffff168273ffffffffffffffffffffffffffffffffffffffff167fddf252ad1be2c89b69c2b068fc378daa952ba7f163c4a11628f55a4df523b3ef83604051613b8891906166be565b60405180910390a35050565b600073ffffffffffffffffffffffffffffffffffffffff168273ffffffffffffffffffffffffffffffffffffffff161415613c04576040517f08c379a0000000000000000000000000000000000000000000000000000000008152600401613bfb9061665a565b60405180910390fd5b80600260008573ffffffffffffffffffffffffffffffffffffffff1673ffffffffffffffffffffffffffffffffffffffff16815260200190815260200160002060008473ffffffffffffffffffffffffffffffffffffffff1673ffffffffffffffffffffffffffffffffffffffff168152602001908152602001600020819055508173ffffffffffffffffffffffffffffffffffffffff168373ffffffffffffffffffffffffffffffffffffffff167f8c5be1e5ebec7d5bd14f71427d1e84f3dd0314c0f7b2291e5b200ac8c7c3b92583604051613ce291906166be565b60405180910390a3505050565b6000828284613cfe9190616ab4565b9150811115613d42576040517f08c379a0000000000000000000000000000000000000000000000000000000008152600401613d399061633a565b60405180910390fd5b92915050565b600073ffffffffffffffffffffffffffffffffffffffff168373ffffffffffffffffffffffffffffffffffffffff161415613db8576040517f08c379a0000000000000000000000000000000000000000000000000000000008152600401613daf9061639a565b60405180910390fd5b600073ffffffffffffffffffffffffffffffffffffffff168273ffffffffffffffffffffffffffffffffffffffff161415613e28576040517f08c379a0000000000000000000000000000000000000000000000000000000008152600401613e1f9061655a565b60405180910390fd5b80600160008573ffffffffffffffffffffffffffffffffffffffff1673ffffffffffffffffffffffffffffffffffffffff168152602001908152602001600020541015613eaa576040517f08c379a0000000000000000000000000000000000000000000000000000000008152600401613ea1906165da565b60405180910390fd5b613efc81600160008673ffffffffffffffffffffffffffffffffffffffff1673ffffffffffffffffffffffffffffffffffffffff16815260200190815260200160002054613cef90919063ffffffff16565b600160008573ffffffffffffffffffffffffffffffffffffffff1673ffffffffffffffffffffffffffffffffffffffff16815260200190815260200160002081905550613f9181600160008573ffffffffffffffffffffffffffffffffffffffff1673ffffffffffffffffffffffffffffffffffffffff16815260200190815260200160002054614dfd90919063ffffffff16565b600160008473ffffffffffffffffffffffffffffffffffffffff1673ffffffffffffffffffffffffffffffffffffffff168152602001908152602001600020819055508173ffffffffffffffffffffffffffffffffffffffff168373ffffffffffffffffffffffffffffffffffffffff167fddf252ad1be2c89b69c2b068fc378daa952ba7f163c4a11628f55a4df523b3ef8360405161403191906166be565b60405180910390a3505050565b60008060008060005b8651811015614570576006600087815260200190815260200160002060010160000160009054906101000a900460ff1660ff168782815181106140b3577f4e487b7100000000000000000000000000000000000000000000000000000000600052603260045260246000fd5b60200260200101516000015160ff1614801561413e57506006600087815260200190815260200160002060010160000160019054906101000a900460ff1660ff1687828151811061412d577f4e487b7100000000000000000000000000000000000000000000000000000000600052603260045260246000fd5b60200260200101516020015160ff16145b80156141b957506006600087815260200190815260200160002060010160000160029054906101000a900460ff1660ff168782815181106141a8577f4e487b7100000000000000000000000000000000000000000000000000000000600052603260045260246000fd5b60200260200101516040015160ff16145b801561423457506006600087815260200190815260200160002060010160000160039054906101000a900460ff1660ff16878281518110614223577f4e487b7100000000000000000000000000000000000000000000000000000000600052603260045260246000fd5b60200260200101516060015160ff16145b1561424c57848061424490616bc3565b95505061455d565b6006600087815260200190815260200160002060010160000160009054906101000a900460ff1660ff168782815181106142af577f4e487b7100000000000000000000000000000000000000000000000000000000600052603260045260246000fd5b60200260200101516000015160ff1614801561433a57506006600087815260200190815260200160002060010160000160019054906101000a900460ff1660ff16878281518110614329577f4e487b7100000000000000000000000000000000000000000000000000000000600052603260045260246000fd5b60200260200101516020015160ff16145b80156143b557506006600087815260200190815260200160002060010160000160029054906101000a900460ff1660ff168782815181106143a4577f4e487b7100000000000000000000000000000000000000000000000000000000600052603260045260246000fd5b60200260200101516040015160ff16145b156143cd5783806143c590616bc3565b94505061455c565b6006600087815260200190815260200160002060010160000160009054906101000a900460ff1660ff16878281518110614430577f4e487b7100000000000000000000000000000000000000000000000000000000600052603260045260246000fd5b60200260200101516000015160ff161480156144bb57506006600087815260200190815260200160002060010160000160019054906101000a900460ff1660ff168782815181106144aa577f4e487b7100000000000000000000000000000000000000000000000000000000600052603260045260246000fd5b60200260200101516020015160ff16145b156144d35782806144cb90616bc3565b93505061455b565b6006600087815260200190815260200160002060010160000160009054906101000a900460ff1660ff16878281518110614536577f4e487b7100000000000000000000000000000000000000000000000000000000600052603260045260246000fd5b60200260200101516000015160ff16141561455a57818061455690616bc3565b9250505b5b5b5b808061456890616b7a565b915050614047565b5092959194509250565b60006006600083815260200190815260200160002060050160049054906101000a900460ff16156145c3576006600083815260200190815260200160002060020154905061468d565b600061465e6006600085815260200190815260200160002060050160039054906101000a900460ff166006600086815260200190815260200160002060050160029054906101000a900460ff166006600087815260200190815260200160002060050160019054906101000a900460ff166006600088815260200190815260200160002060050160009054906101000a900460ff16876148e6565b9050614689816006600086815260200190815260200160002060020154614e5690919063ffffffff16565b9150505b919050565b60006146a78284614dfd90919063ffffffff16565b905092915050565b6000547fffffffffffffffffffffffffffffffffffffffffffffffffffffffffffffffff6146dd9190616ab4565b81111561471f576040517f08c379a0000000000000000000000000000000000000000000000000000000008152600401614716906165ba565b60405180910390fd5b61473481600054614dfd90919063ffffffff16565b600081905550600160008373ffffffffffffffffffffffffffffffffffffffff1673ffffffffffffffffffffffffffffffffffffffff168152602001908152602001600020547fffffffffffffffffffffffffffffffffffffffffffffffffffffffffffffffff6147a59190616ab4565b8111156147e7576040517f08c379a00000000000000000000000000000000000000000000000000000000081526004016147de906164da565b60405180910390fd5b61483981600160008573ffffffffffffffffffffffffffffffffffffffff1673ffffffffffffffffffffffffffffffffffffffff16815260200190815260200160002054614dfd90919063ffffffff16565b600160008473ffffffffffffffffffffffffffffffffffffffff1673ffffffffffffffffffffffffffffffffffffffff168152602001908152602001600020819055508173ffffffffffffffffffffffffffffffffffffffff16600073ffffffffffffffffffffffffffffffffffffffff167fddf252ad1be2c89b69c2b068fc378daa952ba7f163c4a11628f55a4df523b3ef836040516148da91906166be565b60405180910390a35050565b600080606461493d6006600086815260200190815260200160002060040160000160009054906101000a900460ff1660ff166006600087815260200190815260200160002060020154614e7390919063ffffffff16565b614947919061687d565b90506000606461499f6006600087815260200190815260200160002060040160000160019054906101000a900460ff1660ff166006600088815260200190815260200160002060020154614e7390919063ffffffff16565b6149a9919061687d565b905060006064614a016006600088815260200190815260200160002060040160000160029054906101000a900460ff1660ff166006600089815260200190815260200160002060020154614e7390919063ffffffff16565b614a0b919061687d565b905060006064614a636006600089815260200190815260200160002060040160000160039054906101000a900460ff1660ff16600660008a815260200190815260200160002060020154614e7390919063ffffffff16565b614a6d919061687d565b90506000806006600089815260200190815260200160002060050160039054906101000a900460ff1660ff16118015614aa9575060008b60ff16115b15614b03576006600088815260200190815260200160002060050160039054906101000a900460ff1660ff16614aeb8c60ff1687614e7390919063ffffffff16565b614af5919061687d565b81614b0091906167f0565b90505b60006006600089815260200190815260200160002060050160029054906101000a900460ff1660ff16118015614b3c575060008a60ff16115b15614b96576006600088815260200190815260200160002060050160029054906101000a900460ff1660ff16614b7e8b60ff1686614e7390919063ffffffff16565b614b88919061687d565b81614b9391906167f0565b90505b60006006600089815260200190815260200160002060050160019054906101000a900460ff1660ff16118015614bcf575060008960ff16115b15614c29576006600088815260200190815260200160002060050160019054906101000a900460ff1660ff16614c118a60ff1685614e7390919063ffffffff16565b614c1b919061687d565b81614c2691906167f0565b90505b60006006600089815260200190815260200160002060050160009054906101000a900460ff1660ff16118015614c62575060008860ff16115b15614cbc576006600088815260200190815260200160002060050160009054906101000a900460ff1660ff16614ca48960ff1684614e7390919063ffffffff16565b614cae919061687d565b81614cb991906167f0565b90505b809550505050505095945050505050565b600073ffffffffffffffffffffffffffffffffffffffff168173ffffffffffffffffffffffffffffffffffffffff161415614d3d576040517f08c379a0000000000000000000000000000000000000000000000000000000008152600401614d34906163ba565b60405180910390fd5b8073ffffffffffffffffffffffffffffffffffffffff16600360009054906101000a900473ffffffffffffffffffffffffffffffffffffffff1673ffffffffffffffffffffffffffffffffffffffff167f8be0079c531659141344cd1fd0a4f28419497f9722a3daafe3b4186f6b6457e060405160405180910390a380600360006101000a81548173ffffffffffffffffffffffffffffffffffffffff021916908373ffffffffffffffffffffffffffffffffffffffff16021790555050565b6000828284614e0c91906167f0565b9150811015614e50576040517f08c379a0000000000000000000000000000000000000000000000000000000008152600401614e479061641a565b60405180910390fd5b92915050565b6000614e6b8284613cef90919063ffffffff16565b905092915050565b6000614e888284614e9090919063ffffffff16565b905092915050565b600080821480614eb8575082828385614ea99190616a1f565b925082614eb6919061687d565b145b614ef7576040517f08c379a0000000000000000000000000000000000000000000000000000000008152600401614eee906163da565b60405180910390fd5b92915050565b6040518060800160405280600060ff168152602001600060ff168152602001600060ff168152602001600060ff1681525090565b6040518060c0016040528060008152602001600073ffffffffffffffffffffffffffffffffffffffff1681526020016060815260200160608152602001600015158152602001600081525090565b60405180610140016040528060008152602001614f9a614efd565b81526020016000815260200160608152602001614fb5614fec565b8152602001600060ff168152602001600060ff168152602001600060ff168152602001600060ff1681526020016000151581525090565b6040518060800160405280600060ff168152602001600060ff168152602001600060ff168152602001600060ff1681525090565b600061503361502e84616725565b6166f4565b9050808382526020820190508285602086028201111561505257600080fd5b60005b85811015615082578161506888826150f5565b845260208401935060208301925050600181019050615055565b5050509392505050565b60008135905061509b81616d0e565b92915050565b600082601f8301126150b257600080fd5b81356150c2848260208601615020565b91505092915050565b6000815190506150da81616d25565b92915050565b6000813590506150ef81616d3c565b92915050565b60008135905061510481616d53565b92915050565b60008151905061511981616d53565b92915050565b60006020828403121561513157600080fd5b600061513f8482850161508c565b91505092915050565b6000806040838503121561515b57600080fd5b60006151698582860161508c565b925050602061517a8582860161508c565b9150509250929050565b60008060006060848603121561519957600080fd5b60006151a78682870161508c565b93505060206151b88682870161508c565b92505060406151c9868287016150e0565b9150509250925092565b600080604083850312156151e657600080fd5b60006151f48582860161508c565b925050602083013567ffffffffffffffff81111561521157600080fd5b61521d858286016150a1565b9150509250929050565b6000806040838503121561523a57600080fd5b60006152488582860161508c565b9250506020615259858286016150e0565b9150509250929050565b60006020828403121561527557600080fd5b600082013567ffffffffffffffff81111561528f57600080fd5b61529b848285016150a1565b91505092915050565b6000602082840312156152b657600080fd5b60006152c4848285016150cb565b91505092915050565b6000602082840312156152df57600080fd5b60006152ed848285016150e0565b91505092915050565b60006020828403121561530857600080fd5b6000615316848285016150f5565b91505092915050565b60006020828403121561533157600080fd5b600061533f8482850161510a565b91505092915050565b6000806000806080858703121561535e57600080fd5b600061536c878288016150f5565b945050602061537d878288016150f5565b935050604061538e878288016150f5565b925050606061539f878288016150f5565b91505092959194509250565b60006153b783836160da565b60808301905092915050565b60006153cf83836161f4565b60208301905092915050565b6153e481616ae8565b82525050565b6153f381616ae8565b82525050565b61540a61540582616ae8565b616bed565b82525050565b600061541b82616771565b61542581856167ac565b935061543083616751565b8060005b8381101561546157815161544888826153ab565b975061545383616792565b925050600181019050615434565b5085935050505092915050565b600061547982616771565b61548381856167bd565b935061548e83616751565b8060005b838110156154bf5781516154a688826153ab565b97506154b183616792565b925050600181019050615492565b5085935050505092915050565b60006154d78261677c565b6154e181856167ce565b93506154ec83616761565b8060005b8381101561551d57815161550488826153c3565b975061550f8361679f565b9250506001810190506154f0565b5085935050505092915050565b61553381616afa565b82525050565b61554281616afa565b82525050565b61555961555482616b06565b616bff565b82525050565b600061556a82616787565b61557481856167df565b9350615584818560208601616b47565b61558d81616ce3565b840191505092915050565b60006155a56015836167df565b91507f64732d6d6174682d7375622d756e646572666c6f7700000000000000000000006000830152602082019050919050565b60006155e56028836167df565b91507f57696e6e696e67205469636b657420506f736974696f6e73206d75737420657160008301527f75616c20746f20340000000000000000000000000000000000000000000000006020830152604082019050919050565b600061564b6060836167df565b91507f537761706966794c6f747465727953797374656d3a2052657761726420616d6f60008301527f756e7420636f756c64206e6f74206265206465706f736974656420746f20746860208301527f65204c6f747465727920636f6e747261637420666f722074686520726f756e646040830152606082019050919050565b60006156d76031836167df565b91507f537761706966794c6f74746572795469636b657445524332303a20496e76616c60008301527f69642053656e64657220416464726573730000000000000000000000000000006020830152604082019050919050565b600061573d6026836167df565b91507f4f776e61626c653a206e6577206f776e657220697320746865207a65726f206160008301527f64647265737300000000000000000000000000000000000000000000000000006020830152604082019050919050565b60006157a36014836167df565b91507f64732d6d6174682d6d756c2d6f766572666c6f770000000000000000000000006000830152602082019050919050565b60006157e3601d836167df565b91507f5469636b657420506f736974696f6e73206469766964656420627920340000006000830152602082019050919050565b60006158236014836167df565b91507f64732d6d6174682d6164642d6f766572666c6f770000000000000000000000006000830152602082019050919050565b60006158636021836167df565b91507f537761706966794c6f747465727953797374656d3a205a45524f5f414d4f554e60008301527f54000000000000000000000000000000000000000000000000000000000000006020830152604082019050919050565b60006158c96044836167df565b91507f537761706966794c6f74746572795469636b657445524332303a206275726e2060008301527f616d6f756e7420657863656564732062616c616e6365206f662074686520686f60208301527f6c646572000000000000000000000000000000000000000000000000000000006040830152606082019050919050565b60006159556035836167df565b91507f537761706966794c6f74746572795469636b657445524332303a20496e73756660008301527f66696369656e7420746f74616c20737570706c792e00000000000000000000006020830152604082019050919050565b60006159bb600d836167df565b91507f4164647265737320456d707479000000000000000000000000000000000000006000830152602082019050919050565b60006159fb603c836167df565b91507f537761706966794c6f74746572795469636b657445524332303a207472616e7360008301527f66657220616d6f756e74206578636565647320616c6c6f77616e6365000000006020830152604082019050919050565b6000615a616040836167df565b91507f537761706966794c6f74746572795469636b657445524332303a2042616c616e60008301527f6365206f66206d696e746572206578636565646564206d6178206c696d69742e6020830152604082019050919050565b6000615ac76022836167df565b91507f537761706966794c6f747465727953797374656d3a205a45524f5f414444524560008301527f53530000000000000000000000000000000000000000000000000000000000006020830152604082019050919050565b6000615b2d6020836167df565b91507f4f776e61626c653a2063616c6c6572206973206e6f7420746865206f776e65726000830152602082019050919050565b6000615b6d6054836167df565b91507f537761706966794c6f747465727953797374656d3a2055736572207468656e2060008301527f68617320746f20706179206120636f737420696e20537761706966792c20746f60208301527f20707572636861736520746865207469636b65740000000000000000000000006040830152606082019050919050565b6000615bf96034836167df565b91507f537761706966794c6f74746572795469636b657445524332303a20496e76616c60008301527f696420526563697069656e7420416464726573730000000000000000000000006020830152604082019050919050565b6000615c5f601a836167df565b91507f526174696f73206d7573742061646420757020746f20313030250000000000006000830152602082019050919050565b6000615c9f6029836167df565b91507f537761706966794c6f747465727953797374656d3a2052657761726473205a4560008301527f524f5f414d4f554e5400000000000000000000000000000000000000000000006020830152604082019050919050565b6000615d05603b836167df565b91507f537761706966794c6f74746572795469636b657445524332303a20546f74616c60008301527f20737570706c79206578636565646564206d6178206c696d69742e00000000006020830152604082019050919050565b6000615d6b6044836167df565b91507f537761706966794c6f74746572795469636b657445524332303a205472616e7360008301527f66657220616d6f756e7420657863656564732062616c616e6365206f6620736560208301527f6e646572000000000000000000000000000000000000000000000000000000006040830152606082019050919050565b6000615df76035836167df565b91507f537761706966794c6f74746572795469636b657445524332303a206275726e2060008301527f66726f6d20746865207a65726f206164647265737300000000000000000000006020830152604082019050919050565b6000615e5d6028836167df565b91507f537761706966794c6f747465727953797374656d3a205469636b6574205a455260008301527f4f5f414d4f554e540000000000000000000000000000000000000000000000006020830152604082019050919050565b6000615ec36037836167df565b91507f537761706966794c6f747465727953797374656d3a20416d6f756e742069732060008301527f726571756972656420746f206d6f7265207468616e20300000000000000000006020830152604082019050919050565b6000615f296041836167df565b91507f537761706966794c6f74746572795469636b657445524332303a20617070726f60008301527f766520746f2074686520696e76616c6964206f72207a65726f2061646472657360208301527f73000000000000000000000000000000000000000000000000000000000000006040830152606082019050919050565b608082016000820151615fbe60008501826161f4565b506020820151615fd160208501826161f4565b506040820151615fe460408501826161f4565b506060820151615ff760608501826161f4565b50505050565b60006102008301600083015161601660008601826161bf565b50602083015161602960208601826160da565b50604083015161603c60a08601826161bf565b50606083015184820360c08601526160548282615410565b915050608083015161606960e0860182615fa8565b5060a083015161607d6101608601826161f4565b5060c08301516160916101808601826161f4565b5060e08301516160a56101a08601826161f4565b506101008301516160ba6101c08601826161f4565b506101208301516160cf6101e086018261552a565b508091505092915050565b6080820160008201516160f060008501826161f4565b50602082015161610360208501826161f4565b50604082015161611660408501826161f4565b50606082015161612960608501826161f4565b50505050565b600060c08301600083015161614760008601826161bf565b50602083015161615a60208601826153db565b50604083015184820360408601526161728282615410565b9150506060830151848203606086015261618c82826154cc565b91505060808301516161a1608086018261552a565b5060a08301516161b460a08601826161bf565b508091505092915050565b6161c881616b30565b82525050565b6161d781616b30565b82525050565b6161ee6161e982616b30565b616c1b565b82525050565b6161fd81616b3a565b82525050565b61620c81616b3a565b82525050565b600061621e8287615548565b60208201915061622e82866153f9565b60148201915061623e82856161dd565b60208201915061624e82846161dd565b60208201915081905095945050505050565b600060208201905061627560008301846153ea565b92915050565b600060608201905061629060008301866153ea565b61629d60208301856153ea565b6162aa60408301846161ce565b949350505050565b60006040820190506162c760008301856153ea565b6162d460208301846161ce565b9392505050565b600060208201905081810360008301526162f5818461546e565b905092915050565b60006020820190506163126000830184615539565b92915050565b60006020820190508181036000830152616332818461555f565b905092915050565b6000602082019050818103600083015261635381615598565b9050919050565b60006020820190508181036000830152616373816155d8565b9050919050565b600060208201905081810360008301526163938161563e565b9050919050565b600060208201905081810360008301526163b3816156ca565b9050919050565b600060208201905081810360008301526163d381615730565b9050919050565b600060208201905081810360008301526163f381615796565b9050919050565b60006020820190508181036000830152616413816157d6565b9050919050565b6000602082019050818103600083015261643381615816565b9050919050565b6000602082019050818103600083015261645381615856565b9050919050565b60006020820190508181036000830152616473816158bc565b9050919050565b6000602082019050818103600083015261649381615948565b9050919050565b600060208201905081810360008301526164b3816159ae565b9050919050565b600060208201905081810360008301526164d3816159ee565b9050919050565b600060208201905081810360008301526164f381615a54565b9050919050565b6000602082019050818103600083015261651381615aba565b9050919050565b6000602082019050818103600083015261653381615b20565b9050919050565b6000602082019050818103600083015261655381615b60565b9050919050565b6000602082019050818103600083015261657381615bec565b9050919050565b6000602082019050818103600083015261659381615c52565b9050919050565b600060208201905081810360008301526165b381615c92565b9050919050565b600060208201905081810360008301526165d381615cf8565b9050919050565b600060208201905081810360008301526165f381615d5e565b9050919050565b6000602082019050818103600083015261661381615dea565b9050919050565b6000602082019050818103600083015261663381615e50565b9050919050565b6000602082019050818103600083015261665381615eb6565b9050919050565b6000602082019050818103600083015261667381615f1c565b9050919050565b600060208201905081810360008301526166948184615ffd565b905092915050565b600060208201905081810360008301526166b6818461612f565b905092915050565b60006020820190506166d360008301846161ce565b92915050565b60006020820190506166ee6000830184616203565b92915050565b6000604051905081810181811067ffffffffffffffff8211171561671b5761671a616cb4565b5b8060405250919050565b600067ffffffffffffffff8211156167405761673f616cb4565b5b602082029050602081019050919050565b6000819050602082019050919050565b6000819050602082019050919050565b600081519050919050565b600081519050919050565b600081519050919050565b6000602082019050919050565b6000602082019050919050565b600082825260208201905092915050565b600082825260208201905092915050565b600082825260208201905092915050565b600082825260208201905092915050565b60006167fb82616b30565b915061680683616b30565b9250827fffffffffffffffffffffffffffffffffffffffffffffffffffffffffffffffff0382111561683b5761683a616c56565b5b828201905092915050565b600061685182616b3a565b915061685c83616b3a565b92508260ff0382111561687257616871616c56565b5b828201905092915050565b600061688882616b30565b915061689383616b30565b9250826168a3576168a2616c85565b5b828204905092915050565b6000808291508390505b60018511156168f8578086048111156168d4576168d3616c56565b5b60018516156168e35780820291505b80810290506168f185616d01565b94506168b8565b94509492505050565b600061690c82616b30565b915061691783616b3a565b92506169447fffffffffffffffffffffffffffffffffffffffffffffffffffffffffffffffff848461694c565b905092915050565b60008261695c5760019050616a18565b8161696a5760009050616a18565b8160018114616980576002811461698a576169b9565b6001915050616a18565b60ff84111561699c5761699b616c56565b5b8360020a9150848211156169b3576169b2616c56565b5b50616a18565b5060208310610133831016604e8410600b84101617156169ee5782820a9050838111156169e9576169e8616c56565b5b616a18565b6169fb84848460016168ae565b92509050818404811115616a1257616a11616c56565b5b81810290505b9392505050565b6000616a2a82616b30565b9150616a3583616b30565b9250817fffffffffffffffffffffffffffffffffffffffffffffffffffffffffffffffff0483118215151615616a6e57616a6d616c56565b5b828202905092915050565b6000616a8482616b3a565b9150616a8f83616b3a565b92508160ff0483118215151615616aa957616aa8616c56565b5b828202905092915050565b6000616abf82616b30565b9150616aca83616b30565b925082821015616add57616adc616c56565b5b828203905092915050565b6000616af382616b10565b9050919050565b60008115159050919050565b6000819050919050565b600073ffffffffffffffffffffffffffffffffffffffff82169050919050565b6000819050919050565b600060ff82169050919050565b60005b83811015616b65578082015181840152602081019050616b4a565b83811115616b74576000848401525b50505050565b6000616b8582616b30565b91507fffffffffffffffffffffffffffffffffffffffffffffffffffffffffffffffff821415616bb857616bb7616c56565b5b600182019050919050565b6000616bce82616b3a565b915060ff821415616be257616be1616c56565b5b600182019050919050565b6000616bf882616c09565b9050919050565b6000819050919050565b6000616c1482616cf4565b9050919050565b6000819050919050565b6000616c3082616b30565b9150616c3b83616b30565b925082616c4b57616c4a616c85565b5b828206905092915050565b7f4e487b7100000000000000000000000000000000000000000000000000000000600052601160045260246000fd5b7f4e487b7100000000000000000000000000000000000000000000000000000000600052601260045260246000fd5b7f4e487b7100000000000000000000000000000000000000000000000000000000600052604160045260246000fd5b6000601f19601f8301169050919050565b60008160601b9050919050565b60008160011c9050919050565b616d1781616ae8565b8114616d2257600080fd5b50565b616d2e81616afa565b8114616d3957600080fd5b50565b616d4581616b30565b8114616d5057600080fd5b50565b616d5c81616b3a565b8114616d6757600080fd5b5056fea26469706673582212202b36c1152bf2faf059da3fdce441925908ee9de79af55e4e3fb5a95ea74b8a7c64736f6c63430008000033",
  "immutableReferences": {},
  "source": "// SPDX-License-Identifier: GPL-3.0-or-later\r\npragma solidity >=0.8.0;\r\n\r\nimport '../SwapifyLotterySystem.sol';\r\n\r\ncontract LotteryContractMock is SwapifyLotterySystem {\r\n\r\n    constructor(address _rewardsTokenAddress) SwapifyLotterySystem(_rewardsTokenAddress) {}\r\n\r\n    function mockDrawWinningNumber(uint8[] memory winningTickets) external {\r\n        require(winningTickets.length == 4, 'Winning Ticket Positions must equal to 4');\r\n        roundHistory[currentRound].winningNumbers.position1 = winningTickets[0];\r\n        roundHistory[currentRound].winningNumbers.position2 = winningTickets[1];\r\n        roundHistory[currentRound].winningNumbers.position3 = winningTickets[2];\r\n        roundHistory[currentRound].winningNumbers.position4 = winningTickets[3];\r\n\r\n        (roundHistory[currentRound].matchAll,\r\n            roundHistory[currentRound].match3,\r\n            roundHistory[currentRound].match2,\r\n            roundHistory[currentRound].match1) = findWinningMatches(roundHistory[currentRound].tickets, currentRound);\r\n            \r\n        if(roundHistory[currentRound].match1 == 0 && roundHistory[currentRound].match2 == 0 && \r\n                    roundHistory[currentRound].match3 == 0 && roundHistory[currentRound].matchAll == 0) {\r\n            roundHistory[currentRound].noMatch = true;\r\n        }\r\n        currentRound++;\r\n        roundHistory[currentRound].round = currentRound;\r\n        roundHistory[currentRound].reward = calculateCarryForwardRewards(currentRound - 1);\r\n        roundHistory[currentRound].rewardRatio.matchAll = roundHistory[currentRound - 1].rewardRatio.matchAll;\r\n        roundHistory[currentRound].rewardRatio.match3 = roundHistory[currentRound - 1].rewardRatio.match3;\r\n        roundHistory[currentRound].rewardRatio.match2 = roundHistory[currentRound - 1].rewardRatio.match2;\r\n        roundHistory[currentRound].rewardRatio.match1 = roundHistory[currentRound - 1].rewardRatio.match1;\r\n    }\r\n\r\n    function mockSubmitTicket(address user, uint8[] memory ticketPositions) external {\r\n        require(ticketPositions.length % 4 == 0, 'Ticket Positions divided by 4');\r\n        userRoundData[currentRound][user].round = currentRound;\r\n        userRoundData[currentRound][user].user = user;\r\n        uint count = ticketPositions.length / 4;\r\n        for(uint i=0; i < ticketPositions.length; ) {\r\n            Ticket memory ticket;\r\n            ticket.position1 = ticketPositions[i++];\r\n            ticket.position2 = ticketPositions[i++];\r\n            ticket.position3 = ticketPositions[i++];\r\n            ticket.position4 = ticketPositions[i++];\r\n\r\n            userRoundData[currentRound][user].tickets.push(ticket);\r\n            roundHistory[currentRound].tickets.push(ticket);\r\n        }\r\n        _burn(user, count);\r\n    }\r\n}",
  "sourcePath": "C:/GitHub/Swapify-Lottery/contracts/test/LotteryContractMock.sol",
  "compiler": {
    "name": "solc",
    "version": "0.8.0+commit.c7dfd78e.Emscripten.clang"
  },
  "schemaVersion": "3.4.1",
  "updatedAt": "2022-03-03T20:14:58.883Z",
  "devdoc": {
    "kind": "dev",
    "methods": {
      "addReward(uint256)": {
        "details": "Admin can only use this function.  Adds SWAPIFY rewards to the current round."
      },
      "buyTickets(address,uint256)": {
        "details": "This function mints SwapifyTICKET and sends it to the specified address. User then has to pay a cost in Swapify, to purchase the ticket.   The Reward for the current round will increment by the amount of Swapifys that were sent to the contract. rewardsAmount is being ERC20 token that accepts 18 decimal points so value need to be sent as value * (10 ** 18) Swapify Ticket does not support any decimals so based on ratio set it accepts integral value only."
      },
      "claimRewards(address,uint256)": {
        "details": "claims rewards during the specified round if there are any to be claimed."
      },
      "currentReward()": {
        "details": "show the current round reward.  Return uint. "
      },
      "drawWinningNumber()": {
        "details": "Admin draws the 4 winning numbers.  (Random numbers between 0-9). Stores data on chain and starts a new round. Updates the mapping for rounds. Only Admin can execute this function."
      },
      "getRoundHistory(uint256)": {
        "details": "This function shows round data by round number"
      },
      "getUserRoundData(address,uint256)": {
        "details": "This function calculates rewards & show userdata"
      },
      "isOwner()": {
        "details": "Returns true if the caller is the current owner."
      },
      "mintTickets(address,uint256)": {
        "details": "mints SwapifyTICKET and sends it to the specified address.   This will be used in the DEX contract whenever trades get fulfilled."
      },
      "owner()": {
        "details": "Returns the address of the current owner."
      },
      "renounceOwnership()": {
        "details": "Leaves the contract without owner. It will not be possible to call `onlyOwner` functions anymore. Can only be called by the current owner. > Note: Renouncing ownership will leave the contract without an owner, thereby removing any functionality that is only available to the owner."
      },
      "setNonce(uint256)": {
        "details": "set nonce for randomize ticket generation."
      },
      "setRewardRatio(uint8)": {
        "details": "Admin can change the reward ratio. This ratio represents how many SWAPAFY required to buy 1 SWAPATICKET"
      },
      "submitTicket(address,uint256)": {
        "details": "user will submit the amount of tickets (SWAPATICKETS) and they must have sufficient amount of tickets in their wallet.  This will then create an entry with 4 random numbers between 0 - 9.  Each ticket user submits grants them one entry with 4 different and random numbers between 0 - 9. User can only submit the amount of tickets that is equivalent to the amount of SWAPATICKETS they have in their wallet.   When user submits ticket(s), SWAPATICKETS get burnt in the process."
      },
      "ticketsInCurrentRound()": {
        "details": "shows array of tickets that are in current round."
      },
      "transferOwnership(address)": {
        "details": "Transfers ownership of the contract to a new account (`newOwner`). Can only be called by the current owner."
      },
      "updateMatchPoolAllocation(uint8,uint8,uint8,uint8)": {
        "details": "updates the reward allocation ratio for each pool.  Ratios must add up to 1.   Example:  updateMatchPoolAllocation(0.5, 0.3, 0.15, 0.05)"
      }
    },
    "version": 1
  },
  "userdoc": {
    "kind": "user",
    "methods": {},
    "version": 1
  }
}