{
  "contractName": "Permissible",
  "abi": [
    {
      "inputs": [],
      "stateMutability": "nonpayable",
      "type": "constructor"
    },
    {
      "anonymous": false,
      "inputs": [
        {
          "indexed": true,
          "internalType": "address",
          "name": "previousOwner",
          "type": "address"
        },
        {
          "indexed": true,
          "internalType": "address",
          "name": "newOwner",
          "type": "address"
        }
      ],
      "name": "OwnershipTransferred",
      "type": "event"
    },
    {
      "inputs": [],
      "name": "isOwner",
      "outputs": [
        {
          "internalType": "bool",
          "name": "",
          "type": "bool"
        }
      ],
      "stateMutability": "view",
      "type": "function"
    },
    {
      "inputs": [],
      "name": "owner",
      "outputs": [
        {
          "internalType": "address",
          "name": "",
          "type": "address"
        }
      ],
      "stateMutability": "view",
      "type": "function"
    },
    {
      "inputs": [],
      "name": "renounceOwnership",
      "outputs": [],
      "stateMutability": "nonpayable",
      "type": "function"
    },
    {
      "inputs": [
        {
          "internalType": "address",
          "name": "newOwner",
          "type": "address"
        }
      ],
      "name": "transferOwnership",
      "outputs": [],
      "stateMutability": "nonpayable",
      "type": "function"
    },
    {
      "inputs": [],
      "name": "isPermissible",
      "outputs": [
        {
          "internalType": "bool",
          "name": "",
          "type": "bool"
        }
      ],
      "stateMutability": "view",
      "type": "function"
    },
    {
      "inputs": [
        {
          "internalType": "address",
          "name": "_account",
          "type": "address"
        }
      ],
      "name": "addPermittedAccount",
      "outputs": [],
      "stateMutability": "nonpayable",
      "type": "function"
    },
    {
      "inputs": [
        {
          "internalType": "address",
          "name": "_account",
          "type": "address"
        }
      ],
      "name": "removePermittedAccount",
      "outputs": [],
      "stateMutability": "nonpayable",
      "type": "function"
    }
  ],
  "bytecode": "0x608060405234801561001057600080fd5b50326000806101000a81548173ffffffffffffffffffffffffffffffffffffffff021916908373ffffffffffffffffffffffffffffffffffffffff16021790555060008054906101000a900473ffffffffffffffffffffffffffffffffffffffff1673ffffffffffffffffffffffffffffffffffffffff16600073ffffffffffffffffffffffffffffffffffffffff167f8be0079c531659141344cd1fd0a4f28419497f9722a3daafe3b4186f6b6457e060405160405180910390a360018060006100df61013560201b60201c565b73ffffffffffffffffffffffffffffffffffffffff1673ffffffffffffffffffffffffffffffffffffffff16815260200190815260200160002060006101000a81548160ff02191690831515021790555061015e565b60008060009054906101000a900473ffffffffffffffffffffffffffffffffffffffff16905090565b6107ea8061016d6000396000f3fe608060405234801561001057600080fd5b506004361061007d5760003560e01c80638f32d59b1161005b5780638f32d59b146100c6578063db7734fb146100e4578063f2fde38b14610102578063f84817aa1461011e5761007d565b806361ebb58b14610082578063715018a61461009e5780638da5cb5b146100a8575b600080fd5b61009c600480360381019061009791906105eb565b61013a565b005b6100a66101dc565b005b6100b06102e1565b6040516100bd91906106d8565b60405180910390f35b6100ce61030a565b6040516100db91906106f3565b60405180910390f35b6100ec610361565b6040516100f991906106f3565b60405180910390f35b61011c600480360381019061011791906105eb565b6103b5565b005b610138600480360381019061013391906105eb565b610408565b005b61014261030a565b610181576040517f08c379a00000000000000000000000000000000000000000000000000000000081526004016101789061072e565b60405180910390fd5b6000600160008373ffffffffffffffffffffffffffffffffffffffff1673ffffffffffffffffffffffffffffffffffffffff16815260200190815260200160002060006101000a81548160ff02191690831515021790555050565b6101e461030a565b610223576040517f08c379a000000000000000000000000000000000000000000000000000000000815260040161021a9061072e565b60405180910390fd5b600073ffffffffffffffffffffffffffffffffffffffff1660008054906101000a900473ffffffffffffffffffffffffffffffffffffffff1673ffffffffffffffffffffffffffffffffffffffff167f8be0079c531659141344cd1fd0a4f28419497f9722a3daafe3b4186f6b6457e060405160405180910390a360008060006101000a81548173ffffffffffffffffffffffffffffffffffffffff021916908373ffffffffffffffffffffffffffffffffffffffff160217905550565b60008060009054906101000a900473ffffffffffffffffffffffffffffffffffffffff16905090565b60008060009054906101000a900473ffffffffffffffffffffffffffffffffffffffff1673ffffffffffffffffffffffffffffffffffffffff163373ffffffffffffffffffffffffffffffffffffffff1614905090565b6000600160003373ffffffffffffffffffffffffffffffffffffffff1673ffffffffffffffffffffffffffffffffffffffff16815260200190815260200160002060009054906101000a900460ff16905090565b6103bd61030a565b6103fc576040517f08c379a00000000000000000000000000000000000000000000000000000000081526004016103f39061072e565b60405180910390fd5b610405816104a9565b50565b61041061030a565b61044f576040517f08c379a00000000000000000000000000000000000000000000000000000000081526004016104469061072e565b60405180910390fd5b60018060008373ffffffffffffffffffffffffffffffffffffffff1673ffffffffffffffffffffffffffffffffffffffff16815260200190815260200160002060006101000a81548160ff02191690831515021790555050565b600073ffffffffffffffffffffffffffffffffffffffff168173ffffffffffffffffffffffffffffffffffffffff161415610519576040517f08c379a00000000000000000000000000000000000000000000000000000000081526004016105109061070e565b60405180910390fd5b8073ffffffffffffffffffffffffffffffffffffffff1660008054906101000a900473ffffffffffffffffffffffffffffffffffffffff1673ffffffffffffffffffffffffffffffffffffffff167f8be0079c531659141344cd1fd0a4f28419497f9722a3daafe3b4186f6b6457e060405160405180910390a3806000806101000a81548173ffffffffffffffffffffffffffffffffffffffff021916908373ffffffffffffffffffffffffffffffffffffffff16021790555050565b6000813590506105e58161079d565b92915050565b6000602082840312156105fd57600080fd5b600061060b848285016105d6565b91505092915050565b61061d8161075f565b82525050565b61062c81610771565b82525050565b600061063f60268361074e565b91507f4f776e61626c653a206e6577206f776e657220697320746865207a65726f206160008301527f64647265737300000000000000000000000000000000000000000000000000006020830152604082019050919050565b60006106a560208361074e565b91507f4f776e61626c653a2063616c6c6572206973206e6f7420746865206f776e65726000830152602082019050919050565b60006020820190506106ed6000830184610614565b92915050565b60006020820190506107086000830184610623565b92915050565b6000602082019050818103600083015261072781610632565b9050919050565b6000602082019050818103600083015261074781610698565b9050919050565b600082825260208201905092915050565b600061076a8261077d565b9050919050565b60008115159050919050565b600073ffffffffffffffffffffffffffffffffffffffff82169050919050565b6107a68161075f565b81146107b157600080fd5b5056fea2646970667358221220a8a8c3179651c3cfb44ec7f0f0f1274f19ceec586f2668e945bf6dda547f61a464736f6c63430008000033",
  "immutableReferences": {},
  "source": "pragma solidity >=0.5.16;\r\n\r\nimport './Ownable.sol';\r\n\r\ncontract Permissible is Ownable {\r\n    mapping(address => bool) private allowed_accounts;\r\n\r\n    constructor() {\r\n        allowed_accounts[owner()] = true;\r\n    }\r\n\r\n    /**\r\n     * @dev Throws if called by any account other than any of the Permissibles.\r\n     */\r\n    modifier onlyPermissible() {\r\n        require(isPermissible(), \"Permissible: caller is not in the list of Permissibles\");\r\n        _;\r\n    }\r\n    /**\r\n     * @dev Returns true if the caller is among the list of permitted accounts.\r\n     * Only allowed for external accounts.\r\n     */\r\n    function isPermissible() public view returns (bool) {\r\n        return allowed_accounts[msg.sender];\r\n    }\r\n    /**\r\n     * @dev Adds the address to the list of permitted accounts.\r\n     * Only external accounts should be added.\r\n     * Adding a contract address will not be permitted to do transaction.\r\n     */\r\n    function addPermittedAccount(address _account) public onlyOwner {\r\n        allowed_accounts[_account] = true;\r\n    }\r\n    /**\r\n     * @dev Removes or deactivate the address from the list of permitted accounts.\r\n     */\r\n    function removePermittedAccount(address _account) public onlyOwner {\r\n        allowed_accounts[_account] = false;\r\n    }\r\n}",
  "sourcePath": "C:\\GitHub\\Swapify-Lottery\\contracts\\Permissible.sol",
  "compiler": {
    "name": "solc",
    "version": "0.8.0+commit.c7dfd78e.Emscripten.clang"
  },
  "schemaVersion": "3.4.1",
  "updatedAt": "2022-03-21T21:36:30.531Z",
  "devdoc": {
    "kind": "dev",
    "methods": {
      "addPermittedAccount(address)": {
        "details": "Adds the address to the list of permitted accounts. Only external accounts should be added. Adding a contract address will not be permitted to do transaction."
      },
      "isOwner()": {
        "details": "Returns true if the caller is the current owner."
      },
      "isPermissible()": {
        "details": "Returns true if the caller is among the list of permitted accounts. Only allowed for external accounts."
      },
      "owner()": {
        "details": "Returns the address of the current owner."
      },
      "removePermittedAccount(address)": {
        "details": "Removes or deactivate the address from the list of permitted accounts."
      },
      "renounceOwnership()": {
        "details": "Leaves the contract without owner. It will not be possible to call `onlyOwner` functions anymore. Can only be called by the current owner. > Note: Renouncing ownership will leave the contract without an owner, thereby removing any functionality that is only available to the owner."
      },
      "transferOwnership(address)": {
        "details": "Transfers ownership of the contract to a new account (`newOwner`). Can only be called by the current owner."
      }
    },
    "version": 1
  },
  "userdoc": {
    "kind": "user",
    "methods": {},
    "version": 1
  }
}