{
  "contractName": "SwapifyLotterySystem",
  "abi": [
    {
      "inputs": [
        {
          "internalType": "address",
          "name": "_rewardsTokenAddress",
          "type": "address"
        }
      ],
      "stateMutability": "nonpayable",
      "type": "constructor"
    },
    {
      "anonymous": false,
      "inputs": [
        {
          "indexed": true,
          "internalType": "address",
          "name": "owner",
          "type": "address"
        },
        {
          "indexed": true,
          "internalType": "address",
          "name": "spender",
          "type": "address"
        },
        {
          "indexed": false,
          "internalType": "uint256",
          "name": "value",
          "type": "uint256"
        }
      ],
      "name": "Approval",
      "type": "event"
    },
    {
      "anonymous": false,
      "inputs": [
        {
          "indexed": true,
          "internalType": "address",
          "name": "previousOwner",
          "type": "address"
        },
        {
          "indexed": true,
          "internalType": "address",
          "name": "newOwner",
          "type": "address"
        }
      ],
      "name": "OwnershipTransferred",
      "type": "event"
    },
    {
      "anonymous": false,
      "inputs": [
        {
          "indexed": true,
          "internalType": "address",
          "name": "from",
          "type": "address"
        },
        {
          "indexed": true,
          "internalType": "address",
          "name": "to",
          "type": "address"
        },
        {
          "indexed": false,
          "internalType": "uint256",
          "name": "value",
          "type": "uint256"
        }
      ],
      "name": "Transfer",
      "type": "event"
    },
    {
      "inputs": [
        {
          "internalType": "address",
          "name": "",
          "type": "address"
        },
        {
          "internalType": "address",
          "name": "",
          "type": "address"
        }
      ],
      "name": "allowance",
      "outputs": [
        {
          "internalType": "uint256",
          "name": "",
          "type": "uint256"
        }
      ],
      "stateMutability": "view",
      "type": "function",
      "constant": true
    },
    {
      "inputs": [
        {
          "internalType": "address",
          "name": "spender",
          "type": "address"
        },
        {
          "internalType": "uint256",
          "name": "value",
          "type": "uint256"
        }
      ],
      "name": "approve",
      "outputs": [
        {
          "internalType": "bool",
          "name": "",
          "type": "bool"
        }
      ],
      "stateMutability": "nonpayable",
      "type": "function"
    },
    {
      "inputs": [
        {
          "internalType": "address",
          "name": "",
          "type": "address"
        }
      ],
      "name": "balanceOf",
      "outputs": [
        {
          "internalType": "uint256",
          "name": "",
          "type": "uint256"
        }
      ],
      "stateMutability": "view",
      "type": "function",
      "constant": true
    },
    {
      "inputs": [],
      "name": "currentRound",
      "outputs": [
        {
          "internalType": "uint256",
          "name": "",
          "type": "uint256"
        }
      ],
      "stateMutability": "view",
      "type": "function",
      "constant": true
    },
    {
      "inputs": [],
      "name": "decimals",
      "outputs": [
        {
          "internalType": "uint8",
          "name": "",
          "type": "uint8"
        }
      ],
      "stateMutability": "view",
      "type": "function",
      "constant": true
    },
    {
      "inputs": [],
      "name": "isOwner",
      "outputs": [
        {
          "internalType": "bool",
          "name": "",
          "type": "bool"
        }
      ],
      "stateMutability": "view",
      "type": "function",
      "constant": true
    },
    {
      "inputs": [],
      "name": "name",
      "outputs": [
        {
          "internalType": "string",
          "name": "",
          "type": "string"
        }
      ],
      "stateMutability": "view",
      "type": "function",
      "constant": true
    },
    {
      "inputs": [],
      "name": "owner",
      "outputs": [
        {
          "internalType": "address",
          "name": "",
          "type": "address"
        }
      ],
      "stateMutability": "view",
      "type": "function",
      "constant": true
    },
    {
      "inputs": [],
      "name": "renounceOwnership",
      "outputs": [],
      "stateMutability": "nonpayable",
      "type": "function"
    },
    {
      "inputs": [],
      "name": "rewardRatio",
      "outputs": [
        {
          "internalType": "uint8",
          "name": "",
          "type": "uint8"
        }
      ],
      "stateMutability": "view",
      "type": "function",
      "constant": true
    },
    {
      "inputs": [],
      "name": "rewardsToken",
      "outputs": [
        {
          "internalType": "address",
          "name": "",
          "type": "address"
        }
      ],
      "stateMutability": "view",
      "type": "function",
      "constant": true
    },
    {
      "inputs": [],
      "name": "symbol",
      "outputs": [
        {
          "internalType": "string",
          "name": "",
          "type": "string"
        }
      ],
      "stateMutability": "view",
      "type": "function",
      "constant": true
    },
    {
      "inputs": [],
      "name": "totalSupply",
      "outputs": [
        {
          "internalType": "uint256",
          "name": "",
          "type": "uint256"
        }
      ],
      "stateMutability": "view",
      "type": "function",
      "constant": true
    },
    {
      "inputs": [
        {
          "internalType": "address",
          "name": "to",
          "type": "address"
        },
        {
          "internalType": "uint256",
          "name": "value",
          "type": "uint256"
        }
      ],
      "name": "transfer",
      "outputs": [
        {
          "internalType": "bool",
          "name": "",
          "type": "bool"
        }
      ],
      "stateMutability": "nonpayable",
      "type": "function"
    },
    {
      "inputs": [
        {
          "internalType": "address",
          "name": "from",
          "type": "address"
        },
        {
          "internalType": "address",
          "name": "to",
          "type": "address"
        },
        {
          "internalType": "uint256",
          "name": "value",
          "type": "uint256"
        }
      ],
      "name": "transferFrom",
      "outputs": [
        {
          "internalType": "bool",
          "name": "",
          "type": "bool"
        }
      ],
      "stateMutability": "nonpayable",
      "type": "function"
    },
    {
      "inputs": [
        {
          "internalType": "address",
          "name": "newOwner",
          "type": "address"
        }
      ],
      "name": "transferOwnership",
      "outputs": [],
      "stateMutability": "nonpayable",
      "type": "function"
    },
    {
      "inputs": [],
      "name": "currentReward",
      "outputs": [
        {
          "internalType": "uint256",
          "name": "",
          "type": "uint256"
        }
      ],
      "stateMutability": "view",
      "type": "function",
      "constant": true
    },
    {
      "inputs": [],
      "name": "ticketsInCurrentRound",
      "outputs": [
        {
          "components": [
            {
              "internalType": "uint8",
              "name": "position1",
              "type": "uint8"
            },
            {
              "internalType": "uint8",
              "name": "position2",
              "type": "uint8"
            },
            {
              "internalType": "uint8",
              "name": "position3",
              "type": "uint8"
            },
            {
              "internalType": "uint8",
              "name": "position4",
              "type": "uint8"
            }
          ],
          "internalType": "struct SwapifyLotterySystem.Ticket[]",
          "name": "",
          "type": "tuple[]"
        }
      ],
      "stateMutability": "view",
      "type": "function",
      "constant": true
    },
    {
      "inputs": [
        {
          "internalType": "uint256",
          "name": "round",
          "type": "uint256"
        }
      ],
      "name": "getRoundHistory",
      "outputs": [
        {
          "components": [
            {
              "internalType": "uint256",
              "name": "round",
              "type": "uint256"
            },
            {
              "components": [
                {
                  "internalType": "uint8",
                  "name": "position1",
                  "type": "uint8"
                },
                {
                  "internalType": "uint8",
                  "name": "position2",
                  "type": "uint8"
                },
                {
                  "internalType": "uint8",
                  "name": "position3",
                  "type": "uint8"
                },
                {
                  "internalType": "uint8",
                  "name": "position4",
                  "type": "uint8"
                }
              ],
              "internalType": "struct SwapifyLotterySystem.Ticket",
              "name": "winningNumbers",
              "type": "tuple"
            },
            {
              "internalType": "uint256",
              "name": "reward",
              "type": "uint256"
            },
            {
              "components": [
                {
                  "internalType": "uint8",
                  "name": "position1",
                  "type": "uint8"
                },
                {
                  "internalType": "uint8",
                  "name": "position2",
                  "type": "uint8"
                },
                {
                  "internalType": "uint8",
                  "name": "position3",
                  "type": "uint8"
                },
                {
                  "internalType": "uint8",
                  "name": "position4",
                  "type": "uint8"
                }
              ],
              "internalType": "struct SwapifyLotterySystem.Ticket[]",
              "name": "tickets",
              "type": "tuple[]"
            },
            {
              "components": [
                {
                  "internalType": "uint8",
                  "name": "matchAll",
                  "type": "uint8"
                },
                {
                  "internalType": "uint8",
                  "name": "match3",
                  "type": "uint8"
                },
                {
                  "internalType": "uint8",
                  "name": "match2",
                  "type": "uint8"
                },
                {
                  "internalType": "uint8",
                  "name": "match1",
                  "type": "uint8"
                }
              ],
              "internalType": "struct SwapifyLotterySystem.RewardRatio",
              "name": "rewardRatio",
              "type": "tuple"
            },
            {
              "internalType": "uint8",
              "name": "match1",
              "type": "uint8"
            },
            {
              "internalType": "uint8",
              "name": "match2",
              "type": "uint8"
            },
            {
              "internalType": "uint8",
              "name": "match3",
              "type": "uint8"
            },
            {
              "internalType": "uint8",
              "name": "matchAll",
              "type": "uint8"
            },
            {
              "internalType": "bool",
              "name": "noMatch",
              "type": "bool"
            }
          ],
          "internalType": "struct SwapifyLotterySystem.RoundData",
          "name": "",
          "type": "tuple"
        }
      ],
      "stateMutability": "view",
      "type": "function",
      "constant": true
    },
    {
      "inputs": [
        {
          "internalType": "address",
          "name": "user",
          "type": "address"
        },
        {
          "internalType": "uint256",
          "name": "round",
          "type": "uint256"
        }
      ],
      "name": "getUserRoundData",
      "outputs": [
        {
          "components": [
            {
              "internalType": "uint256",
              "name": "round",
              "type": "uint256"
            },
            {
              "internalType": "address",
              "name": "user",
              "type": "address"
            },
            {
              "components": [
                {
                  "internalType": "uint8",
                  "name": "position1",
                  "type": "uint8"
                },
                {
                  "internalType": "uint8",
                  "name": "position2",
                  "type": "uint8"
                },
                {
                  "internalType": "uint8",
                  "name": "position3",
                  "type": "uint8"
                },
                {
                  "internalType": "uint8",
                  "name": "position4",
                  "type": "uint8"
                }
              ],
              "internalType": "struct SwapifyLotterySystem.Ticket[]",
              "name": "tickets",
              "type": "tuple[]"
            },
            {
              "internalType": "uint8[]",
              "name": "boughtTickets",
              "type": "uint8[]"
            },
            {
              "internalType": "bool",
              "name": "claimed",
              "type": "bool"
            },
            {
              "internalType": "uint256",
              "name": "reward",
              "type": "uint256"
            }
          ],
          "internalType": "struct SwapifyLotterySystem.UserData",
          "name": "",
          "type": "tuple"
        }
      ],
      "stateMutability": "view",
      "type": "function",
      "constant": true
    },
    {
      "inputs": [
        {
          "internalType": "address",
          "name": "user",
          "type": "address"
        },
        {
          "internalType": "uint256",
          "name": "swapifyLotteryTicketAmount",
          "type": "uint256"
        }
      ],
      "name": "mintTickets",
      "outputs": [],
      "stateMutability": "nonpayable",
      "type": "function"
    },
    {
      "inputs": [
        {
          "internalType": "address",
          "name": "user",
          "type": "address"
        },
        {
          "internalType": "uint256",
          "name": "rewardsAmount",
          "type": "uint256"
        }
      ],
      "name": "buyTickets",
      "outputs": [],
      "stateMutability": "nonpayable",
      "type": "function"
    },
    {
      "inputs": [
        {
          "internalType": "address",
          "name": "user",
          "type": "address"
        },
        {
          "internalType": "uint256",
          "name": "amount",
          "type": "uint256"
        }
      ],
      "name": "submitTicket",
      "outputs": [],
      "stateMutability": "nonpayable",
      "type": "function"
    },
    {
      "inputs": [
        {
          "internalType": "uint256",
          "name": "rewardAmount",
          "type": "uint256"
        }
      ],
      "name": "addReward",
      "outputs": [],
      "stateMutability": "nonpayable",
      "type": "function"
    },
    {
      "inputs": [
        {
          "internalType": "uint8",
          "name": "ratio",
          "type": "uint8"
        }
      ],
      "name": "setRewardRatio",
      "outputs": [],
      "stateMutability": "nonpayable",
      "type": "function"
    },
    {
      "inputs": [
        {
          "internalType": "address",
          "name": "_rewardsTokenAddress",
          "type": "address"
        }
      ],
      "name": "setRewardToken",
      "outputs": [],
      "stateMutability": "nonpayable",
      "type": "function"
    },
    {
      "inputs": [],
      "name": "drawWinningNumber",
      "outputs": [],
      "stateMutability": "nonpayable",
      "type": "function"
    },
    {
      "inputs": [
        {
          "internalType": "uint256",
          "name": "_nonce",
          "type": "uint256"
        }
      ],
      "name": "setNonce",
      "outputs": [],
      "stateMutability": "nonpayable",
      "type": "function"
    },
    {
      "inputs": [
        {
          "internalType": "uint8",
          "name": "matchAll",
          "type": "uint8"
        },
        {
          "internalType": "uint8",
          "name": "match3",
          "type": "uint8"
        },
        {
          "internalType": "uint8",
          "name": "match2",
          "type": "uint8"
        },
        {
          "internalType": "uint8",
          "name": "match1",
          "type": "uint8"
        }
      ],
      "name": "updateMatchPoolAllocation",
      "outputs": [],
      "stateMutability": "nonpayable",
      "type": "function"
    },
    {
      "inputs": [
        {
          "internalType": "address",
          "name": "user",
          "type": "address"
        },
        {
          "internalType": "uint256",
          "name": "round",
          "type": "uint256"
        }
      ],
      "name": "claimRewards",
      "outputs": [],
      "stateMutability": "nonpayable",
      "type": "function"
    }
  ],
  "bytecode": "0x608060405260048060146101000a81548160ff021916908360ff1602179055503480156200002c57600080fd5b506040516200620138038062006201833981810160405281019062000052919062000258565b32600360006101000a81548173ffffffffffffffffffffffffffffffffffffffff021916908373ffffffffffffffffffffffffffffffffffffffff160217905550600360009054906101000a900473ffffffffffffffffffffffffffffffffffffffff1673ffffffffffffffffffffffffffffffffffffffff16600073ffffffffffffffffffffffffffffffffffffffff167f8be0079c531659141344cd1fd0a4f28419497f9722a3daafe3b4186f6b6457e060405160405180910390a380600460006101000a81548173ffffffffffffffffffffffffffffffffffffffff021916908373ffffffffffffffffffffffffffffffffffffffff16021790555060016005819055506506f26c0fbec4600881905550603260066000600554815260200190815260200160002060040160000160006101000a81548160ff021916908360ff160217905550601e60066000600554815260200190815260200160002060040160000160016101000a81548160ff021916908360ff160217905550600f60066000600554815260200190815260200160002060040160000160026101000a81548160ff021916908360ff160217905550600560066000600554815260200190815260200160002060040160000160036101000a81548160ff021916908360ff16021790555050620002d2565b6000815190506200025281620002b8565b92915050565b6000602082840312156200026b57600080fd5b60006200027b8482850162000241565b91505092915050565b6000620002918262000298565b9050919050565b600073ffffffffffffffffffffffffffffffffffffffff82169050919050565b620002c38162000284565b8114620002cf57600080fd5b50565b615f1f80620002e26000396000f3fe608060405234801561001057600080fd5b50600436106101da5760003560e01c806388f577671161010457806395d89b41116100a2578063dd20c4a711610071578063dd20c4a714610521578063dd62ed3e1461053d578063f2fde38b1461056d578063f360c18314610589576101da565b806395d89b41146104995780639a99b4f0146104b7578063a9059cbb146104d3578063d1af0c7d14610503576101da565b80638da5cb5b116100de5780638da5cb5b146103fd5780638f32d59b1461041b5780639371099a146104395780639506a4ec14610469576101da565b806388f57767146103a75780638a19c8bc146103c35780638aee8127146103e1576101da565b806338fdae0b1161017c578063667d05721161014b578063667d05721461034757806370a0823114610351578063715018a61461038157806374de4ec41461038b576101da565b806338fdae0b146102d357806349fd689f146102ef5780635ea16f931461030b578063646033bc14610329576101da565b8063095ea7b3116101b8578063095ea7b31461023757806318160ddd1461026757806323b872dd14610285578063313ce567146102b5576101da565b8063042f90fa146101df57806306fdde03146101fb57806307621eca14610219575b600080fd5b6101f960048036038101906101f49190614559565b6105a5565b005b610203610937565b6040516102109190615563565b60405180910390f35b610221610970565b60405161022e91906158c9565b60405180910390f35b610251600480360381019061024c9190614559565b610990565b60405161025e9190615548565b60405180910390f35b61026f6109a7565b60405161027c91906158c9565b60405180910390f35b61029f600480360381019061029a919061450a565b6109ad565b6040516102ac9190615548565b60405180910390f35b6102bd610c37565b6040516102ca91906158e4565b60405180910390f35b6102ed60048036038101906102e89190614639565b610c3c565b005b610309600480360381019061030491906145e7565b610dc0565b005b610313610e6b565b6040516103209190615526565b60405180910390f35b610331610f50565b60405161033e91906158e4565b60405180910390f35b61034f610f63565b005b61036b600480360381019061036691906144a5565b61155a565b60405161037891906158c9565b60405180910390f35b610389611572565b005b6103a560048036038101906103a091906145be565b61167a565b005b6103c160048036038101906103bc9190614559565b611802565b005b6103cb611b16565b6040516103d891906158c9565b60405180910390f35b6103fb60048036038101906103f691906144a5565b611b1c565b005b610405611c17565b60405161041291906154ab565b60405180910390f35b610423611c41565b6040516104309190615548565b60405180910390f35b610453600480360381019061044e9190614559565b611c99565b60405161046091906158a7565b60405180910390f35b610483600480360381019061047e91906145be565b612589565b6040516104909190615885565b60405180910390f35b6104a1612839565b6040516104ae9190615563565b60405180910390f35b6104d160048036038101906104cc9190614559565b612872565b005b6104ed60048036038101906104e89190614559565b612b38565b6040516104fa9190615548565b60405180910390f35b61050b612b4f565b60405161051891906154ab565b60405180910390f35b61053b60048036038101906105369190614559565b612b75565b005b610557600480360381019061055291906144ce565b612c36565b60405161056491906158c9565b60405180910390f35b610587600480360381019061058291906144a5565b612c5b565b005b6105a3600480360381019061059e91906145be565b612cae565b005b600081116105e8576040517f08c379a00000000000000000000000000000000000000000000000000000000081526004016105df90615845565b60405180910390fd5b60055460076000600554815260200190815260200160002060008473ffffffffffffffffffffffffffffffffffffffff1673ffffffffffffffffffffffffffffffffffffffff168152602001908152602001600020600001819055508160076000600554815260200190815260200160002060008473ffffffffffffffffffffffffffffffffffffffff1673ffffffffffffffffffffffffffffffffffffffff16815260200190815260200160002060010160006101000a81548173ffffffffffffffffffffffffffffffffffffffff021916908373ffffffffffffffffffffffffffffffffffffffff16021790555060005b81811015610928576106eb614319565b6106f3612cff565b816000019060ff16908160ff168152505061070c612cff565b816020019060ff16908160ff1681525050610725612cff565b816040019060ff16908160ff168152505061073e612cff565b816060019060ff16908160ff168152505060076000600554815260200190815260200160002060008573ffffffffffffffffffffffffffffffffffffffff1673ffffffffffffffffffffffffffffffffffffffff168152602001908152602001600020600201819080600181540180825580915050600190039060005260206000200160009091909190915060008201518160000160006101000a81548160ff021916908360ff16021790555060208201518160000160016101000a81548160ff021916908360ff16021790555060408201518160000160026101000a81548160ff021916908360ff16021790555060608201518160000160036101000a81548160ff021916908360ff1602179055505050600660006005548152602001908152602001600020600301819080600181540180825580915050600190039060005260206000200160009091909190915060008201518160000160006101000a81548160ff021916908360ff16021790555060208201518160000160016101000a81548160ff021916908360ff16021790555060408201518160000160026101000a81548160ff021916908360ff16021790555060608201518160000160036101000a81548160ff021916908360ff160217905550505050808061092090615d28565b9150506106db565b506109338282612d5f565b5050565b6040518060400160405280601c81526020017f53776170696679204c6f7474657279205469636b657420546f6b656e0000000081525081565b600060066000600554815260200190815260200160002060020154905090565b600061099d338484612fb0565b6001905092915050565b60005481565b600081600260008673ffffffffffffffffffffffffffffffffffffffff1673ffffffffffffffffffffffffffffffffffffffff16815260200190815260200160002060003373ffffffffffffffffffffffffffffffffffffffff1673ffffffffffffffffffffffffffffffffffffffff168152602001908152602001600020541015610a6e576040517f08c379a0000000000000000000000000000000000000000000000000000000008152600401610a65906156c5565b60405180910390fd5b7fffffffffffffffffffffffffffffffffffffffffffffffffffffffffffffffff600260008673ffffffffffffffffffffffffffffffffffffffff1673ffffffffffffffffffffffffffffffffffffffff16815260200190815260200160002060003373ffffffffffffffffffffffffffffffffffffffff1673ffffffffffffffffffffffffffffffffffffffff1681526020019081526020016000205414610c2157610ba082600260008773ffffffffffffffffffffffffffffffffffffffff1673ffffffffffffffffffffffffffffffffffffffff16815260200190815260200160002060003373ffffffffffffffffffffffffffffffffffffffff1673ffffffffffffffffffffffffffffffffffffffff1681526020019081526020016000205461310b90919063ffffffff16565b600260008673ffffffffffffffffffffffffffffffffffffffff1673ffffffffffffffffffffffffffffffffffffffff16815260200190815260200160002060003373ffffffffffffffffffffffffffffffffffffffff1673ffffffffffffffffffffffffffffffffffffffff168152602001908152602001600020819055505b610c2c848484613164565b600190509392505050565b600081565b610c44611c41565b610c83576040517f08c379a0000000000000000000000000000000000000000000000000000000008152600401610c7a90615725565b60405180910390fd5b606481838587610c9391906159f4565b610c9d91906159f4565b610ca791906159f4565b60ff1614610cea576040517f08c379a0000000000000000000000000000000000000000000000000000000008152600401610ce190615785565b60405180910390fd5b8360066000600554815260200190815260200160002060040160000160006101000a81548160ff021916908360ff1602179055508260066000600554815260200190815260200160002060040160000160016101000a81548160ff021916908360ff1602179055508160066000600554815260200190815260200160002060040160000160026101000a81548160ff021916908360ff1602179055508060066000600554815260200190815260200160002060040160000160036101000a81548160ff021916908360ff16021790555050505050565b610dc8611c41565b610e07576040517f08c379a0000000000000000000000000000000000000000000000000000000008152600401610dfe90615725565b60405180910390fd5b60008160ff1611610e4d576040517f08c379a0000000000000000000000000000000000000000000000000000000008152600401610e4490615645565b60405180910390fd5b80600460146101000a81548160ff021916908360ff16021790555050565b6060600660006005548152602001908152602001600020600301805480602002602001604051908101604052809291908181526020016000905b82821015610f47578382906000526020600020016040518060800160405290816000820160009054906101000a900460ff1660ff1660ff1681526020016000820160019054906101000a900460ff1660ff1660ff1681526020016000820160029054906101000a900460ff1660ff1660ff1681526020016000820160039054906101000a900460ff1660ff1660ff168152505081526020019060010190610ea5565b50505050905090565b600460149054906101000a900460ff1681565b610f6b611c41565b610faa576040517f08c379a0000000000000000000000000000000000000000000000000000000008152600401610fa190615725565b60405180910390fd5b610fb2612cff565b60066000600554815260200190815260200160002060010160000160006101000a81548160ff021916908360ff160217905550610fed612cff565b60066000600554815260200190815260200160002060010160000160016101000a81548160ff021916908360ff160217905550611028612cff565b60066000600554815260200190815260200160002060010160000160026101000a81548160ff021916908360ff160217905550611063612cff565b60066000600554815260200190815260200160002060010160000160036101000a81548160ff021916908360ff16021790555061117f600660006005548152602001908152602001600020600301805480602002602001604051908101604052809291908181526020016000905b82821015611173578382906000526020600020016040518060800160405290816000820160009054906101000a900460ff1660ff1660ff1681526020016000820160019054906101000a900460ff1660ff1660ff1681526020016000820160029054906101000a900460ff1660ff1660ff1681526020016000820160039054906101000a900460ff1660ff1660ff1681525050815260200190600101906110d1565b5050505060055461345a565b60066000600554815260200190815260200160002060050160036006600060055481526020019081526020016000206005016002600660006005548152602001908152602001600020600501600160066000600554815260200190815260200160002060050160008891906101000a81548160ff021916908360ff1602179055508791906101000a81548160ff021916908360ff1602179055508691906101000a81548160ff021916908360ff1602179055508591906101000a81548160ff021916908360ff16021790555050505050600060066000600554815260200190815260200160002060050160009054906101000a900460ff1660ff161480156112af5750600060066000600554815260200190815260200160002060050160019054906101000a900460ff1660ff16145b80156112e35750600060066000600554815260200190815260200160002060050160029054906101000a900460ff1660ff16145b80156113175750600060066000600554815260200190815260200160002060050160039054906101000a900460ff1660ff16145b1561134e57600160066000600554815260200190815260200160002060050160046101000a81548160ff0219169083151502179055505b6005600081548092919061136190615d28565b91905055506005546006600060055481526020019081526020016000206000018190555061139c60016005546113979190615c62565b613996565b600660006005548152602001908152602001600020600201819055506006600060016005546113cb9190615c62565b815260200190815260200160002060040160000160009054906101000a900460ff1660066000600554815260200190815260200160002060040160000160006101000a81548160ff021916908360ff1602179055506006600060016005546114339190615c62565b815260200190815260200160002060040160000160019054906101000a900460ff1660066000600554815260200190815260200160002060040160000160016101000a81548160ff021916908360ff16021790555060066000600160055461149b9190615c62565b815260200190815260200160002060040160000160029054906101000a900460ff1660066000600554815260200190815260200160002060040160000160026101000a81548160ff021916908360ff1602179055506006600060016005546115039190615c62565b815260200190815260200160002060040160000160039054906101000a900460ff1660066000600554815260200190815260200160002060040160000160036101000a81548160ff021916908360ff160217905550565b60016020528060005260406000206000915090505481565b61157a611c41565b6115b9576040517f08c379a00000000000000000000000000000000000000000000000000000000081526004016115b090615725565b60405180910390fd5b600073ffffffffffffffffffffffffffffffffffffffff16600360009054906101000a900473ffffffffffffffffffffffffffffffffffffffff1673ffffffffffffffffffffffffffffffffffffffff167f8be0079c531659141344cd1fd0a4f28419497f9722a3daafe3b4186f6b6457e060405160405180910390a36000600360006101000a81548173ffffffffffffffffffffffffffffffffffffffff021916908373ffffffffffffffffffffffffffffffffffffffff160217905550565b611682611c41565b6116c1576040517f08c379a00000000000000000000000000000000000000000000000000000000081526004016116b890615725565b60405180910390fd5b600460009054906101000a900473ffffffffffffffffffffffffffffffffffffffff1673ffffffffffffffffffffffffffffffffffffffff166323b872dd611707611c17565b30846040518463ffffffff1660e01b8152600401611727939291906154c6565b602060405180830381600087803b15801561174157600080fd5b505af1158015611755573d6000803e3d6000fd5b505050506040513d601f19601f820116820180604052508101906117799190614595565b6117b8576040517f08c379a00000000000000000000000000000000000000000000000000000000081526004016117af906155a5565b60405180910390fd5b6117e38160066000600554815260200190815260200160002060020154613aae90919063ffffffff16565b6006600060055481526020019081526020016000206002018190555050565b600073ffffffffffffffffffffffffffffffffffffffff168273ffffffffffffffffffffffffffffffffffffffff161415611872576040517f08c379a000000000000000000000000000000000000000000000000000000000815260040161186990615705565b60405180910390fd5b600081116118b5576040517f08c379a00000000000000000000000000000000000000000000000000000000081526004016118ac906157a5565b60405180910390fd5b6000600460149054906101000a900460ff1660ff16600460009054906101000a900473ffffffffffffffffffffffffffffffffffffffff1673ffffffffffffffffffffffffffffffffffffffff1663313ce5676040518163ffffffff1660e01b815260040160206040518083038186803b15801561193257600080fd5b505afa158015611946573d6000803e3d6000fd5b505050506040513d601f19601f8201168201806040525081019061196a9190614610565b600a6119769190615aaf565b836119819190615a2b565b61198b9190615a2b565b9050600081116119d0576040517f08c379a00000000000000000000000000000000000000000000000000000000081526004016119c790615825565b60405180910390fd5b600460009054906101000a900473ffffffffffffffffffffffffffffffffffffffff1673ffffffffffffffffffffffffffffffffffffffff166323b872dd8430856040518463ffffffff1660e01b8152600401611a2f939291906154c6565b602060405180830381600087803b158015611a4957600080fd5b505af1158015611a5d573d6000803e3d6000fd5b505050506040513d601f19601f82011682018060405250810190611a819190614595565b611ac0576040517f08c379a0000000000000000000000000000000000000000000000000000000008152600401611ab790615745565b60405180910390fd5b611aca8382613acb565b611af58260066000600554815260200190815260200160002060020154613aae90919063ffffffff16565b60066000600554815260200190815260200160002060020181905550505050565b60055481565b611b24611c41565b611b63576040517f08c379a0000000000000000000000000000000000000000000000000000000008152600401611b5a90615725565b60405180910390fd5b600073ffffffffffffffffffffffffffffffffffffffff168173ffffffffffffffffffffffffffffffffffffffff161415611bd3576040517f08c379a0000000000000000000000000000000000000000000000000000000008152600401611bca906156a5565b60405180910390fd5b80600460006101000a81548173ffffffffffffffffffffffffffffffffffffffff021916908373ffffffffffffffffffffffffffffffffffffffff16021790555050565b6000600360009054906101000a900473ffffffffffffffffffffffffffffffffffffffff16905090565b6000600360009054906101000a900473ffffffffffffffffffffffffffffffffffffffff1673ffffffffffffffffffffffffffffffffffffffff163373ffffffffffffffffffffffffffffffffffffffff1614905090565b611ca161434d565b6000600554831015611df957600080600080611dd56007600089815260200190815260200160002060008a73ffffffffffffffffffffffffffffffffffffffff1673ffffffffffffffffffffffffffffffffffffffff168152602001908152602001600020600201805480602002602001604051908101604052809291908181526020016000905b82821015611dcb578382906000526020600020016040518060800160405290816000820160009054906101000a900460ff1660ff1660ff1681526020016000820160019054906101000a900460ff1660ff1660ff1681526020016000820160029054906101000a900460ff1660ff1660ff1681526020016000820160039054906101000a900460ff1660ff1660ff168152505081526020019060010190611d29565b505050508861345a565b80945081955082965083975050505050611df2848484848b613d02565b9450505050505b60006040518060c001604052806007600087815260200190815260200160002060008873ffffffffffffffffffffffffffffffffffffffff1673ffffffffffffffffffffffffffffffffffffffff1681526020019081526020016000206000015481526020016007600087815260200190815260200160002060008873ffffffffffffffffffffffffffffffffffffffff1673ffffffffffffffffffffffffffffffffffffffff16815260200190815260200160002060010160009054906101000a900473ffffffffffffffffffffffffffffffffffffffff1673ffffffffffffffffffffffffffffffffffffffff168152602001600067ffffffffffffffff811115611f2f577f4e487b7100000000000000000000000000000000000000000000000000000000600052604160045260246000fd5b604051908082528060200260200182016040528015611f6857816020015b611f55614319565b815260200190600190039081611f4d5790505b50815260200160046007600088815260200190815260200160002060008973ffffffffffffffffffffffffffffffffffffffff1673ffffffffffffffffffffffffffffffffffffffff16815260200190815260200160002060020180549050611fd19190615bcd565b67ffffffffffffffff811115612010577f4e487b7100000000000000000000000000000000000000000000000000000000600052604160045260246000fd5b60405190808252806020026020018201604052801561203e5781602001602082028036833780820191505090505b5081526020016007600087815260200190815260200160002060008873ffffffffffffffffffffffffffffffffffffffff1673ffffffffffffffffffffffffffffffffffffffff16815260200190815260200160002060040160009054906101000a900460ff161515815260200183815250905060005b6007600086815260200190815260200160002060008773ffffffffffffffffffffffffffffffffffffffff1673ffffffffffffffffffffffffffffffffffffffff168152602001908152602001600020600201805490508160ff16101561257d576007600086815260200190815260200160002060008773ffffffffffffffffffffffffffffffffffffffff1673ffffffffffffffffffffffffffffffffffffffff1681526020019081526020016000206002018160ff16815481106121a4577f4e487b7100000000000000000000000000000000000000000000000000000000600052603260045260246000fd5b9060005260206000200160000160009054906101000a900460ff16826060015160006004846121d39190615c27565b6121dd91906159f4565b60ff1681518110612217577f4e487b7100000000000000000000000000000000000000000000000000000000600052603260045260246000fd5b602002602001019060ff16908160ff16815250506007600086815260200190815260200160002060008773ffffffffffffffffffffffffffffffffffffffff1673ffffffffffffffffffffffffffffffffffffffff1681526020019081526020016000206002018160ff16815481106122b9577f4e487b7100000000000000000000000000000000000000000000000000000000600052603260045260246000fd5b9060005260206000200160000160019054906101000a900460ff16826060015160016004846122e89190615c27565b6122f291906159f4565b60ff168151811061232c577f4e487b7100000000000000000000000000000000000000000000000000000000600052603260045260246000fd5b602002602001019060ff16908160ff16815250506007600086815260200190815260200160002060008773ffffffffffffffffffffffffffffffffffffffff1673ffffffffffffffffffffffffffffffffffffffff1681526020019081526020016000206002018160ff16815481106123ce577f4e487b7100000000000000000000000000000000000000000000000000000000600052603260045260246000fd5b9060005260206000200160000160029054906101000a900460ff16826060015160026004846123fd9190615c27565b61240791906159f4565b60ff1681518110612441577f4e487b7100000000000000000000000000000000000000000000000000000000600052603260045260246000fd5b602002602001019060ff16908160ff16815250506007600086815260200190815260200160002060008773ffffffffffffffffffffffffffffffffffffffff1673ffffffffffffffffffffffffffffffffffffffff1681526020019081526020016000206002018160ff16815481106124e3577f4e487b7100000000000000000000000000000000000000000000000000000000600052603260045260246000fd5b9060005260206000200160000160039054906101000a900460ff16826060015160036004846125129190615c27565b61251c91906159f4565b60ff1681518110612556577f4e487b7100000000000000000000000000000000000000000000000000000000600052603260045260246000fd5b602002602001019060ff16908160ff1681525050808061257590615d71565b9150506120b5565b50809250505092915050565b61259161439b565b600660008381526020019081526020016000206040518061014001604052908160008201548152602001600182016040518060800160405290816000820160009054906101000a900460ff1660ff1660ff1681526020016000820160019054906101000a900460ff1660ff1660ff1681526020016000820160029054906101000a900460ff1660ff1660ff1681526020016000820160039054906101000a900460ff1660ff1660ff168152505081526020016002820154815260200160038201805480602002602001604051908101604052809291908181526020016000905b82821015612713578382906000526020600020016040518060800160405290816000820160009054906101000a900460ff1660ff1660ff1681526020016000820160019054906101000a900460ff1660ff1660ff1681526020016000820160029054906101000a900460ff1660ff1660ff1681526020016000820160039054906101000a900460ff1660ff1660ff168152505081526020019060010190612671565b505050508152602001600482016040518060800160405290816000820160009054906101000a900460ff1660ff1660ff1681526020016000820160019054906101000a900460ff1660ff1660ff1681526020016000820160029054906101000a900460ff1660ff1660ff1681526020016000820160039054906101000a900460ff1660ff1660ff168152505081526020016005820160009054906101000a900460ff1660ff1660ff1681526020016005820160019054906101000a900460ff1660ff1660ff1681526020016005820160029054906101000a900460ff1660ff1660ff1681526020016005820160039054906101000a900460ff1660ff1660ff1681526020016005820160049054906101000a900460ff1615151515815250509050919050565b6040518060400160405280600b81526020017f53574150415449434b455400000000000000000000000000000000000000000081525081565b60008060008061299a6007600087815260200190815260200160002060008873ffffffffffffffffffffffffffffffffffffffff1673ffffffffffffffffffffffffffffffffffffffff168152602001908152602001600020600201805480602002602001604051908101604052809291908181526020016000905b82821015612990578382906000526020600020016040518060800160405290816000820160009054906101000a900460ff1660ff1660ff1681526020016000820160019054906101000a900460ff1660ff1660ff1681526020016000820160029054906101000a900460ff1660ff1660ff1681526020016000820160039054906101000a900460ff1660ff1660ff1681525050815260200190600101906128ee565b505050508661345a565b8094508195508296508397505050505060006129b9858585858a613d02565b9050806007600088815260200190815260200160002060008973ffffffffffffffffffffffffffffffffffffffff1673ffffffffffffffffffffffffffffffffffffffff1681526020019081526020016000206005018190555060016007600088815260200190815260200160002060008973ffffffffffffffffffffffffffffffffffffffff1673ffffffffffffffffffffffffffffffffffffffff16815260200190815260200160002060040160006101000a81548160ff021916908315150217905550600460009054906101000a900473ffffffffffffffffffffffffffffffffffffffff1673ffffffffffffffffffffffffffffffffffffffff1663a9059cbb88836040518363ffffffff1660e01b8152600401612adc9291906154fd565b602060405180830381600087803b158015612af657600080fd5b505af1158015612b0a573d6000803e3d6000fd5b505050506040513d601f19601f82011682018060405250810190612b2e9190614595565b5050505050505050565b6000612b45338484613164565b6001905092915050565b600460009054906101000a900473ffffffffffffffffffffffffffffffffffffffff1681565b600073ffffffffffffffffffffffffffffffffffffffff168273ffffffffffffffffffffffffffffffffffffffff161415612be5576040517f08c379a0000000000000000000000000000000000000000000000000000000008152600401612bdc90615705565b60405180910390fd5b60008111612c28576040517f08c379a0000000000000000000000000000000000000000000000000000000008152600401612c1f90615645565b60405180910390fd5b612c328282613acb565b5050565b6002602052816000526040600020602052806000526040600020600091509150505481565b612c63611c41565b612ca2576040517f08c379a0000000000000000000000000000000000000000000000000000000008152600401612c9990615725565b60405180910390fd5b612cab816140e9565b50565b612cb6611c41565b612cf5576040517f08c379a0000000000000000000000000000000000000000000000000000000008152600401612cec90615725565b60405180910390fd5b8060088190555050565b6000600360086000828254612d14919061599e565b92505081905550600a43403342600854604051602001612d37949392919061545d565b6040516020818303038152906040528051906020012060001c612d5a9190615dd3565b905090565b600073ffffffffffffffffffffffffffffffffffffffff168273ffffffffffffffffffffffffffffffffffffffff161415612dcf576040517f08c379a0000000000000000000000000000000000000000000000000000000008152600401612dc690615805565b60405180910390fd5b80600160008473ffffffffffffffffffffffffffffffffffffffff1673ffffffffffffffffffffffffffffffffffffffff168152602001908152602001600020541015612e51576040517f08c379a0000000000000000000000000000000000000000000000000000000008152600401612e4890615665565b60405180910390fd5b612ea381600160008573ffffffffffffffffffffffffffffffffffffffff1673ffffffffffffffffffffffffffffffffffffffff1681526020019081526020016000205461310b90919063ffffffff16565b600160008473ffffffffffffffffffffffffffffffffffffffff1673ffffffffffffffffffffffffffffffffffffffff16815260200190815260200160002081905550600054811115612f2b576040517f08c379a0000000000000000000000000000000000000000000000000000000008152600401612f2290615685565b60405180910390fd5b612f408160005461310b90919063ffffffff16565b600081905550600073ffffffffffffffffffffffffffffffffffffffff168273ffffffffffffffffffffffffffffffffffffffff167fddf252ad1be2c89b69c2b068fc378daa952ba7f163c4a11628f55a4df523b3ef83604051612fa491906158c9565b60405180910390a35050565b600073ffffffffffffffffffffffffffffffffffffffff168273ffffffffffffffffffffffffffffffffffffffff161415613020576040517f08c379a000000000000000000000000000000000000000000000000000000000815260040161301790615865565b60405180910390fd5b80600260008573ffffffffffffffffffffffffffffffffffffffff1673ffffffffffffffffffffffffffffffffffffffff16815260200190815260200160002060008473ffffffffffffffffffffffffffffffffffffffff1673ffffffffffffffffffffffffffffffffffffffff168152602001908152602001600020819055508173ffffffffffffffffffffffffffffffffffffffff168373ffffffffffffffffffffffffffffffffffffffff167f8c5be1e5ebec7d5bd14f71427d1e84f3dd0314c0f7b2291e5b200ac8c7c3b925836040516130fe91906158c9565b60405180910390a3505050565b600082828461311a9190615c62565b915081111561315e576040517f08c379a000000000000000000000000000000000000000000000000000000000815260040161315590615585565b60405180910390fd5b92915050565b600073ffffffffffffffffffffffffffffffffffffffff168373ffffffffffffffffffffffffffffffffffffffff1614156131d4576040517f08c379a00000000000000000000000000000000000000000000000000000000081526004016131cb906155c5565b60405180910390fd5b600073ffffffffffffffffffffffffffffffffffffffff168273ffffffffffffffffffffffffffffffffffffffff161415613244576040517f08c379a000000000000000000000000000000000000000000000000000000000815260040161323b90615765565b60405180910390fd5b80600160008573ffffffffffffffffffffffffffffffffffffffff1673ffffffffffffffffffffffffffffffffffffffff1681526020019081526020016000205410156132c6576040517f08c379a00000000000000000000000000000000000000000000000000000000081526004016132bd906157e5565b60405180910390fd5b61331881600160008673ffffffffffffffffffffffffffffffffffffffff1673ffffffffffffffffffffffffffffffffffffffff1681526020019081526020016000205461310b90919063ffffffff16565b600160008573ffffffffffffffffffffffffffffffffffffffff1673ffffffffffffffffffffffffffffffffffffffff168152602001908152602001600020819055506133ad81600160008573ffffffffffffffffffffffffffffffffffffffff1673ffffffffffffffffffffffffffffffffffffffff1681526020019081526020016000205461421990919063ffffffff16565b600160008473ffffffffffffffffffffffffffffffffffffffff1673ffffffffffffffffffffffffffffffffffffffff168152602001908152602001600020819055508173ffffffffffffffffffffffffffffffffffffffff168373ffffffffffffffffffffffffffffffffffffffff167fddf252ad1be2c89b69c2b068fc378daa952ba7f163c4a11628f55a4df523b3ef8360405161344d91906158c9565b60405180910390a3505050565b60008060008060005b865181101561398c576006600087815260200190815260200160002060010160000160009054906101000a900460ff1660ff168782815181106134cf577f4e487b7100000000000000000000000000000000000000000000000000000000600052603260045260246000fd5b60200260200101516000015160ff1614801561355a57506006600087815260200190815260200160002060010160000160019054906101000a900460ff1660ff16878281518110613549577f4e487b7100000000000000000000000000000000000000000000000000000000600052603260045260246000fd5b60200260200101516020015160ff16145b80156135d557506006600087815260200190815260200160002060010160000160029054906101000a900460ff1660ff168782815181106135c4577f4e487b7100000000000000000000000000000000000000000000000000000000600052603260045260246000fd5b60200260200101516040015160ff16145b801561365057506006600087815260200190815260200160002060010160000160039054906101000a900460ff1660ff1687828151811061363f577f4e487b7100000000000000000000000000000000000000000000000000000000600052603260045260246000fd5b60200260200101516060015160ff16145b1561366857848061366090615d71565b955050613979565b6006600087815260200190815260200160002060010160000160009054906101000a900460ff1660ff168782815181106136cb577f4e487b7100000000000000000000000000000000000000000000000000000000600052603260045260246000fd5b60200260200101516000015160ff1614801561375657506006600087815260200190815260200160002060010160000160019054906101000a900460ff1660ff16878281518110613745577f4e487b7100000000000000000000000000000000000000000000000000000000600052603260045260246000fd5b60200260200101516020015160ff16145b80156137d157506006600087815260200190815260200160002060010160000160029054906101000a900460ff1660ff168782815181106137c0577f4e487b7100000000000000000000000000000000000000000000000000000000600052603260045260246000fd5b60200260200101516040015160ff16145b156137e95783806137e190615d71565b945050613978565b6006600087815260200190815260200160002060010160000160009054906101000a900460ff1660ff1687828151811061384c577f4e487b7100000000000000000000000000000000000000000000000000000000600052603260045260246000fd5b60200260200101516000015160ff161480156138d757506006600087815260200190815260200160002060010160000160019054906101000a900460ff1660ff168782815181106138c6577f4e487b7100000000000000000000000000000000000000000000000000000000600052603260045260246000fd5b60200260200101516020015160ff16145b156138ef5782806138e790615d71565b935050613977565b6006600087815260200190815260200160002060010160000160009054906101000a900460ff1660ff16878281518110613952577f4e487b7100000000000000000000000000000000000000000000000000000000600052603260045260246000fd5b60200260200101516000015160ff16141561397657818061397290615d71565b9250505b5b5b5b808061398490615d28565b915050613463565b5092959194509250565b60006006600083815260200190815260200160002060050160049054906101000a900460ff16156139df5760066000838152602001908152602001600020600201549050613aa9565b6000613a7a6006600085815260200190815260200160002060050160039054906101000a900460ff166006600086815260200190815260200160002060050160029054906101000a900460ff166006600087815260200190815260200160002060050160019054906101000a900460ff166006600088815260200190815260200160002060050160009054906101000a900460ff1687613d02565b9050613aa581600660008681526020019081526020016000206002015461427290919063ffffffff16565b9150505b919050565b6000613ac3828461421990919063ffffffff16565b905092915050565b6000547fffffffffffffffffffffffffffffffffffffffffffffffffffffffffffffffff613af99190615c62565b811115613b3b576040517f08c379a0000000000000000000000000000000000000000000000000000000008152600401613b32906157c5565b60405180910390fd5b613b508160005461421990919063ffffffff16565b600081905550600160008373ffffffffffffffffffffffffffffffffffffffff1673ffffffffffffffffffffffffffffffffffffffff168152602001908152602001600020547fffffffffffffffffffffffffffffffffffffffffffffffffffffffffffffffff613bc19190615c62565b811115613c03576040517f08c379a0000000000000000000000000000000000000000000000000000000008152600401613bfa906156e5565b60405180910390fd5b613c5581600160008573ffffffffffffffffffffffffffffffffffffffff1673ffffffffffffffffffffffffffffffffffffffff1681526020019081526020016000205461421990919063ffffffff16565b600160008473ffffffffffffffffffffffffffffffffffffffff1673ffffffffffffffffffffffffffffffffffffffff168152602001908152602001600020819055508173ffffffffffffffffffffffffffffffffffffffff16600073ffffffffffffffffffffffffffffffffffffffff167fddf252ad1be2c89b69c2b068fc378daa952ba7f163c4a11628f55a4df523b3ef83604051613cf691906158c9565b60405180910390a35050565b6000806064613d596006600086815260200190815260200160002060040160000160009054906101000a900460ff1660ff16600660008781526020019081526020016000206002015461428f90919063ffffffff16565b613d639190615a2b565b905060006064613dbb6006600087815260200190815260200160002060040160000160019054906101000a900460ff1660ff16600660008881526020019081526020016000206002015461428f90919063ffffffff16565b613dc59190615a2b565b905060006064613e1d6006600088815260200190815260200160002060040160000160029054906101000a900460ff1660ff16600660008981526020019081526020016000206002015461428f90919063ffffffff16565b613e279190615a2b565b905060006064613e7f6006600089815260200190815260200160002060040160000160039054906101000a900460ff1660ff16600660008a81526020019081526020016000206002015461428f90919063ffffffff16565b613e899190615a2b565b90506000806006600089815260200190815260200160002060050160039054906101000a900460ff1660ff16118015613ec5575060008b60ff16115b15613f1f576006600088815260200190815260200160002060050160039054906101000a900460ff1660ff16613f078c60ff168761428f90919063ffffffff16565b613f119190615a2b565b81613f1c919061599e565b90505b60006006600089815260200190815260200160002060050160029054906101000a900460ff1660ff16118015613f58575060008a60ff16115b15613fb2576006600088815260200190815260200160002060050160029054906101000a900460ff1660ff16613f9a8b60ff168661428f90919063ffffffff16565b613fa49190615a2b565b81613faf919061599e565b90505b60006006600089815260200190815260200160002060050160019054906101000a900460ff1660ff16118015613feb575060008960ff16115b15614045576006600088815260200190815260200160002060050160019054906101000a900460ff1660ff1661402d8a60ff168561428f90919063ffffffff16565b6140379190615a2b565b81614042919061599e565b90505b60006006600089815260200190815260200160002060050160009054906101000a900460ff1660ff1611801561407e575060008860ff16115b156140d8576006600088815260200190815260200160002060050160009054906101000a900460ff1660ff166140c08960ff168461428f90919063ffffffff16565b6140ca9190615a2b565b816140d5919061599e565b90505b809550505050505095945050505050565b600073ffffffffffffffffffffffffffffffffffffffff168173ffffffffffffffffffffffffffffffffffffffff161415614159576040517f08c379a0000000000000000000000000000000000000000000000000000000008152600401614150906155e5565b60405180910390fd5b8073ffffffffffffffffffffffffffffffffffffffff16600360009054906101000a900473ffffffffffffffffffffffffffffffffffffffff1673ffffffffffffffffffffffffffffffffffffffff167f8be0079c531659141344cd1fd0a4f28419497f9722a3daafe3b4186f6b6457e060405160405180910390a380600360006101000a81548173ffffffffffffffffffffffffffffffffffffffff021916908373ffffffffffffffffffffffffffffffffffffffff16021790555050565b6000828284614228919061599e565b915081101561426c576040517f08c379a000000000000000000000000000000000000000000000000000000000815260040161426390615625565b60405180910390fd5b92915050565b6000614287828461310b90919063ffffffff16565b905092915050565b60006142a482846142ac90919063ffffffff16565b905092915050565b6000808214806142d45750828283856142c59190615bcd565b9250826142d29190615a2b565b145b614313576040517f08c379a000000000000000000000000000000000000000000000000000000000815260040161430a90615605565b60405180910390fd5b92915050565b6040518060800160405280600060ff168152602001600060ff168152602001600060ff168152602001600060ff1681525090565b6040518060c0016040528060008152602001600073ffffffffffffffffffffffffffffffffffffffff1681526020016060815260200160608152602001600015158152602001600081525090565b604051806101400160405280600081526020016143b6614319565b815260200160008152602001606081526020016143d1614408565b8152602001600060ff168152602001600060ff168152602001600060ff168152602001600060ff1681526020016000151581525090565b6040518060800160405280600060ff168152602001600060ff168152602001600060ff168152602001600060ff1681525090565b60008135905061444b81615e8d565b92915050565b60008151905061446081615ea4565b92915050565b60008135905061447581615ebb565b92915050565b60008135905061448a81615ed2565b92915050565b60008151905061449f81615ed2565b92915050565b6000602082840312156144b757600080fd5b60006144c58482850161443c565b91505092915050565b600080604083850312156144e157600080fd5b60006144ef8582860161443c565b92505060206145008582860161443c565b9150509250929050565b60008060006060848603121561451f57600080fd5b600061452d8682870161443c565b935050602061453e8682870161443c565b925050604061454f86828701614466565b9150509250925092565b6000806040838503121561456c57600080fd5b600061457a8582860161443c565b925050602061458b85828601614466565b9150509250929050565b6000602082840312156145a757600080fd5b60006145b584828501614451565b91505092915050565b6000602082840312156145d057600080fd5b60006145de84828501614466565b91505092915050565b6000602082840312156145f957600080fd5b60006146078482850161447b565b91505092915050565b60006020828403121561462257600080fd5b600061463084828501614490565b91505092915050565b6000806000806080858703121561464f57600080fd5b600061465d8782880161447b565b945050602061466e8782880161447b565b935050604061467f8782880161447b565b92505060606146908782880161447b565b91505092959194509250565b60006146a88383615325565b60808301905092915050565b60006146c0838361543f565b60208301905092915050565b6146d581615c96565b82525050565b6146e481615c96565b82525050565b6146fb6146f682615c96565b615d9b565b82525050565b600061470c8261591f565b614716818561595a565b9350614721836158ff565b8060005b83811015614752578151614739888261469c565b975061474483615940565b925050600181019050614725565b5085935050505092915050565b600061476a8261591f565b614774818561596b565b935061477f836158ff565b8060005b838110156147b0578151614797888261469c565b97506147a283615940565b925050600181019050614783565b5085935050505092915050565b60006147c88261592a565b6147d2818561597c565b93506147dd8361590f565b8060005b8381101561480e5781516147f588826146b4565b97506148008361594d565b9250506001810190506147e1565b5085935050505092915050565b61482481615ca8565b82525050565b61483381615ca8565b82525050565b61484a61484582615cb4565b615dad565b82525050565b600061485b82615935565b614865818561598d565b9350614875818560208601615cf5565b61487e81615e62565b840191505092915050565b600061489660158361598d565b91507f64732d6d6174682d7375622d756e646572666c6f7700000000000000000000006000830152602082019050919050565b60006148d660608361598d565b91507f537761706966794c6f747465727953797374656d3a2052657761726420616d6f60008301527f756e7420636f756c64206e6f74206265206465706f736974656420746f20746860208301527f65204c6f747465727920636f6e747261637420666f722074686520726f756e646040830152606082019050919050565b600061496260318361598d565b91507f537761706966794c6f74746572795469636b657445524332303a20496e76616c60008301527f69642053656e64657220416464726573730000000000000000000000000000006020830152604082019050919050565b60006149c860268361598d565b91507f4f776e61626c653a206e6577206f776e657220697320746865207a65726f206160008301527f64647265737300000000000000000000000000000000000000000000000000006020830152604082019050919050565b6000614a2e60148361598d565b91507f64732d6d6174682d6d756c2d6f766572666c6f770000000000000000000000006000830152602082019050919050565b6000614a6e60148361598d565b91507f64732d6d6174682d6164642d6f766572666c6f770000000000000000000000006000830152602082019050919050565b6000614aae60218361598d565b91507f537761706966794c6f747465727953797374656d3a205a45524f5f414d4f554e60008301527f54000000000000000000000000000000000000000000000000000000000000006020830152604082019050919050565b6000614b1460448361598d565b91507f537761706966794c6f74746572795469636b657445524332303a206275726e2060008301527f616d6f756e7420657863656564732062616c616e6365206f662074686520686f60208301527f6c646572000000000000000000000000000000000000000000000000000000006040830152606082019050919050565b6000614ba060358361598d565b91507f537761706966794c6f74746572795469636b657445524332303a20496e73756660008301527f66696369656e7420746f74616c20737570706c792e00000000000000000000006020830152604082019050919050565b6000614c06600d8361598d565b91507f4164647265737320456d707479000000000000000000000000000000000000006000830152602082019050919050565b6000614c46603c8361598d565b91507f537761706966794c6f74746572795469636b657445524332303a207472616e7360008301527f66657220616d6f756e74206578636565647320616c6c6f77616e6365000000006020830152604082019050919050565b6000614cac60408361598d565b91507f537761706966794c6f74746572795469636b657445524332303a2042616c616e60008301527f6365206f66206d696e746572206578636565646564206d6178206c696d69742e6020830152604082019050919050565b6000614d1260228361598d565b91507f537761706966794c6f747465727953797374656d3a205a45524f5f414444524560008301527f53530000000000000000000000000000000000000000000000000000000000006020830152604082019050919050565b6000614d7860208361598d565b91507f4f776e61626c653a2063616c6c6572206973206e6f7420746865206f776e65726000830152602082019050919050565b6000614db860548361598d565b91507f537761706966794c6f747465727953797374656d3a2055736572207468656e2060008301527f68617320746f20706179206120636f737420696e20537761706966792c20746f60208301527f20707572636861736520746865207469636b65740000000000000000000000006040830152606082019050919050565b6000614e4460348361598d565b91507f537761706966794c6f74746572795469636b657445524332303a20496e76616c60008301527f696420526563697069656e7420416464726573730000000000000000000000006020830152604082019050919050565b6000614eaa601a8361598d565b91507f526174696f73206d7573742061646420757020746f20313030250000000000006000830152602082019050919050565b6000614eea60298361598d565b91507f537761706966794c6f747465727953797374656d3a2052657761726473205a4560008301527f524f5f414d4f554e5400000000000000000000000000000000000000000000006020830152604082019050919050565b6000614f50603b8361598d565b91507f537761706966794c6f74746572795469636b657445524332303a20546f74616c60008301527f20737570706c79206578636565646564206d6178206c696d69742e00000000006020830152604082019050919050565b6000614fb660448361598d565b91507f537761706966794c6f74746572795469636b657445524332303a205472616e7360008301527f66657220616d6f756e7420657863656564732062616c616e6365206f6620736560208301527f6e646572000000000000000000000000000000000000000000000000000000006040830152606082019050919050565b600061504260358361598d565b91507f537761706966794c6f74746572795469636b657445524332303a206275726e2060008301527f66726f6d20746865207a65726f206164647265737300000000000000000000006020830152604082019050919050565b60006150a860288361598d565b91507f537761706966794c6f747465727953797374656d3a205469636b6574205a455260008301527f4f5f414d4f554e540000000000000000000000000000000000000000000000006020830152604082019050919050565b600061510e60378361598d565b91507f537761706966794c6f747465727953797374656d3a20416d6f756e742069732060008301527f726571756972656420746f206d6f7265207468616e20300000000000000000006020830152604082019050919050565b600061517460418361598d565b91507f537761706966794c6f74746572795469636b657445524332303a20617070726f60008301527f766520746f2074686520696e76616c6964206f72207a65726f2061646472657360208301527f73000000000000000000000000000000000000000000000000000000000000006040830152606082019050919050565b608082016000820151615209600085018261543f565b50602082015161521c602085018261543f565b50604082015161522f604085018261543f565b506060820151615242606085018261543f565b50505050565b600061020083016000830151615261600086018261540a565b5060208301516152746020860182615325565b50604083015161528760a086018261540a565b50606083015184820360c086015261529f8282614701565b91505060808301516152b460e08601826151f3565b5060a08301516152c861016086018261543f565b5060c08301516152dc61018086018261543f565b5060e08301516152f06101a086018261543f565b506101008301516153056101c086018261543f565b5061012083015161531a6101e086018261481b565b508091505092915050565b60808201600082015161533b600085018261543f565b50602082015161534e602085018261543f565b506040820151615361604085018261543f565b506060820151615374606085018261543f565b50505050565b600060c083016000830151615392600086018261540a565b5060208301516153a560208601826146cc565b50604083015184820360408601526153bd8282614701565b915050606083015184820360608601526153d782826147bd565b91505060808301516153ec608086018261481b565b5060a08301516153ff60a086018261540a565b508091505092915050565b61541381615cde565b82525050565b61542281615cde565b82525050565b61543961543482615cde565b615dc9565b82525050565b61544881615ce8565b82525050565b61545781615ce8565b82525050565b60006154698287614839565b60208201915061547982866146ea565b6014820191506154898285615428565b6020820191506154998284615428565b60208201915081905095945050505050565b60006020820190506154c060008301846146db565b92915050565b60006060820190506154db60008301866146db565b6154e860208301856146db565b6154f56040830184615419565b949350505050565b600060408201905061551260008301856146db565b61551f6020830184615419565b9392505050565b60006020820190508181036000830152615540818461475f565b905092915050565b600060208201905061555d600083018461482a565b92915050565b6000602082019050818103600083015261557d8184614850565b905092915050565b6000602082019050818103600083015261559e81614889565b9050919050565b600060208201905081810360008301526155be816148c9565b9050919050565b600060208201905081810360008301526155de81614955565b9050919050565b600060208201905081810360008301526155fe816149bb565b9050919050565b6000602082019050818103600083015261561e81614a21565b9050919050565b6000602082019050818103600083015261563e81614a61565b9050919050565b6000602082019050818103600083015261565e81614aa1565b9050919050565b6000602082019050818103600083015261567e81614b07565b9050919050565b6000602082019050818103600083015261569e81614b93565b9050919050565b600060208201905081810360008301526156be81614bf9565b9050919050565b600060208201905081810360008301526156de81614c39565b9050919050565b600060208201905081810360008301526156fe81614c9f565b9050919050565b6000602082019050818103600083015261571e81614d05565b9050919050565b6000602082019050818103600083015261573e81614d6b565b9050919050565b6000602082019050818103600083015261575e81614dab565b9050919050565b6000602082019050818103600083015261577e81614e37565b9050919050565b6000602082019050818103600083015261579e81614e9d565b9050919050565b600060208201905081810360008301526157be81614edd565b9050919050565b600060208201905081810360008301526157de81614f43565b9050919050565b600060208201905081810360008301526157fe81614fa9565b9050919050565b6000602082019050818103600083015261581e81615035565b9050919050565b6000602082019050818103600083015261583e8161509b565b9050919050565b6000602082019050818103600083015261585e81615101565b9050919050565b6000602082019050818103600083015261587e81615167565b9050919050565b6000602082019050818103600083015261589f8184615248565b905092915050565b600060208201905081810360008301526158c1818461537a565b905092915050565b60006020820190506158de6000830184615419565b92915050565b60006020820190506158f9600083018461544e565b92915050565b6000819050602082019050919050565b6000819050602082019050919050565b600081519050919050565b600081519050919050565b600081519050919050565b6000602082019050919050565b6000602082019050919050565b600082825260208201905092915050565b600082825260208201905092915050565b600082825260208201905092915050565b600082825260208201905092915050565b60006159a982615cde565b91506159b483615cde565b9250827fffffffffffffffffffffffffffffffffffffffffffffffffffffffffffffffff038211156159e9576159e8615e04565b5b828201905092915050565b60006159ff82615ce8565b9150615a0a83615ce8565b92508260ff03821115615a2057615a1f615e04565b5b828201905092915050565b6000615a3682615cde565b9150615a4183615cde565b925082615a5157615a50615e33565b5b828204905092915050565b6000808291508390505b6001851115615aa657808604811115615a8257615a81615e04565b5b6001851615615a915780820291505b8081029050615a9f85615e80565b9450615a66565b94509492505050565b6000615aba82615cde565b9150615ac583615ce8565b9250615af27fffffffffffffffffffffffffffffffffffffffffffffffffffffffffffffffff8484615afa565b905092915050565b600082615b0a5760019050615bc6565b81615b185760009050615bc6565b8160018114615b2e5760028114615b3857615b67565b6001915050615bc6565b60ff841115615b4a57615b49615e04565b5b8360020a915084821115615b6157615b60615e04565b5b50615bc6565b5060208310610133831016604e8410600b8410161715615b9c5782820a905083811115615b9757615b96615e04565b5b615bc6565b615ba98484846001615a5c565b92509050818404811115615bc057615bbf615e04565b5b81810290505b9392505050565b6000615bd882615cde565b9150615be383615cde565b9250817fffffffffffffffffffffffffffffffffffffffffffffffffffffffffffffffff0483118215151615615c1c57615c1b615e04565b5b828202905092915050565b6000615c3282615ce8565b9150615c3d83615ce8565b92508160ff0483118215151615615c5757615c56615e04565b5b828202905092915050565b6000615c6d82615cde565b9150615c7883615cde565b925082821015615c8b57615c8a615e04565b5b828203905092915050565b6000615ca182615cbe565b9050919050565b60008115159050919050565b6000819050919050565b600073ffffffffffffffffffffffffffffffffffffffff82169050919050565b6000819050919050565b600060ff82169050919050565b60005b83811015615d13578082015181840152602081019050615cf8565b83811115615d22576000848401525b50505050565b6000615d3382615cde565b91507fffffffffffffffffffffffffffffffffffffffffffffffffffffffffffffffff821415615d6657615d65615e04565b5b600182019050919050565b6000615d7c82615ce8565b915060ff821415615d9057615d8f615e04565b5b600182019050919050565b6000615da682615db7565b9050919050565b6000819050919050565b6000615dc282615e73565b9050919050565b6000819050919050565b6000615dde82615cde565b9150615de983615cde565b925082615df957615df8615e33565b5b828206905092915050565b7f4e487b7100000000000000000000000000000000000000000000000000000000600052601160045260246000fd5b7f4e487b7100000000000000000000000000000000000000000000000000000000600052601260045260246000fd5b6000601f19601f8301169050919050565b60008160601b9050919050565b60008160011c9050919050565b615e9681615c96565b8114615ea157600080fd5b50565b615ead81615ca8565b8114615eb857600080fd5b50565b615ec481615cde565b8114615ecf57600080fd5b50565b615edb81615ce8565b8114615ee657600080fd5b5056fea26469706673582212202f92fd8a481ffc19381eb78679ed8441e776e314afafe48bad8e01de64c68d5c64736f6c63430008000033",
  "immutableReferences": {},
  "source": "// SPDX-License-Identifier: GPL-3.0-or-later\r\npragma solidity >=0.8.0;\r\n\r\nimport './Ownable.sol';\r\nimport './SwapifyLotteryTicketERC20.sol';\r\nimport './libraries/SafeMath.sol';\r\nimport './libraries/Decimal.sol';\r\n\r\ncontract SwapifyLotterySystem is SwapifyLotteryTicketERC20, Ownable {\r\n    using SafeMath  for uint;\r\n    using Decimal for uint;\r\n\r\n    struct Ticket{\r\n        uint8 position1;\r\n        uint8 position2;\r\n        uint8 position3;\r\n        uint8 position4;\r\n    }\r\n    struct RewardRatio {\r\n        uint8 matchAll;\r\n        uint8 match3;\r\n        uint8 match2;\r\n        uint8 match1;\r\n    }\r\n    struct UserData {\r\n        uint round;\r\n        address user;\r\n        Ticket[] tickets;\r\n        uint8[] boughtTickets;\r\n        bool claimed;\r\n        uint reward;\r\n    }\r\n    struct RoundData {\r\n        uint round;\r\n        Ticket winningNumbers;\r\n        uint reward;\r\n        Ticket[] tickets;\r\n        RewardRatio rewardRatio;\r\n        uint8 match1;\r\n        uint8 match2;\r\n        uint8 match3;\r\n        uint8 matchAll;\r\n        bool noMatch;\r\n    }\r\n    address public rewardsToken;\r\n\r\n    uint8 public rewardRatio = 4;\r\n    uint public currentRound;\r\n    mapping(uint => RoundData) internal roundHistory;\r\n    mapping(uint => mapping(address=> UserData)) internal userRoundData;\r\n    \r\n    uint internal nonce;\r\n\r\n    constructor(address _rewardsTokenAddress) {\r\n        rewardsToken = _rewardsTokenAddress;\r\n        currentRound = 1;\r\n        nonce = 7638264823492;\r\n        roundHistory[currentRound].rewardRatio.matchAll = 50;\r\n        roundHistory[currentRound].rewardRatio.match3 = 30;\r\n        roundHistory[currentRound].rewardRatio.match2 = 15;\r\n        roundHistory[currentRound].rewardRatio.match1 = 5;\r\n    }\r\n    /**\r\n     * @dev show the current round reward.  Return uint. \r\n     */\r\n    function currentReward() external view returns(uint) {\r\n        return roundHistory[currentRound].reward;\r\n    }\r\n    /**\r\n     * @dev shows array of tickets that are in current round.\r\n     */\r\n    function ticketsInCurrentRound() external view returns(Ticket[] memory) {\r\n        return roundHistory[currentRound].tickets;\r\n    }\r\n    /**\r\n     * @dev This function shows round data by round number\r\n     */\r\n    function getRoundHistory(uint round) external view returns(RoundData memory) {\r\n        return roundHistory[round];\r\n    }\r\n    /**\r\n     * @dev This function calculates rewards & show userdata\r\n     */\r\n    function getUserRoundData(address user, uint round) external view returns(UserData memory) {\r\n        uint totalRewards;\r\n        if(round < currentRound) {\r\n            uint8 matchAll; \r\n            uint8 match3; \r\n            uint8 match2; \r\n            uint8 match1;\r\n            \r\n            (matchAll, match3, match2, match1) = findWinningMatches(userRoundData[round][user].tickets, round);\r\n            totalRewards = calculateTotalRewardsToBeClaimed(matchAll, match3, match2, match1, round);\r\n        }\r\n        UserData memory userData = UserData({\r\n            round: userRoundData[round][user].round,\r\n            user: userRoundData[round][user].user,\r\n            tickets: new Ticket[](0),\r\n            boughtTickets: new uint8[](userRoundData[round][user].tickets.length * 4),\r\n            claimed: userRoundData[round][user].claimed,\r\n            reward: totalRewards\r\n        });\r\n        for(uint8 i=0; i < userRoundData[round][user].tickets.length; i++) {\r\n            userData.boughtTickets[i * 4 + 0] = userRoundData[round][user].tickets[i].position1;\r\n            userData.boughtTickets[i * 4 + 1] = userRoundData[round][user].tickets[i].position2;\r\n            userData.boughtTickets[i * 4 + 2] = userRoundData[round][user].tickets[i].position3;\r\n            userData.boughtTickets[i * 4 + 3] = userRoundData[round][user].tickets[i].position4;\r\n        }\r\n        return userData;\r\n    }\r\n    /**\r\n     * @dev mints SwapifyTICKET and sends it to the specified address.  \r\n     * This will be used in the DEX contract whenever trades get fulfilled.\r\n     */\r\n    function mintTickets(address user, uint swapifyLotteryTicketAmount) external {\r\n        require(user != address(0), 'SwapifyLotterySystem: ZERO_ADDRESS');\r\n        require(swapifyLotteryTicketAmount > 0, 'SwapifyLotterySystem: ZERO_AMOUNT');\r\n        _mint(user, swapifyLotteryTicketAmount);\r\n    }\r\n    /**\r\n     * @dev This function mints SwapifyTICKET and sends it to the specified address.\r\n     * User then has to pay a cost in Swapify, to purchase the ticket.  \r\n     * The Reward for the current round will increment by the amount of Swapifys that were sent to the contract.\r\n     * rewardsAmount is being ERC20 token that accepts 18 decimal points so value need to be sent as value * (10 ** 18)\r\n     * Swapify Ticket does not support any decimals so based on ratio set it accepts integral value only.\r\n     */\r\n    function buyTickets(address user, uint rewardsAmount) external {\r\n        require(user != address(0), 'SwapifyLotterySystem: ZERO_ADDRESS');\r\n        require(rewardsAmount > 0, 'SwapifyLotterySystem: Rewards ZERO_AMOUNT');\r\n        uint swapifyTicketAmount = (rewardsAmount / (10 ** IERC20(rewardsToken).decimals())) / rewardRatio;\r\n        require(swapifyTicketAmount > 0, 'SwapifyLotterySystem: Ticket ZERO_AMOUNT');\r\n        require(IERC20(rewardsToken).transferFrom(user, address(this), rewardsAmount), \r\n                                    'SwapifyLotterySystem: User then has to pay a cost in Swapify, to purchase the ticket');\r\n        _mint(user, swapifyTicketAmount);\r\n        roundHistory[currentRound].reward = roundHistory[currentRound].reward.decimalAddition(rewardsAmount);\r\n    }\r\n    /**\r\n     * @dev user will submit the amount of tickets (SWAPATICKETS) and they must have sufficient amount of tickets in their wallet. \r\n     * This will then create an entry with 4 random numbers between 0 - 9. \r\n     * Each ticket user submits grants them one entry with 4 different and random numbers between 0 - 9.\r\n     * User can only submit the amount of tickets that is equivalent to the amount of SWAPATICKETS they have in their wallet.  \r\n     * When user submits ticket(s), SWAPATICKETS get burnt in the process.\r\n     */\r\n    function submitTicket(address user, uint amount) external {\r\n        require(amount > 0, 'SwapifyLotterySystem: Amount is required to more than 0');\r\n        userRoundData[currentRound][user].round = currentRound;\r\n        userRoundData[currentRound][user].user = user;\r\n        for(uint i=0; i < amount; i++) {\r\n            Ticket memory ticket;\r\n            ticket.position1 = generateRandomNumber();\r\n            ticket.position2 = generateRandomNumber();\r\n            ticket.position3 = generateRandomNumber();\r\n            ticket.position4 = generateRandomNumber();\r\n\r\n            userRoundData[currentRound][user].tickets.push(ticket);\r\n            roundHistory[currentRound].tickets.push(ticket);\r\n        }\r\n        _burn(user, amount);\r\n    }\r\n    /**\r\n     * @dev Admin can only use this function.  Adds SWAPIFY rewards to the current round.\r\n     */\r\n    function addReward(uint rewardAmount) external onlyOwner {\r\n        require(IERC20(rewardsToken).transferFrom(owner(), address(this), rewardAmount), \r\n                        'SwapifyLotterySystem: Reward amount could not be deposited to the Lottery contract for the round');\r\n        roundHistory[currentRound].reward = roundHistory[currentRound].reward.decimalAddition(rewardAmount);\r\n    }\r\n    /**\r\n     * @dev Admin can change the reward ratio.\r\n     * This ratio represents how many SWAPAFY required to buy 1 SWAPATICKET\r\n     */\r\n    function setRewardRatio(uint8 ratio) external onlyOwner {\r\n        require(ratio > 0, 'SwapifyLotterySystem: ZERO_AMOUNT');\r\n        rewardRatio = ratio;\r\n    }\r\n    function setRewardToken(address _rewardsTokenAddress) external onlyOwner {\r\n        require(_rewardsTokenAddress != address(0), 'Address Empty');\r\n        rewardsToken = _rewardsTokenAddress;\r\n    }\r\n    /**\r\n     * @dev Admin draws the 4 winning numbers.  (Random numbers between 0-9).\r\n     * Stores data on chain and starts a new round. Updates the mapping for rounds.\r\n     * Only Admin can execute this function.\r\n     */\r\n    function drawWinningNumber() external onlyOwner {\r\n        roundHistory[currentRound].winningNumbers.position1 = generateRandomNumber();\r\n        roundHistory[currentRound].winningNumbers.position2 = generateRandomNumber();\r\n        roundHistory[currentRound].winningNumbers.position3 = generateRandomNumber();\r\n        roundHistory[currentRound].winningNumbers.position4 = generateRandomNumber();\r\n\r\n        (roundHistory[currentRound].matchAll,\r\n            roundHistory[currentRound].match3,\r\n            roundHistory[currentRound].match2,\r\n            roundHistory[currentRound].match1) = findWinningMatches(roundHistory[currentRound].tickets, currentRound);\r\n            \r\n        if(roundHistory[currentRound].match1 == 0 && roundHistory[currentRound].match2 == 0 && \r\n                    roundHistory[currentRound].match3 == 0 && roundHistory[currentRound].matchAll == 0) {\r\n            roundHistory[currentRound].noMatch = true;\r\n        }\r\n        currentRound++;\r\n        roundHistory[currentRound].round = currentRound;\r\n        roundHistory[currentRound].reward = calculateCarryForwardRewards(currentRound - 1);\r\n        roundHistory[currentRound].rewardRatio.matchAll = roundHistory[currentRound - 1].rewardRatio.matchAll;\r\n        roundHistory[currentRound].rewardRatio.match3 = roundHistory[currentRound - 1].rewardRatio.match3;\r\n        roundHistory[currentRound].rewardRatio.match2 = roundHistory[currentRound - 1].rewardRatio.match2;\r\n        roundHistory[currentRound].rewardRatio.match1 = roundHistory[currentRound - 1].rewardRatio.match1;\r\n    }\r\n    /**\r\n     * @dev set nonce for randomize ticket generation.\r\n     */\r\n    function setNonce(uint _nonce) external onlyOwner {\r\n        nonce = _nonce;\r\n    }\r\n    /**\r\n     * @dev updates the reward allocation ratio for each pool.  Ratios must add up to 1.  \r\n     * Example:  updateMatchPoolAllocation(0.5, 0.3, 0.15, 0.05)\r\n     */\r\n    function updateMatchPoolAllocation(uint8 matchAll, uint8 match3, uint8 match2, uint8 match1) external onlyOwner {\r\n        require(matchAll + match3 + match2 + match1 == 100, 'Ratios must add up to 100%');\r\n        roundHistory[currentRound].rewardRatio.matchAll = matchAll;\r\n        roundHistory[currentRound].rewardRatio.match3 = match3;\r\n        roundHistory[currentRound].rewardRatio.match2 = match2;\r\n        roundHistory[currentRound].rewardRatio.match1 = match1;\r\n    }\r\n    /**\r\n     * @dev claims rewards during the specified round if there are any to be claimed.\r\n     */\r\n    function claimRewards(address user, uint round) external {\r\n        uint8 matchAll; \r\n        uint8 match3; \r\n        uint8 match2; \r\n        uint8 match1;\r\n        \r\n        (matchAll, match3, match2, match1) = findWinningMatches(userRoundData[round][user].tickets, round);\r\n        uint totalRewards = calculateTotalRewardsToBeClaimed(matchAll, match3, match2, match1, round);\r\n        userRoundData[round][user].reward = totalRewards;\r\n        userRoundData[round][user].claimed = true;\r\n        IERC20(rewardsToken).transfer(user, totalRewards);\r\n    }\r\n    /**\r\n     * @dev Internal method. It finds number of different types of matches from list tickets in a specified round\r\n     */\r\n    function findWinningMatches(Ticket[] memory tickets, uint round) internal view returns \r\n                                                    (uint8 matchAll, uint8 match3, uint8 match2, uint8 match1) {\r\n        for(uint i=0; i < tickets.length; i++) {\r\n            if(tickets[i].position1 == roundHistory[round].winningNumbers.position1 &&\r\n                    tickets[i].position2 == roundHistory[round].winningNumbers.position2 &&\r\n                    tickets[i].position3 == roundHistory[round].winningNumbers.position3 &&\r\n                    tickets[i].position4 == roundHistory[round].winningNumbers.position4) {\r\n                matchAll++;\r\n            } else if(tickets[i].position1 == roundHistory[round].winningNumbers.position1 &&\r\n                    tickets[i].position2 == roundHistory[round].winningNumbers.position2 &&\r\n                    tickets[i].position3 == roundHistory[round].winningNumbers.position3) {\r\n                match3++;\r\n            } else if(tickets[i].position1 == roundHistory[round].winningNumbers.position1 &&\r\n                    tickets[i].position2 == roundHistory[round].winningNumbers.position2) {\r\n                match2++;\r\n            } else if(tickets[i].position1 == roundHistory[round].winningNumbers.position1) {\r\n                match1++;\r\n            }\r\n        }\r\n    }\r\n    /**\r\n     * @dev Internal function. It calculates carry forward not won rewards from previous round to next round.\r\n     */\r\n    function calculateCarryForwardRewards(uint round) internal view returns(uint) {\r\n        if(roundHistory[round].noMatch) {\r\n            return roundHistory[round].reward;\r\n        }\r\n\r\n        uint totalRewardToBeClaimed = calculateTotalRewardsToBeClaimed(roundHistory[round].matchAll, \r\n                                                                        roundHistory[round].match3,\r\n                                                                        roundHistory[round].match2,\r\n                                                                        roundHistory[round].match1, round);\r\n\r\n        return roundHistory[round].reward.decimalSubtraction(totalRewardToBeClaimed);\r\n    }\r\n    /**\r\n     * @dev Internal finction. It calculates total rewards that can be claimed by given number of matches for a specified round.\r\n     */\r\n    function calculateTotalRewardsToBeClaimed(uint8 matchAll, uint8 match3, uint8 match2, uint8 match1, uint round) internal view returns(uint) {\r\n        uint matchAllTotalReward = roundHistory[round].reward.uintMultiply(roundHistory[round].rewardRatio.matchAll) / 100;\r\n        uint match3TotalReward = roundHistory[round].reward.uintMultiply(roundHistory[round].rewardRatio.match3) / 100;\r\n        uint match2TotalReward = roundHistory[round].reward.uintMultiply(roundHistory[round].rewardRatio.match2) / 100;\r\n        uint match1TotalReward = roundHistory[round].reward.uintMultiply(roundHistory[round].rewardRatio.match1) / 100;\r\n\r\n        uint totalRewards = 0;\r\n\r\n        if(roundHistory[round].matchAll > 0 && matchAll > 0) {\r\n            totalRewards += matchAllTotalReward.uintMultiply(matchAll) / roundHistory[round].matchAll;\r\n        }\r\n        if(roundHistory[round].match3 > 0 && match3 > 0) {\r\n            totalRewards += match3TotalReward.uintMultiply(match3) / roundHistory[round].match3;\r\n        }\r\n        if(roundHistory[round].match2 > 0 && match2 > 0) {\r\n            totalRewards += match2TotalReward.uintMultiply(match2) / roundHistory[round].match2;\r\n        }\r\n        if(roundHistory[round].match1 > 0 && match1 > 0) {\r\n            totalRewards += match1TotalReward.uintMultiply(match1) / roundHistory[round].match1;\r\n        }\r\n\r\n        return totalRewards;\r\n    }\r\n    /**\r\n     * @dev Internal function. It generates random number based on set nonce\r\n     */\r\n    function generateRandomNumber() internal returns (uint8){\r\n        nonce += 3;\r\n        return uint8(uint(keccak256(abi.encodePacked(blockhash(block.number), msg.sender, block.timestamp, nonce))) % 10);\r\n    }\r\n}",
  "sourcePath": "C:/GitHub/Swapify-Lottery/contracts/SwapifyLotterySystem.sol",
  "compiler": {
    "name": "solc",
    "version": "0.8.0+commit.c7dfd78e.Emscripten.clang"
  },
  "schemaVersion": "3.4.1",
  "updatedAt": "2022-03-03T20:19:31.897Z",
  "networkType": "ethereum",
  "devdoc": {
    "kind": "dev",
    "methods": {
      "addReward(uint256)": {
        "details": "Admin can only use this function.  Adds SWAPIFY rewards to the current round."
      },
      "buyTickets(address,uint256)": {
        "details": "This function mints SwapifyTICKET and sends it to the specified address. User then has to pay a cost in Swapify, to purchase the ticket.   The Reward for the current round will increment by the amount of Swapifys that were sent to the contract. rewardsAmount is being ERC20 token that accepts 18 decimal points so value need to be sent as value * (10 ** 18) Swapify Ticket does not support any decimals so based on ratio set it accepts integral value only."
      },
      "claimRewards(address,uint256)": {
        "details": "claims rewards during the specified round if there are any to be claimed."
      },
      "currentReward()": {
        "details": "show the current round reward.  Return uint. "
      },
      "drawWinningNumber()": {
        "details": "Admin draws the 4 winning numbers.  (Random numbers between 0-9). Stores data on chain and starts a new round. Updates the mapping for rounds. Only Admin can execute this function."
      },
      "getRoundHistory(uint256)": {
        "details": "This function shows round data by round number"
      },
      "getUserRoundData(address,uint256)": {
        "details": "This function calculates rewards & show userdata"
      },
      "isOwner()": {
        "details": "Returns true if the caller is the current owner."
      },
      "mintTickets(address,uint256)": {
        "details": "mints SwapifyTICKET and sends it to the specified address.   This will be used in the DEX contract whenever trades get fulfilled."
      },
      "owner()": {
        "details": "Returns the address of the current owner."
      },
      "renounceOwnership()": {
        "details": "Leaves the contract without owner. It will not be possible to call `onlyOwner` functions anymore. Can only be called by the current owner. > Note: Renouncing ownership will leave the contract without an owner, thereby removing any functionality that is only available to the owner."
      },
      "setNonce(uint256)": {
        "details": "set nonce for randomize ticket generation."
      },
      "setRewardRatio(uint8)": {
        "details": "Admin can change the reward ratio. This ratio represents how many SWAPAFY required to buy 1 SWAPATICKET"
      },
      "submitTicket(address,uint256)": {
        "details": "user will submit the amount of tickets (SWAPATICKETS) and they must have sufficient amount of tickets in their wallet.  This will then create an entry with 4 random numbers between 0 - 9.  Each ticket user submits grants them one entry with 4 different and random numbers between 0 - 9. User can only submit the amount of tickets that is equivalent to the amount of SWAPATICKETS they have in their wallet.   When user submits ticket(s), SWAPATICKETS get burnt in the process."
      },
      "ticketsInCurrentRound()": {
        "details": "shows array of tickets that are in current round."
      },
      "transferOwnership(address)": {
        "details": "Transfers ownership of the contract to a new account (`newOwner`). Can only be called by the current owner."
      },
      "updateMatchPoolAllocation(uint8,uint8,uint8,uint8)": {
        "details": "updates the reward allocation ratio for each pool.  Ratios must add up to 1.   Example:  updateMatchPoolAllocation(0.5, 0.3, 0.15, 0.05)"
      }
    },
    "version": 1
  },
  "userdoc": {
    "kind": "user",
    "methods": {},
    "version": 1
  }
}