{
  "contractName": "SwapifyRewardsERC20Mock",
  "abi": [
    {
      "anonymous": false,
      "inputs": [
        {
          "indexed": true,
          "internalType": "address",
          "name": "owner",
          "type": "address"
        },
        {
          "indexed": true,
          "internalType": "address",
          "name": "spender",
          "type": "address"
        },
        {
          "indexed": false,
          "internalType": "uint256",
          "name": "value",
          "type": "uint256"
        }
      ],
      "name": "Approval",
      "type": "event"
    },
    {
      "anonymous": false,
      "inputs": [
        {
          "indexed": true,
          "internalType": "address",
          "name": "previousOwner",
          "type": "address"
        },
        {
          "indexed": true,
          "internalType": "address",
          "name": "newOwner",
          "type": "address"
        }
      ],
      "name": "OwnershipTransferred",
      "type": "event"
    },
    {
      "anonymous": false,
      "inputs": [
        {
          "indexed": true,
          "internalType": "address",
          "name": "from",
          "type": "address"
        },
        {
          "indexed": true,
          "internalType": "address",
          "name": "to",
          "type": "address"
        },
        {
          "indexed": false,
          "internalType": "uint256",
          "name": "value",
          "type": "uint256"
        }
      ],
      "name": "Transfer",
      "type": "event"
    },
    {
      "inputs": [
        {
          "internalType": "address",
          "name": "",
          "type": "address"
        },
        {
          "internalType": "address",
          "name": "",
          "type": "address"
        }
      ],
      "name": "allowance",
      "outputs": [
        {
          "internalType": "uint256",
          "name": "",
          "type": "uint256"
        }
      ],
      "stateMutability": "view",
      "type": "function"
    },
    {
      "inputs": [
        {
          "internalType": "address",
          "name": "",
          "type": "address"
        }
      ],
      "name": "balanceOf",
      "outputs": [
        {
          "internalType": "uint256",
          "name": "",
          "type": "uint256"
        }
      ],
      "stateMutability": "view",
      "type": "function"
    },
    {
      "inputs": [],
      "name": "decimals",
      "outputs": [
        {
          "internalType": "uint8",
          "name": "",
          "type": "uint8"
        }
      ],
      "stateMutability": "view",
      "type": "function"
    },
    {
      "inputs": [],
      "name": "isOwner",
      "outputs": [
        {
          "internalType": "bool",
          "name": "",
          "type": "bool"
        }
      ],
      "stateMutability": "view",
      "type": "function"
    },
    {
      "inputs": [],
      "name": "name",
      "outputs": [
        {
          "internalType": "string",
          "name": "",
          "type": "string"
        }
      ],
      "stateMutability": "view",
      "type": "function"
    },
    {
      "inputs": [],
      "name": "owner",
      "outputs": [
        {
          "internalType": "address",
          "name": "",
          "type": "address"
        }
      ],
      "stateMutability": "view",
      "type": "function"
    },
    {
      "inputs": [],
      "name": "renounceOwnership",
      "outputs": [],
      "stateMutability": "nonpayable",
      "type": "function"
    },
    {
      "inputs": [],
      "name": "symbol",
      "outputs": [
        {
          "internalType": "string",
          "name": "",
          "type": "string"
        }
      ],
      "stateMutability": "view",
      "type": "function"
    },
    {
      "inputs": [],
      "name": "totalSupply",
      "outputs": [
        {
          "internalType": "uint256",
          "name": "",
          "type": "uint256"
        }
      ],
      "stateMutability": "view",
      "type": "function"
    },
    {
      "inputs": [
        {
          "internalType": "address",
          "name": "newOwner",
          "type": "address"
        }
      ],
      "name": "transferOwnership",
      "outputs": [],
      "stateMutability": "nonpayable",
      "type": "function"
    },
    {
      "inputs": [
        {
          "internalType": "address",
          "name": "to",
          "type": "address"
        },
        {
          "internalType": "uint256",
          "name": "value",
          "type": "uint256"
        }
      ],
      "name": "mint",
      "outputs": [],
      "stateMutability": "nonpayable",
      "type": "function"
    },
    {
      "inputs": [
        {
          "internalType": "address",
          "name": "from",
          "type": "address"
        },
        {
          "internalType": "uint256",
          "name": "value",
          "type": "uint256"
        }
      ],
      "name": "burn",
      "outputs": [],
      "stateMutability": "nonpayable",
      "type": "function"
    },
    {
      "inputs": [
        {
          "internalType": "address",
          "name": "owner",
          "type": "address"
        },
        {
          "internalType": "address",
          "name": "spender",
          "type": "address"
        },
        {
          "internalType": "uint256",
          "name": "value",
          "type": "uint256"
        }
      ],
      "name": "approve",
      "outputs": [
        {
          "internalType": "bool",
          "name": "",
          "type": "bool"
        }
      ],
      "stateMutability": "nonpayable",
      "type": "function"
    },
    {
      "inputs": [
        {
          "internalType": "address",
          "name": "to",
          "type": "address"
        },
        {
          "internalType": "uint256",
          "name": "value",
          "type": "uint256"
        }
      ],
      "name": "transfer",
      "outputs": [
        {
          "internalType": "bool",
          "name": "",
          "type": "bool"
        }
      ],
      "stateMutability": "nonpayable",
      "type": "function"
    },
    {
      "inputs": [
        {
          "internalType": "address",
          "name": "from",
          "type": "address"
        },
        {
          "internalType": "address",
          "name": "to",
          "type": "address"
        },
        {
          "internalType": "uint256",
          "name": "value",
          "type": "uint256"
        }
      ],
      "name": "transferFrom",
      "outputs": [
        {
          "internalType": "bool",
          "name": "",
          "type": "bool"
        }
      ],
      "stateMutability": "nonpayable",
      "type": "function"
    }
  ],
  "bytecode": "0x608060405234801561001057600080fd5b50326000806101000a81548173ffffffffffffffffffffffffffffffffffffffff021916908373ffffffffffffffffffffffffffffffffffffffff16021790555060008054906101000a900473ffffffffffffffffffffffffffffffffffffffff1673ffffffffffffffffffffffffffffffffffffffff16600073ffffffffffffffffffffffffffffffffffffffff167f8be0079c531659141344cd1fd0a4f28419497f9722a3daafe3b4186f6b6457e060405160405180910390a3611e5e806100db6000396000f3fe608060405234801561001057600080fd5b50600436106100f55760003560e01c80638da5cb5b11610097578063a9059cbb11610066578063a9059cbb14610250578063dd62ed3e14610280578063e1f21c67146102b0578063f2fde38b146102e0576100f5565b80638da5cb5b146101da5780638f32d59b146101f857806395d89b41146102165780639dc29fac14610234576100f5565b8063313ce567116100d3578063313ce5671461016657806340c10f191461018457806370a08231146101a0578063715018a6146101d0576100f5565b806306fdde03146100fa57806318160ddd1461011857806323b872dd14610136575b600080fd5b6101026102fc565b60405161010f9190611a74565b60405180910390f35b610120610335565b60405161012d9190611c56565b60405180910390f35b610150600480360381019061014b919061141c565b61033b565b60405161015d9190611a59565b60405180910390f35b61016e6105c5565b60405161017b9190611c71565b60405180910390f35b61019e6004803603810190610199919061146b565b6105ca565b005b6101ba60048036038101906101b591906113b7565b610848565b6040516101c79190611c56565b60405180910390f35b6101d8610860565b005b6101e2610965565b6040516101ef9190611a3e565b60405180910390f35b61020061098e565b60405161020d9190611a59565b60405180910390f35b61021e6109e5565b60405161022b9190611a74565b60405180910390f35b61024e6004803603810190610249919061146b565b610a1e565b005b61026a6004803603810190610265919061146b565b610cb6565b6040516102779190611a59565b60405180910390f35b61029a600480360381019061029591906113e0565b610ccd565b6040516102a79190611c56565b60405180910390f35b6102ca60048036038101906102c5919061141c565b610cf2565b6040516102d79190611a59565b60405180910390f35b6102fa60048036038101906102f591906113b7565b610d0a565b005b6040518060400160405280601581526020017f53776170696679205265776172647320546f6b656e000000000000000000000081525081565b60015481565b600081600360008673ffffffffffffffffffffffffffffffffffffffff1673ffffffffffffffffffffffffffffffffffffffff16815260200190815260200160002060003373ffffffffffffffffffffffffffffffffffffffff1673ffffffffffffffffffffffffffffffffffffffff1681526020019081526020016000205410156103fc576040517f08c379a00000000000000000000000000000000000000000000000000000000081526004016103f390611c16565b60405180910390fd5b7fffffffffffffffffffffffffffffffffffffffffffffffffffffffffffffffff600360008673ffffffffffffffffffffffffffffffffffffffff1673ffffffffffffffffffffffffffffffffffffffff16815260200190815260200160002060003373ffffffffffffffffffffffffffffffffffffffff1673ffffffffffffffffffffffffffffffffffffffff16815260200190815260200160002054146105af5761052e82600360008773ffffffffffffffffffffffffffffffffffffffff1673ffffffffffffffffffffffffffffffffffffffff16815260200190815260200160002060003373ffffffffffffffffffffffffffffffffffffffff1673ffffffffffffffffffffffffffffffffffffffff16815260200190815260200160002054610d5d90919063ffffffff16565b600360008673ffffffffffffffffffffffffffffffffffffffff1673ffffffffffffffffffffffffffffffffffffffff16815260200190815260200160002060003373ffffffffffffffffffffffffffffffffffffffff1673ffffffffffffffffffffffffffffffffffffffff168152602001908152602001600020819055505b6105ba848484610db6565b600190509392505050565b601281565b6105d261098e565b610611576040517f08c379a000000000000000000000000000000000000000000000000000000000815260040161060890611bb6565b60405180910390fd5b6001547fffffffffffffffffffffffffffffffffffffffffffffffffffffffffffffffff61063f9190611cfe565b811115610681576040517f08c379a000000000000000000000000000000000000000000000000000000000815260040161067890611b56565b60405180910390fd5b610696816001546110ac90919063ffffffff16565b600181905550600260008373ffffffffffffffffffffffffffffffffffffffff1673ffffffffffffffffffffffffffffffffffffffff168152602001908152602001600020547fffffffffffffffffffffffffffffffffffffffffffffffffffffffffffffffff6107079190611cfe565b811115610749576040517f08c379a000000000000000000000000000000000000000000000000000000000815260040161074090611c36565b60405180910390fd5b61079b81600260008573ffffffffffffffffffffffffffffffffffffffff1673ffffffffffffffffffffffffffffffffffffffff168152602001908152602001600020546110ac90919063ffffffff16565b600260008473ffffffffffffffffffffffffffffffffffffffff1673ffffffffffffffffffffffffffffffffffffffff168152602001908152602001600020819055508173ffffffffffffffffffffffffffffffffffffffff16600073ffffffffffffffffffffffffffffffffffffffff167fddf252ad1be2c89b69c2b068fc378daa952ba7f163c4a11628f55a4df523b3ef8360405161083c9190611c56565b60405180910390a35050565b60026020528060005260406000206000915090505481565b61086861098e565b6108a7576040517f08c379a000000000000000000000000000000000000000000000000000000000815260040161089e90611bb6565b60405180910390fd5b600073ffffffffffffffffffffffffffffffffffffffff1660008054906101000a900473ffffffffffffffffffffffffffffffffffffffff1673ffffffffffffffffffffffffffffffffffffffff167f8be0079c531659141344cd1fd0a4f28419497f9722a3daafe3b4186f6b6457e060405160405180910390a360008060006101000a81548173ffffffffffffffffffffffffffffffffffffffff021916908373ffffffffffffffffffffffffffffffffffffffff160217905550565b60008060009054906101000a900473ffffffffffffffffffffffffffffffffffffffff16905090565b60008060009054906101000a900473ffffffffffffffffffffffffffffffffffffffff1673ffffffffffffffffffffffffffffffffffffffff163373ffffffffffffffffffffffffffffffffffffffff1614905090565b6040518060400160405280600781526020017f535741504946590000000000000000000000000000000000000000000000000081525081565b610a2661098e565b610a65576040517f08c379a0000000000000000000000000000000000000000000000000000000008152600401610a5c90611bb6565b60405180910390fd5b600073ffffffffffffffffffffffffffffffffffffffff168273ffffffffffffffffffffffffffffffffffffffff161415610ad5576040517f08c379a0000000000000000000000000000000000000000000000000000000008152600401610acc90611bd6565b60405180910390fd5b80600260008473ffffffffffffffffffffffffffffffffffffffff1673ffffffffffffffffffffffffffffffffffffffff168152602001908152602001600020541015610b57576040517f08c379a0000000000000000000000000000000000000000000000000000000008152600401610b4e90611af6565b60405180910390fd5b610ba981600260008573ffffffffffffffffffffffffffffffffffffffff1673ffffffffffffffffffffffffffffffffffffffff16815260200190815260200160002054610d5d90919063ffffffff16565b600260008473ffffffffffffffffffffffffffffffffffffffff1673ffffffffffffffffffffffffffffffffffffffff16815260200190815260200160002081905550600154811115610c31576040517f08c379a0000000000000000000000000000000000000000000000000000000008152600401610c2890611b76565b60405180910390fd5b610c4681600154610d5d90919063ffffffff16565b600181905550600073ffffffffffffffffffffffffffffffffffffffff168273ffffffffffffffffffffffffffffffffffffffff167fddf252ad1be2c89b69c2b068fc378daa952ba7f163c4a11628f55a4df523b3ef83604051610caa9190611c56565b60405180910390a35050565b6000610cc3338484610db6565b6001905092915050565b6003602052816000526040600020602052806000526040600020600091509150505481565b6000610cff848484611105565b600190509392505050565b610d1261098e565b610d51576040517f08c379a0000000000000000000000000000000000000000000000000000000008152600401610d4890611bb6565b60405180910390fd5b610d5a81611260565b50565b6000828284610d6c9190611cfe565b9150811115610db0576040517f08c379a0000000000000000000000000000000000000000000000000000000008152600401610da790611a96565b60405180910390fd5b92915050565b600073ffffffffffffffffffffffffffffffffffffffff168373ffffffffffffffffffffffffffffffffffffffff161415610e26576040517f08c379a0000000000000000000000000000000000000000000000000000000008152600401610e1d90611ab6565b60405180910390fd5b600073ffffffffffffffffffffffffffffffffffffffff168273ffffffffffffffffffffffffffffffffffffffff161415610e96576040517f08c379a0000000000000000000000000000000000000000000000000000000008152600401610e8d90611ad6565b60405180910390fd5b80600260008573ffffffffffffffffffffffffffffffffffffffff1673ffffffffffffffffffffffffffffffffffffffff168152602001908152602001600020541015610f18576040517f08c379a0000000000000000000000000000000000000000000000000000000008152600401610f0f90611b96565b60405180910390fd5b610f6a81600260008673ffffffffffffffffffffffffffffffffffffffff1673ffffffffffffffffffffffffffffffffffffffff16815260200190815260200160002054610d5d90919063ffffffff16565b600260008573ffffffffffffffffffffffffffffffffffffffff1673ffffffffffffffffffffffffffffffffffffffff16815260200190815260200160002081905550610fff81600260008573ffffffffffffffffffffffffffffffffffffffff1673ffffffffffffffffffffffffffffffffffffffff168152602001908152602001600020546110ac90919063ffffffff16565b600260008473ffffffffffffffffffffffffffffffffffffffff1673ffffffffffffffffffffffffffffffffffffffff168152602001908152602001600020819055508173ffffffffffffffffffffffffffffffffffffffff168373ffffffffffffffffffffffffffffffffffffffff167fddf252ad1be2c89b69c2b068fc378daa952ba7f163c4a11628f55a4df523b3ef8360405161109f9190611c56565b60405180910390a3505050565b60008282846110bb9190611ca8565b91508110156110ff576040517f08c379a00000000000000000000000000000000000000000000000000000000081526004016110f690611b36565b60405180910390fd5b92915050565b600073ffffffffffffffffffffffffffffffffffffffff168273ffffffffffffffffffffffffffffffffffffffff161415611175576040517f08c379a000000000000000000000000000000000000000000000000000000000815260040161116c90611bf6565b60405180910390fd5b80600360008573ffffffffffffffffffffffffffffffffffffffff1673ffffffffffffffffffffffffffffffffffffffff16815260200190815260200160002060008473ffffffffffffffffffffffffffffffffffffffff1673ffffffffffffffffffffffffffffffffffffffff168152602001908152602001600020819055508173ffffffffffffffffffffffffffffffffffffffff168373ffffffffffffffffffffffffffffffffffffffff167f8c5be1e5ebec7d5bd14f71427d1e84f3dd0314c0f7b2291e5b200ac8c7c3b925836040516112539190611c56565b60405180910390a3505050565b600073ffffffffffffffffffffffffffffffffffffffff168173ffffffffffffffffffffffffffffffffffffffff1614156112d0576040517f08c379a00000000000000000000000000000000000000000000000000000000081526004016112c790611b16565b60405180910390fd5b8073ffffffffffffffffffffffffffffffffffffffff1660008054906101000a900473ffffffffffffffffffffffffffffffffffffffff1673ffffffffffffffffffffffffffffffffffffffff167f8be0079c531659141344cd1fd0a4f28419497f9722a3daafe3b4186f6b6457e060405160405180910390a3806000806101000a81548173ffffffffffffffffffffffffffffffffffffffff021916908373ffffffffffffffffffffffffffffffffffffffff16021790555050565b60008135905061139c81611dfa565b92915050565b6000813590506113b181611e11565b92915050565b6000602082840312156113c957600080fd5b60006113d78482850161138d565b91505092915050565b600080604083850312156113f357600080fd5b60006114018582860161138d565b92505060206114128582860161138d565b9150509250929050565b60008060006060848603121561143157600080fd5b600061143f8682870161138d565b93505060206114508682870161138d565b9250506040611461868287016113a2565b9150509250925092565b6000806040838503121561147e57600080fd5b600061148c8582860161138d565b925050602061149d858286016113a2565b9150509250929050565b6114b081611d32565b82525050565b6114bf81611d44565b82525050565b60006114d082611c8c565b6114da8185611c97565b93506114ea818560208601611d87565b6114f381611de9565b840191505092915050565b600061150b601583611c97565b91507f64732d6d6174682d7375622d756e646572666c6f7700000000000000000000006000830152602082019050919050565b600061154b602b83611c97565b91507f537761706966795265776172647345524332303a20496e76616c69642053656e60008301527f64657220416464726573730000000000000000000000000000000000000000006020830152604082019050919050565b60006115b1602e83611c97565b91507f537761706966795265776172647345524332303a20496e76616c69642052656360008301527f697069656e7420416464726573730000000000000000000000000000000000006020830152604082019050919050565b6000611617603e83611c97565b91507f537761706966795265776172647345524332303a206275726e20616d6f756e7460008301527f20657863656564732062616c616e6365206f662074686520686f6c64657200006020830152604082019050919050565b600061167d602683611c97565b91507f4f776e61626c653a206e6577206f776e657220697320746865207a65726f206160008301527f64647265737300000000000000000000000000000000000000000000000000006020830152604082019050919050565b60006116e3601483611c97565b91507f64732d6d6174682d6164642d6f766572666c6f770000000000000000000000006000830152602082019050919050565b6000611723603583611c97565b91507f537761706966795265776172647345524332303a20546f74616c20737570706c60008301527f79206578636565646564206d6178206c696d69742e00000000000000000000006020830152604082019050919050565b6000611789602f83611c97565b91507f537761706966795265776172647345524332303a20496e73756666696369656e60008301527f7420746f74616c20737570706c792e00000000000000000000000000000000006020830152604082019050919050565b60006117ef603e83611c97565b91507f537761706966795265776172647345524332303a205472616e7366657220616d60008301527f6f756e7420657863656564732062616c616e6365206f662073656e64657200006020830152604082019050919050565b6000611855602083611c97565b91507f4f776e61626c653a2063616c6c6572206973206e6f7420746865206f776e65726000830152602082019050919050565b6000611895602f83611c97565b91507f537761706966795265776172647345524332303a206275726e2066726f6d207460008301527f6865207a65726f206164647265737300000000000000000000000000000000006020830152604082019050919050565b60006118fb603b83611c97565b91507f537761706966795265776172647345524332303a20617070726f766520746f2060008301527f74686520696e76616c6964206f72207a65726f206164647265737300000000006020830152604082019050919050565b6000611961603683611c97565b91507f537761706966795265776172647345524332303a207472616e7366657220616d60008301527f6f756e74206578636565647320616c6c6f77616e6365000000000000000000006020830152604082019050919050565b60006119c7603a83611c97565b91507f537761706966795265776172647345524332303a2042616c616e6365206f662060008301527f6d696e746572206578636565646564206d6178206c696d69742e0000000000006020830152604082019050919050565b611a2981611d70565b82525050565b611a3881611d7a565b82525050565b6000602082019050611a5360008301846114a7565b92915050565b6000602082019050611a6e60008301846114b6565b92915050565b60006020820190508181036000830152611a8e81846114c5565b905092915050565b60006020820190508181036000830152611aaf816114fe565b9050919050565b60006020820190508181036000830152611acf8161153e565b9050919050565b60006020820190508181036000830152611aef816115a4565b9050919050565b60006020820190508181036000830152611b0f8161160a565b9050919050565b60006020820190508181036000830152611b2f81611670565b9050919050565b60006020820190508181036000830152611b4f816116d6565b9050919050565b60006020820190508181036000830152611b6f81611716565b9050919050565b60006020820190508181036000830152611b8f8161177c565b9050919050565b60006020820190508181036000830152611baf816117e2565b9050919050565b60006020820190508181036000830152611bcf81611848565b9050919050565b60006020820190508181036000830152611bef81611888565b9050919050565b60006020820190508181036000830152611c0f816118ee565b9050919050565b60006020820190508181036000830152611c2f81611954565b9050919050565b60006020820190508181036000830152611c4f816119ba565b9050919050565b6000602082019050611c6b6000830184611a20565b92915050565b6000602082019050611c866000830184611a2f565b92915050565b600081519050919050565b600082825260208201905092915050565b6000611cb382611d70565b9150611cbe83611d70565b9250827fffffffffffffffffffffffffffffffffffffffffffffffffffffffffffffffff03821115611cf357611cf2611dba565b5b828201905092915050565b6000611d0982611d70565b9150611d1483611d70565b925082821015611d2757611d26611dba565b5b828203905092915050565b6000611d3d82611d50565b9050919050565b60008115159050919050565b600073ffffffffffffffffffffffffffffffffffffffff82169050919050565b6000819050919050565b600060ff82169050919050565b60005b83811015611da5578082015181840152602081019050611d8a565b83811115611db4576000848401525b50505050565b7f4e487b7100000000000000000000000000000000000000000000000000000000600052601160045260246000fd5b6000601f19601f8301169050919050565b611e0381611d32565b8114611e0e57600080fd5b50565b611e1a81611d70565b8114611e2557600080fd5b5056fea2646970667358221220e462aacb563a7f7d4eec60e4504abbe6ba6e26c58a790c7d4989db933cd6268564736f6c63430008000033",
  "immutableReferences": {},
  "source": "// SPDX-License-Identifier: GPL-3.0-or-later\r\npragma solidity >=0.8.0;\r\n\r\nimport '../Ownable.sol';\r\nimport '../interfaces/IERC20.sol';\r\nimport '../libraries/SafeMath.sol';\r\n\r\ncontract SwapifyRewardsERC20Mock is Ownable {\r\n    using SafeMath for uint;\r\n\r\n    string public constant name = 'Swapify Rewards Token';\r\n    string public constant symbol = 'SWAPIFY';\r\n    uint8 public constant decimals = 18;\r\n    uint public totalSupply;\r\n    mapping(address => uint) public balanceOf;\r\n    mapping(address => mapping(address => uint)) public allowance;\r\n\r\n    event Approval(address indexed owner, address indexed spender, uint value);\r\n    event Transfer(address indexed from, address indexed to, uint value);\r\n\r\n    /**\r\n     * @dev this internal function mints token to given address\r\n     */\r\n    function mint(address to, uint value) external onlyOwner {\r\n        require(value <= type(uint).max - totalSupply, \"SwapifyRewardsERC20: Total supply exceeded max limit.\");\r\n        totalSupply = totalSupply.add(value);\r\n        require(value <= type(uint).max - balanceOf[to], \"SwapifyRewardsERC20: Balance of minter exceeded max limit.\");\r\n        balanceOf[to] = balanceOf[to].add(value);\r\n        emit Transfer(address(0), to, value);\r\n    }\r\n    /**\r\n     * @dev this internal function burns rewards token from the given address\r\n     */\r\n    function burn(address from, uint value) external onlyOwner {\r\n        require(from != address(0), \"SwapifyRewardsERC20: burn from the zero address\");\r\n        require(balanceOf[from] >= value, \"SwapifyRewardsERC20: burn amount exceeds balance of the holder\");\r\n        balanceOf[from] = balanceOf[from].sub(value);\r\n        require(value <= totalSupply, \"SwapifyRewardsERC20: Insufficient total supply.\");\r\n        totalSupply = totalSupply.sub(value);\r\n        emit Transfer(from, address(0), value);\r\n    }\r\n\r\n    function _approve(address owner, address spender, uint value) private {\r\n        require(spender != address(0), \"SwapifyRewardsERC20: approve to the invalid or zero address\");\r\n        allowance[owner][spender] = value;\r\n        emit Approval(owner, spender, value);\r\n    }\r\n\r\n    function _transfer(address from, address to, uint value) private {\r\n        require(from != address(0), \"SwapifyRewardsERC20: Invalid Sender Address\");\r\n        require(to != address(0), \"SwapifyRewardsERC20: Invalid Recipient Address\");\r\n        require(balanceOf[from] >= value, \"SwapifyRewardsERC20: Transfer amount exceeds balance of sender\");\r\n        balanceOf[from] = balanceOf[from].sub(value);\r\n        balanceOf[to] = balanceOf[to].add(value);\r\n        emit Transfer(from, to, value);\r\n    }\r\n\r\n    function approve(address owner, address spender, uint value) external returns (bool) {\r\n        _approve(owner, spender, value);\r\n        return true;\r\n    }\r\n\r\n    function transfer(address to, uint value) external returns (bool) {\r\n        _transfer(msg.sender, to, value);\r\n        return true;\r\n    }\r\n\r\n    function transferFrom(address from, address to, uint value) external returns (bool) {\r\n        require(allowance[from][msg.sender] >= value, \"SwapifyRewardsERC20: transfer amount exceeds allowance\");\r\n        if (allowance[from][msg.sender] != type(uint).max) {\r\n            allowance[from][msg.sender] = allowance[from][msg.sender].sub(value);\r\n        }\r\n        _transfer(from, to, value);\r\n        return true;\r\n    }\r\n}",
  "sourcePath": "C:/GitHub/Swapify-Lottery/contracts/test/SwapifyRewardsERC20Mock.sol",
  "compiler": {
    "name": "solc",
    "version": "0.8.0+commit.c7dfd78e.Emscripten.clang"
  },
  "schemaVersion": "3.4.1",
  "updatedAt": "2022-03-21T21:36:30.602Z",
  "devdoc": {
    "kind": "dev",
    "methods": {
      "burn(address,uint256)": {
        "details": "this internal function burns rewards token from the given address"
      },
      "isOwner()": {
        "details": "Returns true if the caller is the current owner."
      },
      "mint(address,uint256)": {
        "details": "this internal function mints token to given address"
      },
      "owner()": {
        "details": "Returns the address of the current owner."
      },
      "renounceOwnership()": {
        "details": "Leaves the contract without owner. It will not be possible to call `onlyOwner` functions anymore. Can only be called by the current owner. > Note: Renouncing ownership will leave the contract without an owner, thereby removing any functionality that is only available to the owner."
      },
      "transferOwnership(address)": {
        "details": "Transfers ownership of the contract to a new account (`newOwner`). Can only be called by the current owner."
      }
    },
    "version": 1
  },
  "userdoc": {
    "kind": "user",
    "methods": {},
    "version": 1
  }
}