{
  "contractName": "SwapifyLotterySystem",
  "abi": [
    {
      "inputs": [
        {
          "internalType": "address",
          "name": "_rewardsTokenAddress",
          "type": "address"
        }
      ],
      "stateMutability": "nonpayable",
      "type": "constructor"
    },
    {
      "anonymous": false,
      "inputs": [
        {
          "indexed": true,
          "internalType": "address",
          "name": "owner",
          "type": "address"
        },
        {
          "indexed": true,
          "internalType": "address",
          "name": "spender",
          "type": "address"
        },
        {
          "indexed": false,
          "internalType": "uint256",
          "name": "value",
          "type": "uint256"
        }
      ],
      "name": "Approval",
      "type": "event"
    },
    {
      "anonymous": false,
      "inputs": [
        {
          "indexed": true,
          "internalType": "address",
          "name": "previousOwner",
          "type": "address"
        },
        {
          "indexed": true,
          "internalType": "address",
          "name": "newOwner",
          "type": "address"
        }
      ],
      "name": "OwnershipTransferred",
      "type": "event"
    },
    {
      "anonymous": false,
      "inputs": [
        {
          "indexed": true,
          "internalType": "address",
          "name": "from",
          "type": "address"
        },
        {
          "indexed": true,
          "internalType": "address",
          "name": "to",
          "type": "address"
        },
        {
          "indexed": false,
          "internalType": "uint256",
          "name": "value",
          "type": "uint256"
        }
      ],
      "name": "Transfer",
      "type": "event"
    },
    {
      "inputs": [
        {
          "internalType": "address",
          "name": "_account",
          "type": "address"
        }
      ],
      "name": "addPermittedAccount",
      "outputs": [],
      "stateMutability": "nonpayable",
      "type": "function"
    },
    {
      "inputs": [
        {
          "internalType": "address",
          "name": "",
          "type": "address"
        },
        {
          "internalType": "address",
          "name": "",
          "type": "address"
        }
      ],
      "name": "allowance",
      "outputs": [
        {
          "internalType": "uint256",
          "name": "",
          "type": "uint256"
        }
      ],
      "stateMutability": "view",
      "type": "function"
    },
    {
      "inputs": [
        {
          "internalType": "address",
          "name": "spender",
          "type": "address"
        },
        {
          "internalType": "uint256",
          "name": "value",
          "type": "uint256"
        }
      ],
      "name": "approve",
      "outputs": [
        {
          "internalType": "bool",
          "name": "",
          "type": "bool"
        }
      ],
      "stateMutability": "nonpayable",
      "type": "function"
    },
    {
      "inputs": [
        {
          "internalType": "address",
          "name": "",
          "type": "address"
        }
      ],
      "name": "balanceOf",
      "outputs": [
        {
          "internalType": "uint256",
          "name": "",
          "type": "uint256"
        }
      ],
      "stateMutability": "view",
      "type": "function"
    },
    {
      "inputs": [],
      "name": "currentRound",
      "outputs": [
        {
          "internalType": "uint256",
          "name": "",
          "type": "uint256"
        }
      ],
      "stateMutability": "view",
      "type": "function"
    },
    {
      "inputs": [],
      "name": "decimals",
      "outputs": [
        {
          "internalType": "uint8",
          "name": "",
          "type": "uint8"
        }
      ],
      "stateMutability": "view",
      "type": "function"
    },
    {
      "inputs": [],
      "name": "isOwner",
      "outputs": [
        {
          "internalType": "bool",
          "name": "",
          "type": "bool"
        }
      ],
      "stateMutability": "view",
      "type": "function"
    },
    {
      "inputs": [],
      "name": "isPermissible",
      "outputs": [
        {
          "internalType": "bool",
          "name": "",
          "type": "bool"
        }
      ],
      "stateMutability": "view",
      "type": "function"
    },
    {
      "inputs": [],
      "name": "name",
      "outputs": [
        {
          "internalType": "string",
          "name": "",
          "type": "string"
        }
      ],
      "stateMutability": "view",
      "type": "function"
    },
    {
      "inputs": [],
      "name": "owner",
      "outputs": [
        {
          "internalType": "address",
          "name": "",
          "type": "address"
        }
      ],
      "stateMutability": "view",
      "type": "function"
    },
    {
      "inputs": [
        {
          "internalType": "address",
          "name": "_account",
          "type": "address"
        }
      ],
      "name": "removePermittedAccount",
      "outputs": [],
      "stateMutability": "nonpayable",
      "type": "function"
    },
    {
      "inputs": [],
      "name": "renounceOwnership",
      "outputs": [],
      "stateMutability": "nonpayable",
      "type": "function"
    },
    {
      "inputs": [],
      "name": "rewardRatio",
      "outputs": [
        {
          "internalType": "uint8",
          "name": "",
          "type": "uint8"
        }
      ],
      "stateMutability": "view",
      "type": "function"
    },
    {
      "inputs": [],
      "name": "rewardsToken",
      "outputs": [
        {
          "internalType": "address",
          "name": "",
          "type": "address"
        }
      ],
      "stateMutability": "view",
      "type": "function"
    },
    {
      "inputs": [],
      "name": "symbol",
      "outputs": [
        {
          "internalType": "string",
          "name": "",
          "type": "string"
        }
      ],
      "stateMutability": "view",
      "type": "function"
    },
    {
      "inputs": [],
      "name": "totalSupply",
      "outputs": [
        {
          "internalType": "uint256",
          "name": "",
          "type": "uint256"
        }
      ],
      "stateMutability": "view",
      "type": "function"
    },
    {
      "inputs": [
        {
          "internalType": "address",
          "name": "to",
          "type": "address"
        },
        {
          "internalType": "uint256",
          "name": "value",
          "type": "uint256"
        }
      ],
      "name": "transfer",
      "outputs": [
        {
          "internalType": "bool",
          "name": "",
          "type": "bool"
        }
      ],
      "stateMutability": "nonpayable",
      "type": "function"
    },
    {
      "inputs": [
        {
          "internalType": "address",
          "name": "from",
          "type": "address"
        },
        {
          "internalType": "address",
          "name": "to",
          "type": "address"
        },
        {
          "internalType": "uint256",
          "name": "value",
          "type": "uint256"
        }
      ],
      "name": "transferFrom",
      "outputs": [
        {
          "internalType": "bool",
          "name": "",
          "type": "bool"
        }
      ],
      "stateMutability": "nonpayable",
      "type": "function"
    },
    {
      "inputs": [
        {
          "internalType": "address",
          "name": "newOwner",
          "type": "address"
        }
      ],
      "name": "transferOwnership",
      "outputs": [],
      "stateMutability": "nonpayable",
      "type": "function"
    },
    {
      "inputs": [],
      "name": "currentReward",
      "outputs": [
        {
          "internalType": "uint256",
          "name": "",
          "type": "uint256"
        }
      ],
      "stateMutability": "view",
      "type": "function"
    },
    {
      "inputs": [],
      "name": "ticketsInCurrentRound",
      "outputs": [
        {
          "components": [
            {
              "internalType": "uint8",
              "name": "position1",
              "type": "uint8"
            },
            {
              "internalType": "uint8",
              "name": "position2",
              "type": "uint8"
            },
            {
              "internalType": "uint8",
              "name": "position3",
              "type": "uint8"
            },
            {
              "internalType": "uint8",
              "name": "position4",
              "type": "uint8"
            }
          ],
          "internalType": "struct SwapifyLotterySystem.Ticket[]",
          "name": "",
          "type": "tuple[]"
        }
      ],
      "stateMutability": "view",
      "type": "function"
    },
    {
      "inputs": [
        {
          "internalType": "uint256",
          "name": "round",
          "type": "uint256"
        }
      ],
      "name": "getRoundHistory",
      "outputs": [
        {
          "components": [
            {
              "internalType": "uint256",
              "name": "round",
              "type": "uint256"
            },
            {
              "components": [
                {
                  "internalType": "uint8",
                  "name": "position1",
                  "type": "uint8"
                },
                {
                  "internalType": "uint8",
                  "name": "position2",
                  "type": "uint8"
                },
                {
                  "internalType": "uint8",
                  "name": "position3",
                  "type": "uint8"
                },
                {
                  "internalType": "uint8",
                  "name": "position4",
                  "type": "uint8"
                }
              ],
              "internalType": "struct SwapifyLotterySystem.Ticket",
              "name": "winningNumbers",
              "type": "tuple"
            },
            {
              "internalType": "uint256",
              "name": "reward",
              "type": "uint256"
            },
            {
              "components": [
                {
                  "internalType": "uint8",
                  "name": "position1",
                  "type": "uint8"
                },
                {
                  "internalType": "uint8",
                  "name": "position2",
                  "type": "uint8"
                },
                {
                  "internalType": "uint8",
                  "name": "position3",
                  "type": "uint8"
                },
                {
                  "internalType": "uint8",
                  "name": "position4",
                  "type": "uint8"
                }
              ],
              "internalType": "struct SwapifyLotterySystem.Ticket[]",
              "name": "tickets",
              "type": "tuple[]"
            },
            {
              "components": [
                {
                  "internalType": "uint8",
                  "name": "matchAll",
                  "type": "uint8"
                },
                {
                  "internalType": "uint8",
                  "name": "match3",
                  "type": "uint8"
                },
                {
                  "internalType": "uint8",
                  "name": "match2",
                  "type": "uint8"
                },
                {
                  "internalType": "uint8",
                  "name": "match1",
                  "type": "uint8"
                }
              ],
              "internalType": "struct SwapifyLotterySystem.RewardRatio",
              "name": "rewardRatio",
              "type": "tuple"
            },
            {
              "internalType": "uint8",
              "name": "match1",
              "type": "uint8"
            },
            {
              "internalType": "uint8",
              "name": "match2",
              "type": "uint8"
            },
            {
              "internalType": "uint8",
              "name": "match3",
              "type": "uint8"
            },
            {
              "internalType": "uint8",
              "name": "matchAll",
              "type": "uint8"
            },
            {
              "internalType": "bool",
              "name": "noMatch",
              "type": "bool"
            }
          ],
          "internalType": "struct SwapifyLotterySystem.RoundData",
          "name": "",
          "type": "tuple"
        }
      ],
      "stateMutability": "view",
      "type": "function"
    },
    {
      "inputs": [
        {
          "internalType": "address",
          "name": "user",
          "type": "address"
        },
        {
          "internalType": "uint256",
          "name": "round",
          "type": "uint256"
        }
      ],
      "name": "getUserRoundData",
      "outputs": [
        {
          "components": [
            {
              "internalType": "uint256",
              "name": "round",
              "type": "uint256"
            },
            {
              "internalType": "address",
              "name": "user",
              "type": "address"
            },
            {
              "components": [
                {
                  "internalType": "uint8",
                  "name": "position1",
                  "type": "uint8"
                },
                {
                  "internalType": "uint8",
                  "name": "position2",
                  "type": "uint8"
                },
                {
                  "internalType": "uint8",
                  "name": "position3",
                  "type": "uint8"
                },
                {
                  "internalType": "uint8",
                  "name": "position4",
                  "type": "uint8"
                }
              ],
              "internalType": "struct SwapifyLotterySystem.Ticket[]",
              "name": "tickets",
              "type": "tuple[]"
            },
            {
              "internalType": "uint8[]",
              "name": "boughtTickets",
              "type": "uint8[]"
            },
            {
              "internalType": "bool",
              "name": "claimed",
              "type": "bool"
            },
            {
              "internalType": "uint256",
              "name": "reward",
              "type": "uint256"
            }
          ],
          "internalType": "struct SwapifyLotterySystem.UserData",
          "name": "",
          "type": "tuple"
        }
      ],
      "stateMutability": "view",
      "type": "function"
    },
    {
      "inputs": [
        {
          "internalType": "address",
          "name": "user",
          "type": "address"
        },
        {
          "internalType": "uint256",
          "name": "swapifyLotteryTicketAmount",
          "type": "uint256"
        }
      ],
      "name": "mintTickets",
      "outputs": [],
      "stateMutability": "nonpayable",
      "type": "function"
    },
    {
      "inputs": [
        {
          "internalType": "address",
          "name": "user",
          "type": "address"
        },
        {
          "internalType": "uint256",
          "name": "amount",
          "type": "uint256"
        }
      ],
      "name": "submitTicket",
      "outputs": [],
      "stateMutability": "nonpayable",
      "type": "function"
    },
    {
      "inputs": [
        {
          "internalType": "uint256",
          "name": "rewardAmount",
          "type": "uint256"
        }
      ],
      "name": "addReward",
      "outputs": [],
      "stateMutability": "nonpayable",
      "type": "function"
    },
    {
      "inputs": [
        {
          "internalType": "uint8",
          "name": "ratio",
          "type": "uint8"
        }
      ],
      "name": "setRewardRatio",
      "outputs": [],
      "stateMutability": "nonpayable",
      "type": "function"
    },
    {
      "inputs": [
        {
          "internalType": "address",
          "name": "_rewardsTokenAddress",
          "type": "address"
        }
      ],
      "name": "setRewardToken",
      "outputs": [],
      "stateMutability": "nonpayable",
      "type": "function"
    },
    {
      "inputs": [],
      "name": "drawWinningNumber",
      "outputs": [],
      "stateMutability": "nonpayable",
      "type": "function"
    },
    {
      "inputs": [
        {
          "internalType": "uint256",
          "name": "_nonce",
          "type": "uint256"
        }
      ],
      "name": "setNonce",
      "outputs": [],
      "stateMutability": "nonpayable",
      "type": "function"
    },
    {
      "inputs": [
        {
          "internalType": "uint8",
          "name": "matchAll",
          "type": "uint8"
        },
        {
          "internalType": "uint8",
          "name": "match3",
          "type": "uint8"
        },
        {
          "internalType": "uint8",
          "name": "match2",
          "type": "uint8"
        },
        {
          "internalType": "uint8",
          "name": "match1",
          "type": "uint8"
        }
      ],
      "name": "updateMatchPoolAllocation",
      "outputs": [],
      "stateMutability": "nonpayable",
      "type": "function"
    },
    {
      "inputs": [
        {
          "internalType": "address",
          "name": "user",
          "type": "address"
        },
        {
          "internalType": "uint256",
          "name": "round",
          "type": "uint256"
        }
      ],
      "name": "claimRewards",
      "outputs": [],
      "stateMutability": "nonpayable",
      "type": "function"
    }
  ],
  "bytecode": "0x60806040526004600560146101000a81548160ff021916908360ff1602179055503480156200002d57600080fd5b5060405162005ec038038062005ec08339818101604052810190620000539190620002ea565b32600360006101000a81548173ffffffffffffffffffffffffffffffffffffffff021916908373ffffffffffffffffffffffffffffffffffffffff160217905550600360009054906101000a900473ffffffffffffffffffffffffffffffffffffffff1673ffffffffffffffffffffffffffffffffffffffff16600073ffffffffffffffffffffffffffffffffffffffff167f8be0079c531659141344cd1fd0a4f28419497f9722a3daafe3b4186f6b6457e060405160405180910390a360016004600062000127620002a960201b60201c565b73ffffffffffffffffffffffffffffffffffffffff1673ffffffffffffffffffffffffffffffffffffffff16815260200190815260200160002060006101000a81548160ff02191690831515021790555080600560006101000a81548173ffffffffffffffffffffffffffffffffffffffff021916908373ffffffffffffffffffffffffffffffffffffffff16021790555060016006819055506506f26c0fbec4600981905550603260076000600654815260200190815260200160002060040160000160006101000a81548160ff021916908360ff160217905550601e60076000600654815260200190815260200160002060040160000160016101000a81548160ff021916908360ff160217905550600f60076000600654815260200190815260200160002060040160000160026101000a81548160ff021916908360ff160217905550600560076000600654815260200190815260200160002060040160000160036101000a81548160ff021916908360ff1602179055505062000364565b6000600360009054906101000a900473ffffffffffffffffffffffffffffffffffffffff16905090565b600081519050620002e4816200034a565b92915050565b600060208284031215620002fd57600080fd5b60006200030d84828501620002d3565b91505092915050565b600062000323826200032a565b9050919050565b600073ffffffffffffffffffffffffffffffffffffffff82169050919050565b620003558162000316565b81146200036157600080fd5b50565b615b4c80620003746000396000f3fe608060405234801561001057600080fd5b50600436106101f05760003560e01c80638a19c8bc1161010f578063a9059cbb116100a2578063dd62ed3e11610071578063dd62ed3e14610571578063f2fde38b146105a1578063f360c183146105bd578063f84817aa146105d9576101f0565b8063a9059cbb146104e9578063d1af0c7d14610519578063db7734fb14610537578063dd20c4a714610555576101f0565b80639371099a116100de5780639371099a1461044f5780639506a4ec1461047f57806395d89b41146104af5780639a99b4f0146104cd576101f0565b80638a19c8bc146103d95780638aee8127146103f75780638da5cb5b146104135780638f32d59b14610431576101f0565b806349fd689f11610187578063667d057211610156578063667d05721461037957806370a0823114610383578063715018a6146103b357806374de4ec4146103bd576101f0565b806349fd689f146103055780635ea16f931461032157806361ebb58b1461033f578063646033bc1461035b576101f0565b806318160ddd116101c357806318160ddd1461027d57806323b872dd1461029b578063313ce567146102cb57806338fdae0b146102e9576101f0565b8063042f90fa146101f557806306fdde031461021157806307621eca1461022f578063095ea7b31461024d575b600080fd5b61020f600480360381019061020a919061445f565b6105f5565b005b610219610987565b604051610226919061534e565b60405180910390f35b6102376109c0565b6040516102449190615674565b60405180910390f35b6102676004803603810190610262919061445f565b6109e0565b6040516102749190615333565b60405180910390f35b6102856109f7565b6040516102929190615674565b60405180910390f35b6102b560048036038101906102b09190614410565b6109fd565b6040516102c29190615333565b60405180910390f35b6102d3610c87565b6040516102e0919061568f565b60405180910390f35b61030360048036038101906102fe9190614516565b610c8c565b005b61031f600480360381019061031a91906144ed565b610e10565b005b610329610ebb565b6040516103369190615311565b60405180910390f35b610359600480360381019061035491906143ab565b610fa0565b005b610363611042565b604051610370919061568f565b60405180910390f35b610381611055565b005b61039d600480360381019061039891906143ab565b61164c565b6040516103aa9190615674565b60405180910390f35b6103bb611664565b005b6103d760048036038101906103d291906144c4565b61176c565b005b6103e16118f4565b6040516103ee9190615674565b60405180910390f35b610411600480360381019061040c91906143ab565b6118fa565b005b61041b6119f5565b6040516104289190615296565b60405180910390f35b610439611a1f565b6040516104469190615333565b60405180910390f35b6104696004803603810190610464919061445f565b611a77565b6040516104769190615652565b60405180910390f35b610499600480360381019061049491906144c4565b612367565b6040516104a69190615630565b60405180910390f35b6104b7612617565b6040516104c4919061534e565b60405180910390f35b6104e760048036038101906104e2919061445f565b612650565b005b61050360048036038101906104fe919061445f565b612916565b6040516105109190615333565b60405180910390f35b61052161292d565b60405161052e9190615296565b60405180910390f35b61053f612953565b60405161054c9190615333565b60405180910390f35b61056f600480360381019061056a919061445f565b6129a7565b005b61058b600480360381019061058691906143d4565b612aaf565b6040516105989190615674565b60405180910390f35b6105bb60048036038101906105b691906143ab565b612ad4565b005b6105d760048036038101906105d291906144c4565b612b27565b005b6105f360048036038101906105ee91906143ab565b612b78565b005b60008111610638576040517f08c379a000000000000000000000000000000000000000000000000000000000815260040161062f906155f0565b60405180910390fd5b60065460086000600654815260200190815260200160002060008473ffffffffffffffffffffffffffffffffffffffff1673ffffffffffffffffffffffffffffffffffffffff168152602001908152602001600020600001819055508160086000600654815260200190815260200160002060008473ffffffffffffffffffffffffffffffffffffffff1673ffffffffffffffffffffffffffffffffffffffff16815260200190815260200160002060010160006101000a81548173ffffffffffffffffffffffffffffffffffffffff021916908373ffffffffffffffffffffffffffffffffffffffff16021790555060005b818110156109785761073b614234565b610743612c1a565b816000019060ff16908160ff168152505061075c612c1a565b816020019060ff16908160ff1681525050610775612c1a565b816040019060ff16908160ff168152505061078e612c1a565b816060019060ff16908160ff168152505060086000600654815260200190815260200160002060008573ffffffffffffffffffffffffffffffffffffffff1673ffffffffffffffffffffffffffffffffffffffff168152602001908152602001600020600201819080600181540180825580915050600190039060005260206000200160009091909190915060008201518160000160006101000a81548160ff021916908360ff16021790555060208201518160000160016101000a81548160ff021916908360ff16021790555060408201518160000160026101000a81548160ff021916908360ff16021790555060608201518160000160036101000a81548160ff021916908360ff1602179055505050600760006006548152602001908152602001600020600301819080600181540180825580915050600190039060005260206000200160009091909190915060008201518160000160006101000a81548160ff021916908360ff16021790555060208201518160000160016101000a81548160ff021916908360ff16021790555060408201518160000160026101000a81548160ff021916908360ff16021790555060608201518160000160036101000a81548160ff021916908360ff160217905550505050808061097090615962565b91505061072b565b506109838282612c7a565b5050565b6040518060400160405280601c81526020017f53776170696679204c6f7474657279205469636b657420546f6b656e0000000081525081565b600060076000600654815260200190815260200160002060020154905090565b60006109ed338484612ecb565b6001905092915050565b60005481565b600081600260008673ffffffffffffffffffffffffffffffffffffffff1673ffffffffffffffffffffffffffffffffffffffff16815260200190815260200160002060003373ffffffffffffffffffffffffffffffffffffffff1673ffffffffffffffffffffffffffffffffffffffff168152602001908152602001600020541015610abe576040517f08c379a0000000000000000000000000000000000000000000000000000000008152600401610ab5906154b0565b60405180910390fd5b7fffffffffffffffffffffffffffffffffffffffffffffffffffffffffffffffff600260008673ffffffffffffffffffffffffffffffffffffffff1673ffffffffffffffffffffffffffffffffffffffff16815260200190815260200160002060003373ffffffffffffffffffffffffffffffffffffffff1673ffffffffffffffffffffffffffffffffffffffff1681526020019081526020016000205414610c7157610bf082600260008773ffffffffffffffffffffffffffffffffffffffff1673ffffffffffffffffffffffffffffffffffffffff16815260200190815260200160002060003373ffffffffffffffffffffffffffffffffffffffff1673ffffffffffffffffffffffffffffffffffffffff1681526020019081526020016000205461302690919063ffffffff16565b600260008673ffffffffffffffffffffffffffffffffffffffff1673ffffffffffffffffffffffffffffffffffffffff16815260200190815260200160002060003373ffffffffffffffffffffffffffffffffffffffff1673ffffffffffffffffffffffffffffffffffffffff168152602001908152602001600020819055505b610c7c84848461307f565b600190509392505050565b600081565b610c94611a1f565b610cd3576040517f08c379a0000000000000000000000000000000000000000000000000000000008152600401610cca90615530565b60405180910390fd5b606481838587610ce3919061579f565b610ced919061579f565b610cf7919061579f565b60ff1614610d3a576040517f08c379a0000000000000000000000000000000000000000000000000000000008152600401610d3190615570565b60405180910390fd5b8360076000600654815260200190815260200160002060040160000160006101000a81548160ff021916908360ff1602179055508260076000600654815260200190815260200160002060040160000160016101000a81548160ff021916908360ff1602179055508160076000600654815260200190815260200160002060040160000160026101000a81548160ff021916908360ff1602179055508060076000600654815260200190815260200160002060040160000160036101000a81548160ff021916908360ff16021790555050505050565b610e18611a1f565b610e57576040517f08c379a0000000000000000000000000000000000000000000000000000000008152600401610e4e90615530565b60405180910390fd5b60008160ff1611610e9d576040517f08c379a0000000000000000000000000000000000000000000000000000000008152600401610e9490615430565b60405180910390fd5b80600560146101000a81548160ff021916908360ff16021790555050565b6060600760006006548152602001908152602001600020600301805480602002602001604051908101604052809291908181526020016000905b82821015610f97578382906000526020600020016040518060800160405290816000820160009054906101000a900460ff1660ff1660ff1681526020016000820160019054906101000a900460ff1660ff1660ff1681526020016000820160029054906101000a900460ff1660ff1660ff1681526020016000820160039054906101000a900460ff1660ff1660ff168152505081526020019060010190610ef5565b50505050905090565b610fa8611a1f565b610fe7576040517f08c379a0000000000000000000000000000000000000000000000000000000008152600401610fde90615530565b60405180910390fd5b6000600460008373ffffffffffffffffffffffffffffffffffffffff1673ffffffffffffffffffffffffffffffffffffffff16815260200190815260200160002060006101000a81548160ff02191690831515021790555050565b600560149054906101000a900460ff1681565b61105d611a1f565b61109c576040517f08c379a000000000000000000000000000000000000000000000000000000000815260040161109390615530565b60405180910390fd5b6110a4612c1a565b60076000600654815260200190815260200160002060010160000160006101000a81548160ff021916908360ff1602179055506110df612c1a565b60076000600654815260200190815260200160002060010160000160016101000a81548160ff021916908360ff16021790555061111a612c1a565b60076000600654815260200190815260200160002060010160000160026101000a81548160ff021916908360ff160217905550611155612c1a565b60076000600654815260200190815260200160002060010160000160036101000a81548160ff021916908360ff160217905550611271600760006006548152602001908152602001600020600301805480602002602001604051908101604052809291908181526020016000905b82821015611265578382906000526020600020016040518060800160405290816000820160009054906101000a900460ff1660ff1660ff1681526020016000820160019054906101000a900460ff1660ff1660ff1681526020016000820160029054906101000a900460ff1660ff1660ff1681526020016000820160039054906101000a900460ff1660ff1660ff1681525050815260200190600101906111c3565b50505050600654613375565b60076000600654815260200190815260200160002060050160036007600060065481526020019081526020016000206005016002600760006006548152602001908152602001600020600501600160076000600654815260200190815260200160002060050160008891906101000a81548160ff021916908360ff1602179055508791906101000a81548160ff021916908360ff1602179055508691906101000a81548160ff021916908360ff1602179055508591906101000a81548160ff021916908360ff16021790555050505050600060076000600654815260200190815260200160002060050160009054906101000a900460ff1660ff161480156113a15750600060076000600654815260200190815260200160002060050160019054906101000a900460ff1660ff16145b80156113d55750600060076000600654815260200190815260200160002060050160029054906101000a900460ff1660ff16145b80156114095750600060076000600654815260200190815260200160002060050160039054906101000a900460ff1660ff16145b1561144057600160076000600654815260200190815260200160002060050160046101000a81548160ff0219169083151502179055505b6006600081548092919061145390615962565b91905055506006546007600060065481526020019081526020016000206000018190555061148e6001600654611489919061589c565b6138b1565b600760006006548152602001908152602001600020600201819055506007600060016006546114bd919061589c565b815260200190815260200160002060040160000160009054906101000a900460ff1660076000600654815260200190815260200160002060040160000160006101000a81548160ff021916908360ff160217905550600760006001600654611525919061589c565b815260200190815260200160002060040160000160019054906101000a900460ff1660076000600654815260200190815260200160002060040160000160016101000a81548160ff021916908360ff16021790555060076000600160065461158d919061589c565b815260200190815260200160002060040160000160029054906101000a900460ff1660076000600654815260200190815260200160002060040160000160026101000a81548160ff021916908360ff1602179055506007600060016006546115f5919061589c565b815260200190815260200160002060040160000160039054906101000a900460ff1660076000600654815260200190815260200160002060040160000160036101000a81548160ff021916908360ff160217905550565b60016020528060005260406000206000915090505481565b61166c611a1f565b6116ab576040517f08c379a00000000000000000000000000000000000000000000000000000000081526004016116a290615530565b60405180910390fd5b600073ffffffffffffffffffffffffffffffffffffffff16600360009054906101000a900473ffffffffffffffffffffffffffffffffffffffff1673ffffffffffffffffffffffffffffffffffffffff167f8be0079c531659141344cd1fd0a4f28419497f9722a3daafe3b4186f6b6457e060405160405180910390a36000600360006101000a81548173ffffffffffffffffffffffffffffffffffffffff021916908373ffffffffffffffffffffffffffffffffffffffff160217905550565b611774611a1f565b6117b3576040517f08c379a00000000000000000000000000000000000000000000000000000000081526004016117aa90615530565b60405180910390fd5b600560009054906101000a900473ffffffffffffffffffffffffffffffffffffffff1673ffffffffffffffffffffffffffffffffffffffff166323b872dd6117f96119f5565b30846040518463ffffffff1660e01b8152600401611819939291906152b1565b602060405180830381600087803b15801561183357600080fd5b505af1158015611847573d6000803e3d6000fd5b505050506040513d601f19601f8201168201806040525081019061186b919061449b565b6118aa576040517f08c379a00000000000000000000000000000000000000000000000000000000081526004016118a190615390565b60405180910390fd5b6118d581600760006006548152602001908152602001600020600201546139c990919063ffffffff16565b6007600060065481526020019081526020016000206002018190555050565b60065481565b611902611a1f565b611941576040517f08c379a000000000000000000000000000000000000000000000000000000000815260040161193890615530565b60405180910390fd5b600073ffffffffffffffffffffffffffffffffffffffff168173ffffffffffffffffffffffffffffffffffffffff1614156119b1576040517f08c379a00000000000000000000000000000000000000000000000000000000081526004016119a890615490565b60405180910390fd5b80600560006101000a81548173ffffffffffffffffffffffffffffffffffffffff021916908373ffffffffffffffffffffffffffffffffffffffff16021790555050565b6000600360009054906101000a900473ffffffffffffffffffffffffffffffffffffffff16905090565b6000600360009054906101000a900473ffffffffffffffffffffffffffffffffffffffff1673ffffffffffffffffffffffffffffffffffffffff163373ffffffffffffffffffffffffffffffffffffffff1614905090565b611a7f614268565b6000600654831015611bd757600080600080611bb36008600089815260200190815260200160002060008a73ffffffffffffffffffffffffffffffffffffffff1673ffffffffffffffffffffffffffffffffffffffff168152602001908152602001600020600201805480602002602001604051908101604052809291908181526020016000905b82821015611ba9578382906000526020600020016040518060800160405290816000820160009054906101000a900460ff1660ff1660ff1681526020016000820160019054906101000a900460ff1660ff1660ff1681526020016000820160029054906101000a900460ff1660ff1660ff1681526020016000820160039054906101000a900460ff1660ff1660ff168152505081526020019060010190611b07565b5050505088613375565b80945081955082965083975050505050611bd0848484848b6139e6565b9450505050505b60006040518060c001604052806008600087815260200190815260200160002060008873ffffffffffffffffffffffffffffffffffffffff1673ffffffffffffffffffffffffffffffffffffffff1681526020019081526020016000206000015481526020016008600087815260200190815260200160002060008873ffffffffffffffffffffffffffffffffffffffff1673ffffffffffffffffffffffffffffffffffffffff16815260200190815260200160002060010160009054906101000a900473ffffffffffffffffffffffffffffffffffffffff1673ffffffffffffffffffffffffffffffffffffffff168152602001600067ffffffffffffffff811115611d0d577f4e487b7100000000000000000000000000000000000000000000000000000000600052604160045260246000fd5b604051908082528060200260200182016040528015611d4657816020015b611d33614234565b815260200190600190039081611d2b5790505b50815260200160046008600088815260200190815260200160002060008973ffffffffffffffffffffffffffffffffffffffff1673ffffffffffffffffffffffffffffffffffffffff16815260200190815260200160002060020180549050611daf9190615807565b67ffffffffffffffff811115611dee577f4e487b7100000000000000000000000000000000000000000000000000000000600052604160045260246000fd5b604051908082528060200260200182016040528015611e1c5781602001602082028036833780820191505090505b5081526020016008600087815260200190815260200160002060008873ffffffffffffffffffffffffffffffffffffffff1673ffffffffffffffffffffffffffffffffffffffff16815260200190815260200160002060040160009054906101000a900460ff161515815260200183815250905060005b6008600086815260200190815260200160002060008773ffffffffffffffffffffffffffffffffffffffff1673ffffffffffffffffffffffffffffffffffffffff168152602001908152602001600020600201805490508160ff16101561235b576008600086815260200190815260200160002060008773ffffffffffffffffffffffffffffffffffffffff1673ffffffffffffffffffffffffffffffffffffffff1681526020019081526020016000206002018160ff1681548110611f82577f4e487b7100000000000000000000000000000000000000000000000000000000600052603260045260246000fd5b9060005260206000200160000160009054906101000a900460ff1682606001516000600484611fb19190615861565b611fbb919061579f565b60ff1681518110611ff5577f4e487b7100000000000000000000000000000000000000000000000000000000600052603260045260246000fd5b602002602001019060ff16908160ff16815250506008600086815260200190815260200160002060008773ffffffffffffffffffffffffffffffffffffffff1673ffffffffffffffffffffffffffffffffffffffff1681526020019081526020016000206002018160ff1681548110612097577f4e487b7100000000000000000000000000000000000000000000000000000000600052603260045260246000fd5b9060005260206000200160000160019054906101000a900460ff16826060015160016004846120c69190615861565b6120d0919061579f565b60ff168151811061210a577f4e487b7100000000000000000000000000000000000000000000000000000000600052603260045260246000fd5b602002602001019060ff16908160ff16815250506008600086815260200190815260200160002060008773ffffffffffffffffffffffffffffffffffffffff1673ffffffffffffffffffffffffffffffffffffffff1681526020019081526020016000206002018160ff16815481106121ac577f4e487b7100000000000000000000000000000000000000000000000000000000600052603260045260246000fd5b9060005260206000200160000160029054906101000a900460ff16826060015160026004846121db9190615861565b6121e5919061579f565b60ff168151811061221f577f4e487b7100000000000000000000000000000000000000000000000000000000600052603260045260246000fd5b602002602001019060ff16908160ff16815250506008600086815260200190815260200160002060008773ffffffffffffffffffffffffffffffffffffffff1673ffffffffffffffffffffffffffffffffffffffff1681526020019081526020016000206002018160ff16815481106122c1577f4e487b7100000000000000000000000000000000000000000000000000000000600052603260045260246000fd5b9060005260206000200160000160039054906101000a900460ff16826060015160036004846122f09190615861565b6122fa919061579f565b60ff1681518110612334577f4e487b7100000000000000000000000000000000000000000000000000000000600052603260045260246000fd5b602002602001019060ff16908160ff16815250508080612353906159ab565b915050611e93565b50809250505092915050565b61236f6142b6565b600760008381526020019081526020016000206040518061014001604052908160008201548152602001600182016040518060800160405290816000820160009054906101000a900460ff1660ff1660ff1681526020016000820160019054906101000a900460ff1660ff1660ff1681526020016000820160029054906101000a900460ff1660ff1660ff1681526020016000820160039054906101000a900460ff1660ff1660ff168152505081526020016002820154815260200160038201805480602002602001604051908101604052809291908181526020016000905b828210156124f1578382906000526020600020016040518060800160405290816000820160009054906101000a900460ff1660ff1660ff1681526020016000820160019054906101000a900460ff1660ff1660ff1681526020016000820160029054906101000a900460ff1660ff1660ff1681526020016000820160039054906101000a900460ff1660ff1660ff16815250508152602001906001019061244f565b505050508152602001600482016040518060800160405290816000820160009054906101000a900460ff1660ff1660ff1681526020016000820160019054906101000a900460ff1660ff1660ff1681526020016000820160029054906101000a900460ff1660ff1660ff1681526020016000820160039054906101000a900460ff1660ff1660ff168152505081526020016005820160009054906101000a900460ff1660ff1660ff1681526020016005820160019054906101000a900460ff1660ff1660ff1681526020016005820160029054906101000a900460ff1660ff1660ff1681526020016005820160039054906101000a900460ff1660ff1660ff1681526020016005820160049054906101000a900460ff1615151515815250509050919050565b6040518060400160405280600b81526020017f53574150415449434b455400000000000000000000000000000000000000000081525081565b6000806000806127786008600087815260200190815260200160002060008873ffffffffffffffffffffffffffffffffffffffff1673ffffffffffffffffffffffffffffffffffffffff168152602001908152602001600020600201805480602002602001604051908101604052809291908181526020016000905b8282101561276e578382906000526020600020016040518060800160405290816000820160009054906101000a900460ff1660ff1660ff1681526020016000820160019054906101000a900460ff1660ff1660ff1681526020016000820160029054906101000a900460ff1660ff1660ff1681526020016000820160039054906101000a900460ff1660ff1660ff1681525050815260200190600101906126cc565b5050505086613375565b809450819550829650839750505050506000612797858585858a6139e6565b9050806008600088815260200190815260200160002060008973ffffffffffffffffffffffffffffffffffffffff1673ffffffffffffffffffffffffffffffffffffffff1681526020019081526020016000206005018190555060016008600088815260200190815260200160002060008973ffffffffffffffffffffffffffffffffffffffff1673ffffffffffffffffffffffffffffffffffffffff16815260200190815260200160002060040160006101000a81548160ff021916908315150217905550600560009054906101000a900473ffffffffffffffffffffffffffffffffffffffff1673ffffffffffffffffffffffffffffffffffffffff1663a9059cbb88836040518363ffffffff1660e01b81526004016128ba9291906152e8565b602060405180830381600087803b1580156128d457600080fd5b505af11580156128e8573d6000803e3d6000fd5b505050506040513d601f19601f8201168201806040525081019061290c919061449b565b5050505050505050565b600061292333848461307f565b6001905092915050565b600560009054906101000a900473ffffffffffffffffffffffffffffffffffffffff1681565b6000600460003373ffffffffffffffffffffffffffffffffffffffff1673ffffffffffffffffffffffffffffffffffffffff16815260200190815260200160002060009054906101000a900460ff16905090565b6129af612953565b6129ee576040517f08c379a00000000000000000000000000000000000000000000000000000000081526004016129e5906154f0565b60405180910390fd5b600073ffffffffffffffffffffffffffffffffffffffff168273ffffffffffffffffffffffffffffffffffffffff161415612a5e576040517f08c379a0000000000000000000000000000000000000000000000000000000008152600401612a5590615510565b60405180910390fd5b60008111612aa1576040517f08c379a0000000000000000000000000000000000000000000000000000000008152600401612a9890615430565b60405180910390fd5b612aab8282613dcd565b5050565b6002602052816000526040600020602052806000526040600020600091509150505481565b612adc611a1f565b612b1b576040517f08c379a0000000000000000000000000000000000000000000000000000000008152600401612b1290615530565b60405180910390fd5b612b2481614004565b50565b612b2f611a1f565b612b6e576040517f08c379a0000000000000000000000000000000000000000000000000000000008152600401612b6590615530565b60405180910390fd5b8060098190555050565b612b80611a1f565b612bbf576040517f08c379a0000000000000000000000000000000000000000000000000000000008152600401612bb690615530565b60405180910390fd5b6001600460008373ffffffffffffffffffffffffffffffffffffffff1673ffffffffffffffffffffffffffffffffffffffff16815260200190815260200160002060006101000a81548160ff02191690831515021790555050565b6000600360096000828254612c2f9190615749565b92505081905550600a43403342600954604051602001612c529493929190615248565b6040516020818303038152906040528051906020012060001c612c759190615a0d565b905090565b600073ffffffffffffffffffffffffffffffffffffffff168273ffffffffffffffffffffffffffffffffffffffff161415612cea576040517f08c379a0000000000000000000000000000000000000000000000000000000008152600401612ce1906155d0565b60405180910390fd5b80600160008473ffffffffffffffffffffffffffffffffffffffff1673ffffffffffffffffffffffffffffffffffffffff168152602001908152602001600020541015612d6c576040517f08c379a0000000000000000000000000000000000000000000000000000000008152600401612d6390615450565b60405180910390fd5b612dbe81600160008573ffffffffffffffffffffffffffffffffffffffff1673ffffffffffffffffffffffffffffffffffffffff1681526020019081526020016000205461302690919063ffffffff16565b600160008473ffffffffffffffffffffffffffffffffffffffff1673ffffffffffffffffffffffffffffffffffffffff16815260200190815260200160002081905550600054811115612e46576040517f08c379a0000000000000000000000000000000000000000000000000000000008152600401612e3d90615470565b60405180910390fd5b612e5b8160005461302690919063ffffffff16565b600081905550600073ffffffffffffffffffffffffffffffffffffffff168273ffffffffffffffffffffffffffffffffffffffff167fddf252ad1be2c89b69c2b068fc378daa952ba7f163c4a11628f55a4df523b3ef83604051612ebf9190615674565b60405180910390a35050565b600073ffffffffffffffffffffffffffffffffffffffff168273ffffffffffffffffffffffffffffffffffffffff161415612f3b576040517f08c379a0000000000000000000000000000000000000000000000000000000008152600401612f3290615610565b60405180910390fd5b80600260008573ffffffffffffffffffffffffffffffffffffffff1673ffffffffffffffffffffffffffffffffffffffff16815260200190815260200160002060008473ffffffffffffffffffffffffffffffffffffffff1673ffffffffffffffffffffffffffffffffffffffff168152602001908152602001600020819055508173ffffffffffffffffffffffffffffffffffffffff168373ffffffffffffffffffffffffffffffffffffffff167f8c5be1e5ebec7d5bd14f71427d1e84f3dd0314c0f7b2291e5b200ac8c7c3b925836040516130199190615674565b60405180910390a3505050565b6000828284613035919061589c565b9150811115613079576040517f08c379a000000000000000000000000000000000000000000000000000000000815260040161307090615370565b60405180910390fd5b92915050565b600073ffffffffffffffffffffffffffffffffffffffff168373ffffffffffffffffffffffffffffffffffffffff1614156130ef576040517f08c379a00000000000000000000000000000000000000000000000000000000081526004016130e6906153b0565b60405180910390fd5b600073ffffffffffffffffffffffffffffffffffffffff168273ffffffffffffffffffffffffffffffffffffffff16141561315f576040517f08c379a000000000000000000000000000000000000000000000000000000000815260040161315690615550565b60405180910390fd5b80600160008573ffffffffffffffffffffffffffffffffffffffff1673ffffffffffffffffffffffffffffffffffffffff1681526020019081526020016000205410156131e1576040517f08c379a00000000000000000000000000000000000000000000000000000000081526004016131d8906155b0565b60405180910390fd5b61323381600160008673ffffffffffffffffffffffffffffffffffffffff1673ffffffffffffffffffffffffffffffffffffffff1681526020019081526020016000205461302690919063ffffffff16565b600160008573ffffffffffffffffffffffffffffffffffffffff1673ffffffffffffffffffffffffffffffffffffffff168152602001908152602001600020819055506132c881600160008573ffffffffffffffffffffffffffffffffffffffff1673ffffffffffffffffffffffffffffffffffffffff1681526020019081526020016000205461413490919063ffffffff16565b600160008473ffffffffffffffffffffffffffffffffffffffff1673ffffffffffffffffffffffffffffffffffffffff168152602001908152602001600020819055508173ffffffffffffffffffffffffffffffffffffffff168373ffffffffffffffffffffffffffffffffffffffff167fddf252ad1be2c89b69c2b068fc378daa952ba7f163c4a11628f55a4df523b3ef836040516133689190615674565b60405180910390a3505050565b60008060008060005b86518110156138a7576007600087815260200190815260200160002060010160000160009054906101000a900460ff1660ff168782815181106133ea577f4e487b7100000000000000000000000000000000000000000000000000000000600052603260045260246000fd5b60200260200101516000015160ff1614801561347557506007600087815260200190815260200160002060010160000160019054906101000a900460ff1660ff16878281518110613464577f4e487b7100000000000000000000000000000000000000000000000000000000600052603260045260246000fd5b60200260200101516020015160ff16145b80156134f057506007600087815260200190815260200160002060010160000160029054906101000a900460ff1660ff168782815181106134df577f4e487b7100000000000000000000000000000000000000000000000000000000600052603260045260246000fd5b60200260200101516040015160ff16145b801561356b57506007600087815260200190815260200160002060010160000160039054906101000a900460ff1660ff1687828151811061355a577f4e487b7100000000000000000000000000000000000000000000000000000000600052603260045260246000fd5b60200260200101516060015160ff16145b1561358357848061357b906159ab565b955050613894565b6007600087815260200190815260200160002060010160000160009054906101000a900460ff1660ff168782815181106135e6577f4e487b7100000000000000000000000000000000000000000000000000000000600052603260045260246000fd5b60200260200101516000015160ff1614801561367157506007600087815260200190815260200160002060010160000160019054906101000a900460ff1660ff16878281518110613660577f4e487b7100000000000000000000000000000000000000000000000000000000600052603260045260246000fd5b60200260200101516020015160ff16145b80156136ec57506007600087815260200190815260200160002060010160000160029054906101000a900460ff1660ff168782815181106136db577f4e487b7100000000000000000000000000000000000000000000000000000000600052603260045260246000fd5b60200260200101516040015160ff16145b156137045783806136fc906159ab565b945050613893565b6007600087815260200190815260200160002060010160000160009054906101000a900460ff1660ff16878281518110613767577f4e487b7100000000000000000000000000000000000000000000000000000000600052603260045260246000fd5b60200260200101516000015160ff161480156137f257506007600087815260200190815260200160002060010160000160019054906101000a900460ff1660ff168782815181106137e1577f4e487b7100000000000000000000000000000000000000000000000000000000600052603260045260246000fd5b60200260200101516020015160ff16145b1561380a578280613802906159ab565b935050613892565b6007600087815260200190815260200160002060010160000160009054906101000a900460ff1660ff1687828151811061386d577f4e487b7100000000000000000000000000000000000000000000000000000000600052603260045260246000fd5b60200260200101516000015160ff16141561389157818061388d906159ab565b9250505b5b5b5b808061389f90615962565b91505061337e565b5092959194509250565b60006007600083815260200190815260200160002060050160049054906101000a900460ff16156138fa57600760008381526020019081526020016000206002015490506139c4565b60006139956007600085815260200190815260200160002060050160039054906101000a900460ff166007600086815260200190815260200160002060050160029054906101000a900460ff166007600087815260200190815260200160002060050160019054906101000a900460ff166007600088815260200190815260200160002060050160009054906101000a900460ff16876139e6565b90506139c081600760008681526020019081526020016000206002015461418d90919063ffffffff16565b9150505b919050565b60006139de828461413490919063ffffffff16565b905092915050565b6000806064613a3d6007600086815260200190815260200160002060040160000160009054906101000a900460ff1660ff1660076000878152602001908152602001600020600201546141aa90919063ffffffff16565b613a4791906157d6565b905060006064613a9f6007600087815260200190815260200160002060040160000160019054906101000a900460ff1660ff1660076000888152602001908152602001600020600201546141aa90919063ffffffff16565b613aa991906157d6565b905060006064613b016007600088815260200190815260200160002060040160000160029054906101000a900460ff1660ff1660076000898152602001908152602001600020600201546141aa90919063ffffffff16565b613b0b91906157d6565b905060006064613b636007600089815260200190815260200160002060040160000160039054906101000a900460ff1660ff16600760008a8152602001908152602001600020600201546141aa90919063ffffffff16565b613b6d91906157d6565b90506000806007600089815260200190815260200160002060050160039054906101000a900460ff1660ff16118015613ba9575060008b60ff16115b15613c03576007600088815260200190815260200160002060050160039054906101000a900460ff1660ff16613beb8c60ff16876141aa90919063ffffffff16565b613bf591906157d6565b81613c009190615749565b90505b60006007600089815260200190815260200160002060050160029054906101000a900460ff1660ff16118015613c3c575060008a60ff16115b15613c96576007600088815260200190815260200160002060050160029054906101000a900460ff1660ff16613c7e8b60ff16866141aa90919063ffffffff16565b613c8891906157d6565b81613c939190615749565b90505b60006007600089815260200190815260200160002060050160019054906101000a900460ff1660ff16118015613ccf575060008960ff16115b15613d29576007600088815260200190815260200160002060050160019054906101000a900460ff1660ff16613d118a60ff16856141aa90919063ffffffff16565b613d1b91906157d6565b81613d269190615749565b90505b60006007600089815260200190815260200160002060050160009054906101000a900460ff1660ff16118015613d62575060008860ff16115b15613dbc576007600088815260200190815260200160002060050160009054906101000a900460ff1660ff16613da48960ff16846141aa90919063ffffffff16565b613dae91906157d6565b81613db99190615749565b90505b809550505050505095945050505050565b6000547fffffffffffffffffffffffffffffffffffffffffffffffffffffffffffffffff613dfb919061589c565b811115613e3d576040517f08c379a0000000000000000000000000000000000000000000000000000000008152600401613e3490615590565b60405180910390fd5b613e528160005461413490919063ffffffff16565b600081905550600160008373ffffffffffffffffffffffffffffffffffffffff1673ffffffffffffffffffffffffffffffffffffffff168152602001908152602001600020547fffffffffffffffffffffffffffffffffffffffffffffffffffffffffffffffff613ec3919061589c565b811115613f05576040517f08c379a0000000000000000000000000000000000000000000000000000000008152600401613efc906154d0565b60405180910390fd5b613f5781600160008573ffffffffffffffffffffffffffffffffffffffff1673ffffffffffffffffffffffffffffffffffffffff1681526020019081526020016000205461413490919063ffffffff16565b600160008473ffffffffffffffffffffffffffffffffffffffff1673ffffffffffffffffffffffffffffffffffffffff168152602001908152602001600020819055508173ffffffffffffffffffffffffffffffffffffffff16600073ffffffffffffffffffffffffffffffffffffffff167fddf252ad1be2c89b69c2b068fc378daa952ba7f163c4a11628f55a4df523b3ef83604051613ff89190615674565b60405180910390a35050565b600073ffffffffffffffffffffffffffffffffffffffff168173ffffffffffffffffffffffffffffffffffffffff161415614074576040517f08c379a000000000000000000000000000000000000000000000000000000000815260040161406b906153d0565b60405180910390fd5b8073ffffffffffffffffffffffffffffffffffffffff16600360009054906101000a900473ffffffffffffffffffffffffffffffffffffffff1673ffffffffffffffffffffffffffffffffffffffff167f8be0079c531659141344cd1fd0a4f28419497f9722a3daafe3b4186f6b6457e060405160405180910390a380600360006101000a81548173ffffffffffffffffffffffffffffffffffffffff021916908373ffffffffffffffffffffffffffffffffffffffff16021790555050565b60008282846141439190615749565b9150811015614187576040517f08c379a000000000000000000000000000000000000000000000000000000000815260040161417e90615410565b60405180910390fd5b92915050565b60006141a2828461302690919063ffffffff16565b905092915050565b60006141bf82846141c790919063ffffffff16565b905092915050565b6000808214806141ef5750828283856141e09190615807565b9250826141ed91906157d6565b145b61422e576040517f08c379a0000000000000000000000000000000000000000000000000000000008152600401614225906153f0565b60405180910390fd5b92915050565b6040518060800160405280600060ff168152602001600060ff168152602001600060ff168152602001600060ff1681525090565b6040518060c0016040528060008152602001600073ffffffffffffffffffffffffffffffffffffffff1681526020016060815260200160608152602001600015158152602001600081525090565b604051806101400160405280600081526020016142d1614234565b815260200160008152602001606081526020016142ec614323565b8152602001600060ff168152602001600060ff168152602001600060ff168152602001600060ff1681526020016000151581525090565b6040518060800160405280600060ff168152602001600060ff168152602001600060ff168152602001600060ff1681525090565b60008135905061436681615aba565b92915050565b60008151905061437b81615ad1565b92915050565b60008135905061439081615ae8565b92915050565b6000813590506143a581615aff565b92915050565b6000602082840312156143bd57600080fd5b60006143cb84828501614357565b91505092915050565b600080604083850312156143e757600080fd5b60006143f585828601614357565b925050602061440685828601614357565b9150509250929050565b60008060006060848603121561442557600080fd5b600061443386828701614357565b935050602061444486828701614357565b925050604061445586828701614381565b9150509250925092565b6000806040838503121561447257600080fd5b600061448085828601614357565b925050602061449185828601614381565b9150509250929050565b6000602082840312156144ad57600080fd5b60006144bb8482850161436c565b91505092915050565b6000602082840312156144d657600080fd5b60006144e484828501614381565b91505092915050565b6000602082840312156144ff57600080fd5b600061450d84828501614396565b91505092915050565b6000806000806080858703121561452c57600080fd5b600061453a87828801614396565b945050602061454b87828801614396565b935050604061455c87828801614396565b925050606061456d87828801614396565b91505092959194509250565b60006145858383615110565b60808301905092915050565b600061459d838361522a565b60208301905092915050565b6145b2816158d0565b82525050565b6145c1816158d0565b82525050565b6145d86145d3826158d0565b6159d5565b82525050565b60006145e9826156ca565b6145f38185615705565b93506145fe836156aa565b8060005b8381101561462f5781516146168882614579565b9750614621836156eb565b925050600181019050614602565b5085935050505092915050565b6000614647826156ca565b6146518185615716565b935061465c836156aa565b8060005b8381101561468d5781516146748882614579565b975061467f836156eb565b925050600181019050614660565b5085935050505092915050565b60006146a5826156d5565b6146af8185615727565b93506146ba836156ba565b8060005b838110156146eb5781516146d28882614591565b97506146dd836156f8565b9250506001810190506146be565b5085935050505092915050565b614701816158e2565b82525050565b614710816158e2565b82525050565b614727614722826158ee565b6159e7565b82525050565b6000614738826156e0565b6147428185615738565b935061475281856020860161592f565b61475b81615a9c565b840191505092915050565b6000614773601583615738565b91507f64732d6d6174682d7375622d756e646572666c6f7700000000000000000000006000830152602082019050919050565b60006147b3606083615738565b91507f537761706966794c6f747465727953797374656d3a2052657761726420616d6f60008301527f756e7420636f756c64206e6f74206265206465706f736974656420746f20746860208301527f65204c6f747465727920636f6e747261637420666f722074686520726f756e646040830152606082019050919050565b600061483f603183615738565b91507f537761706966794c6f74746572795469636b657445524332303a20496e76616c60008301527f69642053656e64657220416464726573730000000000000000000000000000006020830152604082019050919050565b60006148a5602683615738565b91507f4f776e61626c653a206e6577206f776e657220697320746865207a65726f206160008301527f64647265737300000000000000000000000000000000000000000000000000006020830152604082019050919050565b600061490b601483615738565b91507f64732d6d6174682d6d756c2d6f766572666c6f770000000000000000000000006000830152602082019050919050565b600061494b601483615738565b91507f64732d6d6174682d6164642d6f766572666c6f770000000000000000000000006000830152602082019050919050565b600061498b602183615738565b91507f537761706966794c6f747465727953797374656d3a205a45524f5f414d4f554e60008301527f54000000000000000000000000000000000000000000000000000000000000006020830152604082019050919050565b60006149f1604483615738565b91507f537761706966794c6f74746572795469636b657445524332303a206275726e2060008301527f616d6f756e7420657863656564732062616c616e6365206f662074686520686f60208301527f6c646572000000000000000000000000000000000000000000000000000000006040830152606082019050919050565b6000614a7d603583615738565b91507f537761706966794c6f74746572795469636b657445524332303a20496e73756660008301527f66696369656e7420746f74616c20737570706c792e00000000000000000000006020830152604082019050919050565b6000614ae3600d83615738565b91507f4164647265737320456d707479000000000000000000000000000000000000006000830152602082019050919050565b6000614b23603c83615738565b91507f537761706966794c6f74746572795469636b657445524332303a207472616e7360008301527f66657220616d6f756e74206578636565647320616c6c6f77616e6365000000006020830152604082019050919050565b6000614b89604083615738565b91507f537761706966794c6f74746572795469636b657445524332303a2042616c616e60008301527f6365206f66206d696e746572206578636565646564206d6178206c696d69742e6020830152604082019050919050565b6000614bef603683615738565b91507f5065726d69737369626c653a2063616c6c6572206973206e6f7420696e20746860008301527f65206c697374206f66205065726d69737369626c6573000000000000000000006020830152604082019050919050565b6000614c55602283615738565b91507f537761706966794c6f747465727953797374656d3a205a45524f5f414444524560008301527f53530000000000000000000000000000000000000000000000000000000000006020830152604082019050919050565b6000614cbb602083615738565b91507f4f776e61626c653a2063616c6c6572206973206e6f7420746865206f776e65726000830152602082019050919050565b6000614cfb603483615738565b91507f537761706966794c6f74746572795469636b657445524332303a20496e76616c60008301527f696420526563697069656e7420416464726573730000000000000000000000006020830152604082019050919050565b6000614d61601a83615738565b91507f526174696f73206d7573742061646420757020746f20313030250000000000006000830152602082019050919050565b6000614da1603b83615738565b91507f537761706966794c6f74746572795469636b657445524332303a20546f74616c60008301527f20737570706c79206578636565646564206d6178206c696d69742e00000000006020830152604082019050919050565b6000614e07604483615738565b91507f537761706966794c6f74746572795469636b657445524332303a205472616e7360008301527f66657220616d6f756e7420657863656564732062616c616e6365206f6620736560208301527f6e646572000000000000000000000000000000000000000000000000000000006040830152606082019050919050565b6000614e93603583615738565b91507f537761706966794c6f74746572795469636b657445524332303a206275726e2060008301527f66726f6d20746865207a65726f206164647265737300000000000000000000006020830152604082019050919050565b6000614ef9603783615738565b91507f537761706966794c6f747465727953797374656d3a20416d6f756e742069732060008301527f726571756972656420746f206d6f7265207468616e20300000000000000000006020830152604082019050919050565b6000614f5f604183615738565b91507f537761706966794c6f74746572795469636b657445524332303a20617070726f60008301527f766520746f2074686520696e76616c6964206f72207a65726f2061646472657360208301527f73000000000000000000000000000000000000000000000000000000000000006040830152606082019050919050565b608082016000820151614ff4600085018261522a565b506020820151615007602085018261522a565b50604082015161501a604085018261522a565b50606082015161502d606085018261522a565b50505050565b60006102008301600083015161504c60008601826151f5565b50602083015161505f6020860182615110565b50604083015161507260a08601826151f5565b50606083015184820360c086015261508a82826145de565b915050608083015161509f60e0860182614fde565b5060a08301516150b361016086018261522a565b5060c08301516150c761018086018261522a565b5060e08301516150db6101a086018261522a565b506101008301516150f06101c086018261522a565b506101208301516151056101e08601826146f8565b508091505092915050565b608082016000820151615126600085018261522a565b506020820151615139602085018261522a565b50604082015161514c604085018261522a565b50606082015161515f606085018261522a565b50505050565b600060c08301600083015161517d60008601826151f5565b50602083015161519060208601826145a9565b50604083015184820360408601526151a882826145de565b915050606083015184820360608601526151c2828261469a565b91505060808301516151d760808601826146f8565b5060a08301516151ea60a08601826151f5565b508091505092915050565b6151fe81615918565b82525050565b61520d81615918565b82525050565b61522461521f82615918565b615a03565b82525050565b61523381615922565b82525050565b61524281615922565b82525050565b60006152548287614716565b60208201915061526482866145c7565b6014820191506152748285615213565b6020820191506152848284615213565b60208201915081905095945050505050565b60006020820190506152ab60008301846145b8565b92915050565b60006060820190506152c660008301866145b8565b6152d360208301856145b8565b6152e06040830184615204565b949350505050565b60006040820190506152fd60008301856145b8565b61530a6020830184615204565b9392505050565b6000602082019050818103600083015261532b818461463c565b905092915050565b60006020820190506153486000830184614707565b92915050565b60006020820190508181036000830152615368818461472d565b905092915050565b6000602082019050818103600083015261538981614766565b9050919050565b600060208201905081810360008301526153a9816147a6565b9050919050565b600060208201905081810360008301526153c981614832565b9050919050565b600060208201905081810360008301526153e981614898565b9050919050565b60006020820190508181036000830152615409816148fe565b9050919050565b600060208201905081810360008301526154298161493e565b9050919050565b600060208201905081810360008301526154498161497e565b9050919050565b60006020820190508181036000830152615469816149e4565b9050919050565b6000602082019050818103600083015261548981614a70565b9050919050565b600060208201905081810360008301526154a981614ad6565b9050919050565b600060208201905081810360008301526154c981614b16565b9050919050565b600060208201905081810360008301526154e981614b7c565b9050919050565b6000602082019050818103600083015261550981614be2565b9050919050565b6000602082019050818103600083015261552981614c48565b9050919050565b6000602082019050818103600083015261554981614cae565b9050919050565b6000602082019050818103600083015261556981614cee565b9050919050565b6000602082019050818103600083015261558981614d54565b9050919050565b600060208201905081810360008301526155a981614d94565b9050919050565b600060208201905081810360008301526155c981614dfa565b9050919050565b600060208201905081810360008301526155e981614e86565b9050919050565b6000602082019050818103600083015261560981614eec565b9050919050565b6000602082019050818103600083015261562981614f52565b9050919050565b6000602082019050818103600083015261564a8184615033565b905092915050565b6000602082019050818103600083015261566c8184615165565b905092915050565b60006020820190506156896000830184615204565b92915050565b60006020820190506156a46000830184615239565b92915050565b6000819050602082019050919050565b6000819050602082019050919050565b600081519050919050565b600081519050919050565b600081519050919050565b6000602082019050919050565b6000602082019050919050565b600082825260208201905092915050565b600082825260208201905092915050565b600082825260208201905092915050565b600082825260208201905092915050565b600061575482615918565b915061575f83615918565b9250827fffffffffffffffffffffffffffffffffffffffffffffffffffffffffffffffff0382111561579457615793615a3e565b5b828201905092915050565b60006157aa82615922565b91506157b583615922565b92508260ff038211156157cb576157ca615a3e565b5b828201905092915050565b60006157e182615918565b91506157ec83615918565b9250826157fc576157fb615a6d565b5b828204905092915050565b600061581282615918565b915061581d83615918565b9250817fffffffffffffffffffffffffffffffffffffffffffffffffffffffffffffffff048311821515161561585657615855615a3e565b5b828202905092915050565b600061586c82615922565b915061587783615922565b92508160ff048311821515161561589157615890615a3e565b5b828202905092915050565b60006158a782615918565b91506158b283615918565b9250828210156158c5576158c4615a3e565b5b828203905092915050565b60006158db826158f8565b9050919050565b60008115159050919050565b6000819050919050565b600073ffffffffffffffffffffffffffffffffffffffff82169050919050565b6000819050919050565b600060ff82169050919050565b60005b8381101561594d578082015181840152602081019050615932565b8381111561595c576000848401525b50505050565b600061596d82615918565b91507fffffffffffffffffffffffffffffffffffffffffffffffffffffffffffffffff8214156159a05761599f615a3e565b5b600182019050919050565b60006159b682615922565b915060ff8214156159ca576159c9615a3e565b5b600182019050919050565b60006159e0826159f1565b9050919050565b6000819050919050565b60006159fc82615aad565b9050919050565b6000819050919050565b6000615a1882615918565b9150615a2383615918565b925082615a3357615a32615a6d565b5b828206905092915050565b7f4e487b7100000000000000000000000000000000000000000000000000000000600052601160045260246000fd5b7f4e487b7100000000000000000000000000000000000000000000000000000000600052601260045260246000fd5b6000601f19601f8301169050919050565b60008160601b9050919050565b615ac3816158d0565b8114615ace57600080fd5b50565b615ada816158e2565b8114615ae557600080fd5b50565b615af181615918565b8114615afc57600080fd5b50565b615b0881615922565b8114615b1357600080fd5b5056fea26469706673582212200805f57799d04812fbc67747a685699a8edc54cd1d58a87d0921634731eded1564736f6c63430008000033",
  "immutableReferences": {},
  "source": "// SPDX-License-Identifier: GPL-3.0-or-later\r\npragma solidity >=0.8.0;\r\nimport './Permissible.sol';\r\nimport './SwapifyLotteryTicketERC20.sol';\r\nimport './libraries/SafeMath.sol';\r\nimport './libraries/Decimal.sol';\r\n\r\ncontract SwapifyLotterySystem is SwapifyLotteryTicketERC20, Permissible {\r\n    using SafeMath  for uint;\r\n    using Decimal for uint;\r\n\r\n    struct Ticket{\r\n        uint8 position1;\r\n        uint8 position2;\r\n        uint8 position3;\r\n        uint8 position4;\r\n    }\r\n    struct RewardRatio {\r\n        uint8 matchAll;\r\n        uint8 match3;\r\n        uint8 match2;\r\n        uint8 match1;\r\n    }\r\n    struct UserData {\r\n        uint round;\r\n        address user;\r\n        Ticket[] tickets;\r\n        uint8[] boughtTickets;\r\n        bool claimed;\r\n        uint reward;\r\n    }\r\n    struct RoundData {\r\n        uint round;\r\n        Ticket winningNumbers;\r\n        uint reward;\r\n        Ticket[] tickets;\r\n        RewardRatio rewardRatio;\r\n        uint8 match1;\r\n        uint8 match2;\r\n        uint8 match3;\r\n        uint8 matchAll;\r\n        bool noMatch;\r\n    }\r\n    address public rewardsToken;\r\n\r\n    uint8 public rewardRatio = 4;\r\n    uint public currentRound;\r\n    mapping(uint => RoundData) internal roundHistory;\r\n    mapping(uint => mapping(address=> UserData)) internal userRoundData;\r\n    \r\n    uint internal nonce;\r\n\r\n    constructor(address _rewardsTokenAddress) {\r\n        rewardsToken = _rewardsTokenAddress;\r\n        currentRound = 1;\r\n        nonce = 7638264823492;\r\n        roundHistory[currentRound].rewardRatio.matchAll = 50;\r\n        roundHistory[currentRound].rewardRatio.match3 = 30;\r\n        roundHistory[currentRound].rewardRatio.match2 = 15;\r\n        roundHistory[currentRound].rewardRatio.match1 = 5;\r\n    }\r\n    /**\r\n     * @dev show the current round reward.  Return uint. \r\n     */\r\n    function currentReward() external view returns(uint) {\r\n        return roundHistory[currentRound].reward;\r\n    }\r\n    /**\r\n     * @dev shows array of tickets that are in current round.\r\n     */\r\n    function ticketsInCurrentRound() external view returns(Ticket[] memory) {\r\n        return roundHistory[currentRound].tickets;\r\n    }\r\n    /**\r\n     * @dev This function shows round data by round number\r\n     */\r\n    function getRoundHistory(uint round) external view returns(RoundData memory) {\r\n        return roundHistory[round];\r\n    }\r\n    /**\r\n     * @dev This function calculates rewards & show userdata\r\n     */\r\n    function getUserRoundData(address user, uint round) external view returns(UserData memory) {\r\n        uint totalRewards;\r\n        if(round < currentRound) {\r\n            uint8 matchAll; \r\n            uint8 match3; \r\n            uint8 match2; \r\n            uint8 match1;\r\n            \r\n            (matchAll, match3, match2, match1) = findWinningMatches(userRoundData[round][user].tickets, round);\r\n            totalRewards = calculateTotalRewardsToBeClaimed(matchAll, match3, match2, match1, round);\r\n        }\r\n        UserData memory userData = UserData({\r\n            round: userRoundData[round][user].round,\r\n            user: userRoundData[round][user].user,\r\n            tickets: new Ticket[](0),\r\n            boughtTickets: new uint8[](userRoundData[round][user].tickets.length * 4),\r\n            claimed: userRoundData[round][user].claimed,\r\n            reward: totalRewards\r\n        });\r\n        for(uint8 i=0; i < userRoundData[round][user].tickets.length; i++) {\r\n            userData.boughtTickets[i * 4 + 0] = userRoundData[round][user].tickets[i].position1;\r\n            userData.boughtTickets[i * 4 + 1] = userRoundData[round][user].tickets[i].position2;\r\n            userData.boughtTickets[i * 4 + 2] = userRoundData[round][user].tickets[i].position3;\r\n            userData.boughtTickets[i * 4 + 3] = userRoundData[round][user].tickets[i].position4;\r\n        }\r\n        return userData;\r\n    }\r\n    /**\r\n     * @dev mints SwapifyTICKET and sends it to the specified address.  \r\n     * This will be used in the DEX contract whenever trades get fulfilled.\r\n     */\r\n    function mintTickets(address user, uint swapifyLotteryTicketAmount) external onlyPermissible {\r\n        require(user != address(0), 'SwapifyLotterySystem: ZERO_ADDRESS');\r\n        require(swapifyLotteryTicketAmount > 0, 'SwapifyLotterySystem: ZERO_AMOUNT');\r\n        _mint(user, swapifyLotteryTicketAmount);\r\n    }\r\n    /**\r\n     * @dev This function mints SwapifyTICKET and sends it to the specified address.\r\n     * User then has to pay a cost in Swapify, to purchase the ticket.  \r\n     * The Reward for the current round will increment by the amount of Swapifys that were sent to the contract.\r\n     * rewardsAmount is being ERC20 token that accepts 18 decimal points so value need to be sent as value * (10 ** 18)\r\n     * Swapify Ticket does not support any decimals so based on ratio set it accepts integral value only.\r\n     */\r\n\r\n     /*\r\n    function buyTickets(address user, uint rewardsAmount) external {\r\n        require(user != address(0), 'SwapifyLotterySystem: ZERO_ADDRESS');\r\n        require(rewardsAmount > 0, 'SwapifyLotterySystem: Rewards ZERO_AMOUNT');\r\n        uint swapifyTicketAmount = (rewardsAmount / (10 ** IERC20(rewardsToken).decimals())) / rewardRatio;\r\n        require(swapifyTicketAmount > 0, 'SwapifyLotterySystem: Ticket ZERO_AMOUNT');\r\n        require(IERC20(rewardsToken).transferFrom(user, address(this), rewardsAmount), \r\n                                    'SwapifyLotterySystem: User then has to pay a cost in Swapify, to purchase the ticket');\r\n        _mint(user, swapifyTicketAmount);\r\n        roundHistory[currentRound].reward = roundHistory[currentRound].reward.decimalAddition(rewardsAmount);\r\n    }\r\n\r\n    */\r\n\r\n    /**\r\n     * @dev user will submit the amount of tickets (SWAPATICKETS) and they must have sufficient amount of tickets in their wallet. \r\n     * This will then create an entry with 4 random numbers between 0 - 9. \r\n     * Each ticket user submits grants them one entry with 4 different and random numbers between 0 - 9.\r\n     * User can only submit the amount of tickets that is equivalent to the amount of SWAPATICKETS they have in their wallet.  \r\n     * When user submits ticket(s), SWAPATICKETS get burnt in the process.\r\n     */\r\n    function submitTicket(address user, uint amount) external {\r\n        require(amount > 0, 'SwapifyLotterySystem: Amount is required to more than 0');\r\n        userRoundData[currentRound][user].round = currentRound;\r\n        userRoundData[currentRound][user].user = user;\r\n        for(uint i=0; i < amount; i++) {\r\n            Ticket memory ticket;\r\n            ticket.position1 = generateRandomNumber();\r\n            ticket.position2 = generateRandomNumber();\r\n            ticket.position3 = generateRandomNumber();\r\n            ticket.position4 = generateRandomNumber();\r\n\r\n            userRoundData[currentRound][user].tickets.push(ticket);\r\n            roundHistory[currentRound].tickets.push(ticket);\r\n        }\r\n        _burn(user, amount);\r\n    }\r\n    /**\r\n     * @dev Admin can only use this function.  Adds SWAPIFY rewards to the current round.\r\n     */\r\n    function addReward(uint rewardAmount) external onlyOwner {\r\n        require(IERC20(rewardsToken).transferFrom(owner(), address(this), rewardAmount), \r\n                        'SwapifyLotterySystem: Reward amount could not be deposited to the Lottery contract for the round');\r\n        roundHistory[currentRound].reward = roundHistory[currentRound].reward.decimalAddition(rewardAmount);\r\n    }\r\n    /**\r\n     * @dev Admin can change the reward ratio.\r\n     * This ratio represents how many SWAPAFY required to buy 1 SWAPATICKET\r\n     */\r\n    function setRewardRatio(uint8 ratio) external onlyOwner {\r\n        require(ratio > 0, 'SwapifyLotterySystem: ZERO_AMOUNT');\r\n        rewardRatio = ratio;\r\n    }\r\n    function setRewardToken(address _rewardsTokenAddress) external onlyOwner {\r\n        require(_rewardsTokenAddress != address(0), 'Address Empty');\r\n        rewardsToken = _rewardsTokenAddress;\r\n    }\r\n    /**\r\n     * @dev Admin draws the 4 winning numbers.  (Random numbers between 0-9).\r\n     * Stores data on chain and starts a new round. Updates the mapping for rounds.\r\n     * Only Admin can execute this function.\r\n     */\r\n    function drawWinningNumber() external onlyOwner {\r\n        roundHistory[currentRound].winningNumbers.position1 = generateRandomNumber();\r\n        roundHistory[currentRound].winningNumbers.position2 = generateRandomNumber();\r\n        roundHistory[currentRound].winningNumbers.position3 = generateRandomNumber();\r\n        roundHistory[currentRound].winningNumbers.position4 = generateRandomNumber();\r\n\r\n        (roundHistory[currentRound].matchAll,\r\n            roundHistory[currentRound].match3,\r\n            roundHistory[currentRound].match2,\r\n            roundHistory[currentRound].match1) = findWinningMatches(roundHistory[currentRound].tickets, currentRound);\r\n            \r\n        if(roundHistory[currentRound].match1 == 0 && roundHistory[currentRound].match2 == 0 && \r\n                    roundHistory[currentRound].match3 == 0 && roundHistory[currentRound].matchAll == 0) {\r\n            roundHistory[currentRound].noMatch = true;\r\n        }\r\n        currentRound++;\r\n        roundHistory[currentRound].round = currentRound;\r\n        roundHistory[currentRound].reward = calculateCarryForwardRewards(currentRound - 1);\r\n        roundHistory[currentRound].rewardRatio.matchAll = roundHistory[currentRound - 1].rewardRatio.matchAll;\r\n        roundHistory[currentRound].rewardRatio.match3 = roundHistory[currentRound - 1].rewardRatio.match3;\r\n        roundHistory[currentRound].rewardRatio.match2 = roundHistory[currentRound - 1].rewardRatio.match2;\r\n        roundHistory[currentRound].rewardRatio.match1 = roundHistory[currentRound - 1].rewardRatio.match1;\r\n    }\r\n    /**\r\n     * @dev set nonce for randomize ticket generation.\r\n     */\r\n    function setNonce(uint _nonce) external onlyOwner {\r\n        nonce = _nonce;\r\n    }\r\n    /**\r\n     * @dev updates the reward allocation ratio for each pool.  Ratios must add up to 1.  \r\n     * Example:  updateMatchPoolAllocation(0.5, 0.3, 0.15, 0.05)\r\n     */\r\n    function updateMatchPoolAllocation(uint8 matchAll, uint8 match3, uint8 match2, uint8 match1) external onlyOwner {\r\n        require(matchAll + match3 + match2 + match1 == 100, 'Ratios must add up to 100%');\r\n        roundHistory[currentRound].rewardRatio.matchAll = matchAll;\r\n        roundHistory[currentRound].rewardRatio.match3 = match3;\r\n        roundHistory[currentRound].rewardRatio.match2 = match2;\r\n        roundHistory[currentRound].rewardRatio.match1 = match1;\r\n    }\r\n    /**\r\n     * @dev claims rewards during the specified round if there are any to be claimed.\r\n     */\r\n    function claimRewards(address user, uint round) external {\r\n        uint8 matchAll; \r\n        uint8 match3; \r\n        uint8 match2; \r\n        uint8 match1;\r\n        \r\n        (matchAll, match3, match2, match1) = findWinningMatches(userRoundData[round][user].tickets, round);\r\n        uint totalRewards = calculateTotalRewardsToBeClaimed(matchAll, match3, match2, match1, round);\r\n        userRoundData[round][user].reward = totalRewards;\r\n        userRoundData[round][user].claimed = true;\r\n        IERC20(rewardsToken).transfer(user, totalRewards);\r\n    }\r\n    /**\r\n     * @dev Internal method. It finds number of different types of matches from list tickets in a specified round\r\n     */\r\n    function findWinningMatches(Ticket[] memory tickets, uint round) internal view returns \r\n                                                    (uint8 matchAll, uint8 match3, uint8 match2, uint8 match1) {\r\n        for(uint i=0; i < tickets.length; i++) {\r\n            if(tickets[i].position1 == roundHistory[round].winningNumbers.position1 &&\r\n                    tickets[i].position2 == roundHistory[round].winningNumbers.position2 &&\r\n                    tickets[i].position3 == roundHistory[round].winningNumbers.position3 &&\r\n                    tickets[i].position4 == roundHistory[round].winningNumbers.position4) {\r\n                matchAll++;\r\n            } else if(tickets[i].position1 == roundHistory[round].winningNumbers.position1 &&\r\n                    tickets[i].position2 == roundHistory[round].winningNumbers.position2 &&\r\n                    tickets[i].position3 == roundHistory[round].winningNumbers.position3) {\r\n                match3++;\r\n            } else if(tickets[i].position1 == roundHistory[round].winningNumbers.position1 &&\r\n                    tickets[i].position2 == roundHistory[round].winningNumbers.position2) {\r\n                match2++;\r\n            } else if(tickets[i].position1 == roundHistory[round].winningNumbers.position1) {\r\n                match1++;\r\n            }\r\n        }\r\n    }\r\n    /**\r\n     * @dev Internal function. It calculates carry forward not won rewards from previous round to next round.\r\n     */\r\n    function calculateCarryForwardRewards(uint round) internal view returns(uint) {\r\n        if(roundHistory[round].noMatch) {\r\n            return roundHistory[round].reward;\r\n        }\r\n\r\n        uint totalRewardToBeClaimed = calculateTotalRewardsToBeClaimed(roundHistory[round].matchAll, \r\n                                                                        roundHistory[round].match3,\r\n                                                                        roundHistory[round].match2,\r\n                                                                        roundHistory[round].match1, round);\r\n\r\n        return roundHistory[round].reward.decimalSubtraction(totalRewardToBeClaimed);\r\n    }\r\n    /**\r\n     * @dev Internal finction. It calculates total rewards that can be claimed by given number of matches for a specified round.\r\n     */\r\n    function calculateTotalRewardsToBeClaimed(uint8 matchAll, uint8 match3, uint8 match2, uint8 match1, uint round) internal view returns(uint) {\r\n        uint matchAllTotalReward = roundHistory[round].reward.uintMultiply(roundHistory[round].rewardRatio.matchAll) / 100;\r\n        uint match3TotalReward = roundHistory[round].reward.uintMultiply(roundHistory[round].rewardRatio.match3) / 100;\r\n        uint match2TotalReward = roundHistory[round].reward.uintMultiply(roundHistory[round].rewardRatio.match2) / 100;\r\n        uint match1TotalReward = roundHistory[round].reward.uintMultiply(roundHistory[round].rewardRatio.match1) / 100;\r\n\r\n        uint totalRewards = 0;\r\n\r\n        if(roundHistory[round].matchAll > 0 && matchAll > 0) {\r\n            totalRewards += matchAllTotalReward.uintMultiply(matchAll) / roundHistory[round].matchAll;\r\n        }\r\n        if(roundHistory[round].match3 > 0 && match3 > 0) {\r\n            totalRewards += match3TotalReward.uintMultiply(match3) / roundHistory[round].match3;\r\n        }\r\n        if(roundHistory[round].match2 > 0 && match2 > 0) {\r\n            totalRewards += match2TotalReward.uintMultiply(match2) / roundHistory[round].match2;\r\n        }\r\n        if(roundHistory[round].match1 > 0 && match1 > 0) {\r\n            totalRewards += match1TotalReward.uintMultiply(match1) / roundHistory[round].match1;\r\n        }\r\n\r\n        return totalRewards;\r\n    }\r\n    /**\r\n     * @dev Internal function. It generates random number based on set nonce\r\n     */\r\n    function generateRandomNumber() internal returns (uint8){\r\n        nonce += 3;\r\n        return uint8(uint(keccak256(abi.encodePacked(blockhash(block.number), msg.sender, block.timestamp, nonce))) % 10);\r\n    }\r\n}",
  "sourcePath": "C:\\GitHub\\Swapify-Lottery\\contracts\\SwapifyLotterySystem.sol",
  "compiler": {
    "name": "solc",
    "version": "0.8.0+commit.c7dfd78e.Emscripten.clang"
  },
  "schemaVersion": "3.4.1",
  "updatedAt": "2022-03-21T21:36:30.533Z",
  "devdoc": {
    "kind": "dev",
    "methods": {
      "addPermittedAccount(address)": {
        "details": "Adds the address to the list of permitted accounts. Only external accounts should be added. Adding a contract address will not be permitted to do transaction."
      },
      "addReward(uint256)": {
        "details": "Admin can only use this function.  Adds SWAPIFY rewards to the current round."
      },
      "claimRewards(address,uint256)": {
        "details": "claims rewards during the specified round if there are any to be claimed."
      },
      "currentReward()": {
        "details": "show the current round reward.  Return uint. "
      },
      "drawWinningNumber()": {
        "details": "Admin draws the 4 winning numbers.  (Random numbers between 0-9). Stores data on chain and starts a new round. Updates the mapping for rounds. Only Admin can execute this function."
      },
      "getRoundHistory(uint256)": {
        "details": "This function shows round data by round number"
      },
      "getUserRoundData(address,uint256)": {
        "details": "This function calculates rewards & show userdata"
      },
      "isOwner()": {
        "details": "Returns true if the caller is the current owner."
      },
      "isPermissible()": {
        "details": "Returns true if the caller is among the list of permitted accounts. Only allowed for external accounts."
      },
      "mintTickets(address,uint256)": {
        "details": "mints SwapifyTICKET and sends it to the specified address.   This will be used in the DEX contract whenever trades get fulfilled."
      },
      "owner()": {
        "details": "Returns the address of the current owner."
      },
      "removePermittedAccount(address)": {
        "details": "Removes or deactivate the address from the list of permitted accounts."
      },
      "renounceOwnership()": {
        "details": "Leaves the contract without owner. It will not be possible to call `onlyOwner` functions anymore. Can only be called by the current owner. > Note: Renouncing ownership will leave the contract without an owner, thereby removing any functionality that is only available to the owner."
      },
      "setNonce(uint256)": {
        "details": "set nonce for randomize ticket generation."
      },
      "setRewardRatio(uint8)": {
        "details": "Admin can change the reward ratio. This ratio represents how many SWAPAFY required to buy 1 SWAPATICKET"
      },
      "submitTicket(address,uint256)": {
        "details": "user will submit the amount of tickets (SWAPATICKETS) and they must have sufficient amount of tickets in their wallet.  This will then create an entry with 4 random numbers between 0 - 9.  Each ticket user submits grants them one entry with 4 different and random numbers between 0 - 9. User can only submit the amount of tickets that is equivalent to the amount of SWAPATICKETS they have in their wallet.   When user submits ticket(s), SWAPATICKETS get burnt in the process."
      },
      "ticketsInCurrentRound()": {
        "details": "shows array of tickets that are in current round."
      },
      "transferOwnership(address)": {
        "details": "Transfers ownership of the contract to a new account (`newOwner`). Can only be called by the current owner."
      },
      "updateMatchPoolAllocation(uint8,uint8,uint8,uint8)": {
        "details": "updates the reward allocation ratio for each pool.  Ratios must add up to 1.   Example:  updateMatchPoolAllocation(0.5, 0.3, 0.15, 0.05)"
      }
    },
    "version": 1
  },
  "userdoc": {
    "kind": "user",
    "methods": {},
    "version": 1
  }
}