{
  "contractName": "SwapifyRewardsERC20",
  "abi": [
    {
      "anonymous": false,
      "inputs": [
        {
          "indexed": true,
          "internalType": "address",
          "name": "owner",
          "type": "address"
        },
        {
          "indexed": true,
          "internalType": "address",
          "name": "spender",
          "type": "address"
        },
        {
          "indexed": false,
          "internalType": "uint256",
          "name": "value",
          "type": "uint256"
        }
      ],
      "name": "Approval",
      "type": "event"
    },
    {
      "anonymous": false,
      "inputs": [
        {
          "indexed": true,
          "internalType": "address",
          "name": "previousOwner",
          "type": "address"
        },
        {
          "indexed": true,
          "internalType": "address",
          "name": "newOwner",
          "type": "address"
        }
      ],
      "name": "OwnershipTransferred",
      "type": "event"
    },
    {
      "anonymous": false,
      "inputs": [
        {
          "indexed": true,
          "internalType": "address",
          "name": "from",
          "type": "address"
        },
        {
          "indexed": true,
          "internalType": "address",
          "name": "to",
          "type": "address"
        },
        {
          "indexed": false,
          "internalType": "uint256",
          "name": "value",
          "type": "uint256"
        }
      ],
      "name": "Transfer",
      "type": "event"
    },
    {
      "inputs": [
        {
          "internalType": "address",
          "name": "",
          "type": "address"
        },
        {
          "internalType": "address",
          "name": "",
          "type": "address"
        }
      ],
      "name": "allowance",
      "outputs": [
        {
          "internalType": "uint256",
          "name": "",
          "type": "uint256"
        }
      ],
      "stateMutability": "view",
      "type": "function",
      "constant": true
    },
    {
      "inputs": [
        {
          "internalType": "address",
          "name": "",
          "type": "address"
        }
      ],
      "name": "balanceOf",
      "outputs": [
        {
          "internalType": "uint256",
          "name": "",
          "type": "uint256"
        }
      ],
      "stateMutability": "view",
      "type": "function",
      "constant": true
    },
    {
      "inputs": [],
      "name": "decimals",
      "outputs": [
        {
          "internalType": "uint8",
          "name": "",
          "type": "uint8"
        }
      ],
      "stateMutability": "view",
      "type": "function",
      "constant": true
    },
    {
      "inputs": [],
      "name": "isOwner",
      "outputs": [
        {
          "internalType": "bool",
          "name": "",
          "type": "bool"
        }
      ],
      "stateMutability": "view",
      "type": "function",
      "constant": true
    },
    {
      "inputs": [],
      "name": "name",
      "outputs": [
        {
          "internalType": "string",
          "name": "",
          "type": "string"
        }
      ],
      "stateMutability": "view",
      "type": "function",
      "constant": true
    },
    {
      "inputs": [],
      "name": "owner",
      "outputs": [
        {
          "internalType": "address",
          "name": "",
          "type": "address"
        }
      ],
      "stateMutability": "view",
      "type": "function",
      "constant": true
    },
    {
      "inputs": [],
      "name": "renounceOwnership",
      "outputs": [],
      "stateMutability": "nonpayable",
      "type": "function"
    },
    {
      "inputs": [],
      "name": "symbol",
      "outputs": [
        {
          "internalType": "string",
          "name": "",
          "type": "string"
        }
      ],
      "stateMutability": "view",
      "type": "function",
      "constant": true
    },
    {
      "inputs": [],
      "name": "totalSupply",
      "outputs": [
        {
          "internalType": "uint256",
          "name": "",
          "type": "uint256"
        }
      ],
      "stateMutability": "view",
      "type": "function",
      "constant": true
    },
    {
      "inputs": [
        {
          "internalType": "address",
          "name": "newOwner",
          "type": "address"
        }
      ],
      "name": "transferOwnership",
      "outputs": [],
      "stateMutability": "nonpayable",
      "type": "function"
    },
    {
      "inputs": [
        {
          "internalType": "address",
          "name": "to",
          "type": "address"
        },
        {
          "internalType": "uint256",
          "name": "value",
          "type": "uint256"
        }
      ],
      "name": "mint",
      "outputs": [],
      "stateMutability": "nonpayable",
      "type": "function"
    },
    {
      "inputs": [
        {
          "internalType": "address",
          "name": "from",
          "type": "address"
        },
        {
          "internalType": "uint256",
          "name": "value",
          "type": "uint256"
        }
      ],
      "name": "burn",
      "outputs": [],
      "stateMutability": "nonpayable",
      "type": "function"
    },
    {
      "inputs": [
        {
          "internalType": "address",
          "name": "spender",
          "type": "address"
        },
        {
          "internalType": "uint256",
          "name": "value",
          "type": "uint256"
        }
      ],
      "name": "approve",
      "outputs": [
        {
          "internalType": "bool",
          "name": "",
          "type": "bool"
        }
      ],
      "stateMutability": "nonpayable",
      "type": "function"
    },
    {
      "inputs": [
        {
          "internalType": "address",
          "name": "to",
          "type": "address"
        },
        {
          "internalType": "uint256",
          "name": "value",
          "type": "uint256"
        }
      ],
      "name": "transfer",
      "outputs": [
        {
          "internalType": "bool",
          "name": "",
          "type": "bool"
        }
      ],
      "stateMutability": "nonpayable",
      "type": "function"
    },
    {
      "inputs": [
        {
          "internalType": "address",
          "name": "from",
          "type": "address"
        },
        {
          "internalType": "address",
          "name": "to",
          "type": "address"
        },
        {
          "internalType": "uint256",
          "name": "value",
          "type": "uint256"
        }
      ],
      "name": "transferFrom",
      "outputs": [
        {
          "internalType": "bool",
          "name": "",
          "type": "bool"
        }
      ],
      "stateMutability": "nonpayable",
      "type": "function"
    }
  ],
  "bytecode": "0x608060405234801561001057600080fd5b50326000806101000a81548173ffffffffffffffffffffffffffffffffffffffff021916908373ffffffffffffffffffffffffffffffffffffffff16021790555060008054906101000a900473ffffffffffffffffffffffffffffffffffffffff1673ffffffffffffffffffffffffffffffffffffffff16600073ffffffffffffffffffffffffffffffffffffffff167f8be0079c531659141344cd1fd0a4f28419497f9722a3daafe3b4186f6b6457e060405160405180910390a3611e5d806100db6000396000f3fe608060405234801561001057600080fd5b50600436106100f55760003560e01c8063715018a6116100975780639dc29fac116100665780639dc29fac14610264578063a9059cbb14610280578063dd62ed3e146102b0578063f2fde38b146102e0576100f5565b8063715018a6146102005780638da5cb5b1461020a5780638f32d59b1461022857806395d89b4114610246576100f5565b806323b872dd116100d357806323b872dd14610166578063313ce5671461019657806340c10f19146101b457806370a08231146101d0576100f5565b806306fdde03146100fa578063095ea7b31461011857806318160ddd14610148575b600080fd5b6101026102fc565b60405161010f9190611a73565b60405180910390f35b610132600480360381019061012d919061146a565b610335565b60405161013f9190611a58565b60405180910390f35b61015061034c565b60405161015d9190611c55565b60405180910390f35b610180600480360381019061017b919061141b565b610352565b60405161018d9190611a58565b60405180910390f35b61019e6105dc565b6040516101ab9190611c70565b60405180910390f35b6101ce60048036038101906101c9919061146a565b6105e1565b005b6101ea60048036038101906101e591906113b6565b61085f565b6040516101f79190611c55565b60405180910390f35b610208610877565b005b61021261097c565b60405161021f9190611a3d565b60405180910390f35b6102306109a5565b60405161023d9190611a58565b60405180910390f35b61024e6109fc565b60405161025b9190611a73565b60405180910390f35b61027e6004803603810190610279919061146a565b610a35565b005b61029a6004803603810190610295919061146a565b610ccd565b6040516102a79190611a58565b60405180910390f35b6102ca60048036038101906102c591906113df565b610ce4565b6040516102d79190611c55565b60405180910390f35b6102fa60048036038101906102f591906113b6565b610d09565b005b6040518060400160405280601581526020017f53776170696679205265776172647320546f6b656e000000000000000000000081525081565b6000610342338484610d5c565b6001905092915050565b60015481565b600081600360008673ffffffffffffffffffffffffffffffffffffffff1673ffffffffffffffffffffffffffffffffffffffff16815260200190815260200160002060003373ffffffffffffffffffffffffffffffffffffffff1673ffffffffffffffffffffffffffffffffffffffff168152602001908152602001600020541015610413576040517f08c379a000000000000000000000000000000000000000000000000000000000815260040161040a90611c15565b60405180910390fd5b7fffffffffffffffffffffffffffffffffffffffffffffffffffffffffffffffff600360008673ffffffffffffffffffffffffffffffffffffffff1673ffffffffffffffffffffffffffffffffffffffff16815260200190815260200160002060003373ffffffffffffffffffffffffffffffffffffffff1673ffffffffffffffffffffffffffffffffffffffff16815260200190815260200160002054146105c65761054582600360008773ffffffffffffffffffffffffffffffffffffffff1673ffffffffffffffffffffffffffffffffffffffff16815260200190815260200160002060003373ffffffffffffffffffffffffffffffffffffffff1673ffffffffffffffffffffffffffffffffffffffff16815260200190815260200160002054610eb790919063ffffffff16565b600360008673ffffffffffffffffffffffffffffffffffffffff1673ffffffffffffffffffffffffffffffffffffffff16815260200190815260200160002060003373ffffffffffffffffffffffffffffffffffffffff1673ffffffffffffffffffffffffffffffffffffffff168152602001908152602001600020819055505b6105d1848484610f10565b600190509392505050565b601281565b6105e96109a5565b610628576040517f08c379a000000000000000000000000000000000000000000000000000000000815260040161061f90611bb5565b60405180910390fd5b6001547fffffffffffffffffffffffffffffffffffffffffffffffffffffffffffffffff6106569190611cfd565b811115610698576040517f08c379a000000000000000000000000000000000000000000000000000000000815260040161068f90611b55565b60405180910390fd5b6106ad8160015461120690919063ffffffff16565b600181905550600260008373ffffffffffffffffffffffffffffffffffffffff1673ffffffffffffffffffffffffffffffffffffffff168152602001908152602001600020547fffffffffffffffffffffffffffffffffffffffffffffffffffffffffffffffff61071e9190611cfd565b811115610760576040517f08c379a000000000000000000000000000000000000000000000000000000000815260040161075790611c35565b60405180910390fd5b6107b281600260008573ffffffffffffffffffffffffffffffffffffffff1673ffffffffffffffffffffffffffffffffffffffff1681526020019081526020016000205461120690919063ffffffff16565b600260008473ffffffffffffffffffffffffffffffffffffffff1673ffffffffffffffffffffffffffffffffffffffff168152602001908152602001600020819055508173ffffffffffffffffffffffffffffffffffffffff16600073ffffffffffffffffffffffffffffffffffffffff167fddf252ad1be2c89b69c2b068fc378daa952ba7f163c4a11628f55a4df523b3ef836040516108539190611c55565b60405180910390a35050565b60026020528060005260406000206000915090505481565b61087f6109a5565b6108be576040517f08c379a00000000000000000000000000000000000000000000000000000000081526004016108b590611bb5565b60405180910390fd5b600073ffffffffffffffffffffffffffffffffffffffff1660008054906101000a900473ffffffffffffffffffffffffffffffffffffffff1673ffffffffffffffffffffffffffffffffffffffff167f8be0079c531659141344cd1fd0a4f28419497f9722a3daafe3b4186f6b6457e060405160405180910390a360008060006101000a81548173ffffffffffffffffffffffffffffffffffffffff021916908373ffffffffffffffffffffffffffffffffffffffff160217905550565b60008060009054906101000a900473ffffffffffffffffffffffffffffffffffffffff16905090565b60008060009054906101000a900473ffffffffffffffffffffffffffffffffffffffff1673ffffffffffffffffffffffffffffffffffffffff163373ffffffffffffffffffffffffffffffffffffffff1614905090565b6040518060400160405280600781526020017f535741504946590000000000000000000000000000000000000000000000000081525081565b610a3d6109a5565b610a7c576040517f08c379a0000000000000000000000000000000000000000000000000000000008152600401610a7390611bb5565b60405180910390fd5b600073ffffffffffffffffffffffffffffffffffffffff168273ffffffffffffffffffffffffffffffffffffffff161415610aec576040517f08c379a0000000000000000000000000000000000000000000000000000000008152600401610ae390611bd5565b60405180910390fd5b80600260008473ffffffffffffffffffffffffffffffffffffffff1673ffffffffffffffffffffffffffffffffffffffff168152602001908152602001600020541015610b6e576040517f08c379a0000000000000000000000000000000000000000000000000000000008152600401610b6590611af5565b60405180910390fd5b610bc081600260008573ffffffffffffffffffffffffffffffffffffffff1673ffffffffffffffffffffffffffffffffffffffff16815260200190815260200160002054610eb790919063ffffffff16565b600260008473ffffffffffffffffffffffffffffffffffffffff1673ffffffffffffffffffffffffffffffffffffffff16815260200190815260200160002081905550600154811115610c48576040517f08c379a0000000000000000000000000000000000000000000000000000000008152600401610c3f90611b75565b60405180910390fd5b610c5d81600154610eb790919063ffffffff16565b600181905550600073ffffffffffffffffffffffffffffffffffffffff168273ffffffffffffffffffffffffffffffffffffffff167fddf252ad1be2c89b69c2b068fc378daa952ba7f163c4a11628f55a4df523b3ef83604051610cc19190611c55565b60405180910390a35050565b6000610cda338484610f10565b6001905092915050565b6003602052816000526040600020602052806000526040600020600091509150505481565b610d116109a5565b610d50576040517f08c379a0000000000000000000000000000000000000000000000000000000008152600401610d4790611bb5565b60405180910390fd5b610d598161125f565b50565b600073ffffffffffffffffffffffffffffffffffffffff168273ffffffffffffffffffffffffffffffffffffffff161415610dcc576040517f08c379a0000000000000000000000000000000000000000000000000000000008152600401610dc390611bf5565b60405180910390fd5b80600360008573ffffffffffffffffffffffffffffffffffffffff1673ffffffffffffffffffffffffffffffffffffffff16815260200190815260200160002060008473ffffffffffffffffffffffffffffffffffffffff1673ffffffffffffffffffffffffffffffffffffffff168152602001908152602001600020819055508173ffffffffffffffffffffffffffffffffffffffff168373ffffffffffffffffffffffffffffffffffffffff167f8c5be1e5ebec7d5bd14f71427d1e84f3dd0314c0f7b2291e5b200ac8c7c3b92583604051610eaa9190611c55565b60405180910390a3505050565b6000828284610ec69190611cfd565b9150811115610f0a576040517f08c379a0000000000000000000000000000000000000000000000000000000008152600401610f0190611a95565b60405180910390fd5b92915050565b600073ffffffffffffffffffffffffffffffffffffffff168373ffffffffffffffffffffffffffffffffffffffff161415610f80576040517f08c379a0000000000000000000000000000000000000000000000000000000008152600401610f7790611ab5565b60405180910390fd5b600073ffffffffffffffffffffffffffffffffffffffff168273ffffffffffffffffffffffffffffffffffffffff161415610ff0576040517f08c379a0000000000000000000000000000000000000000000000000000000008152600401610fe790611ad5565b60405180910390fd5b80600260008573ffffffffffffffffffffffffffffffffffffffff1673ffffffffffffffffffffffffffffffffffffffff168152602001908152602001600020541015611072576040517f08c379a000000000000000000000000000000000000000000000000000000000815260040161106990611b95565b60405180910390fd5b6110c481600260008673ffffffffffffffffffffffffffffffffffffffff1673ffffffffffffffffffffffffffffffffffffffff16815260200190815260200160002054610eb790919063ffffffff16565b600260008573ffffffffffffffffffffffffffffffffffffffff1673ffffffffffffffffffffffffffffffffffffffff1681526020019081526020016000208190555061115981600260008573ffffffffffffffffffffffffffffffffffffffff1673ffffffffffffffffffffffffffffffffffffffff1681526020019081526020016000205461120690919063ffffffff16565b600260008473ffffffffffffffffffffffffffffffffffffffff1673ffffffffffffffffffffffffffffffffffffffff168152602001908152602001600020819055508173ffffffffffffffffffffffffffffffffffffffff168373ffffffffffffffffffffffffffffffffffffffff167fddf252ad1be2c89b69c2b068fc378daa952ba7f163c4a11628f55a4df523b3ef836040516111f99190611c55565b60405180910390a3505050565b60008282846112159190611ca7565b9150811015611259576040517f08c379a000000000000000000000000000000000000000000000000000000000815260040161125090611b35565b60405180910390fd5b92915050565b600073ffffffffffffffffffffffffffffffffffffffff168173ffffffffffffffffffffffffffffffffffffffff1614156112cf576040517f08c379a00000000000000000000000000000000000000000000000000000000081526004016112c690611b15565b60405180910390fd5b8073ffffffffffffffffffffffffffffffffffffffff1660008054906101000a900473ffffffffffffffffffffffffffffffffffffffff1673ffffffffffffffffffffffffffffffffffffffff167f8be0079c531659141344cd1fd0a4f28419497f9722a3daafe3b4186f6b6457e060405160405180910390a3806000806101000a81548173ffffffffffffffffffffffffffffffffffffffff021916908373ffffffffffffffffffffffffffffffffffffffff16021790555050565b60008135905061139b81611df9565b92915050565b6000813590506113b081611e10565b92915050565b6000602082840312156113c857600080fd5b60006113d68482850161138c565b91505092915050565b600080604083850312156113f257600080fd5b60006114008582860161138c565b92505060206114118582860161138c565b9150509250929050565b60008060006060848603121561143057600080fd5b600061143e8682870161138c565b935050602061144f8682870161138c565b9250506040611460868287016113a1565b9150509250925092565b6000806040838503121561147d57600080fd5b600061148b8582860161138c565b925050602061149c858286016113a1565b9150509250929050565b6114af81611d31565b82525050565b6114be81611d43565b82525050565b60006114cf82611c8b565b6114d98185611c96565b93506114e9818560208601611d86565b6114f281611de8565b840191505092915050565b600061150a601583611c96565b91507f64732d6d6174682d7375622d756e646572666c6f7700000000000000000000006000830152602082019050919050565b600061154a602b83611c96565b91507f537761706966795265776172647345524332303a20496e76616c69642053656e60008301527f64657220416464726573730000000000000000000000000000000000000000006020830152604082019050919050565b60006115b0602e83611c96565b91507f537761706966795265776172647345524332303a20496e76616c69642052656360008301527f697069656e7420416464726573730000000000000000000000000000000000006020830152604082019050919050565b6000611616603e83611c96565b91507f537761706966795265776172647345524332303a206275726e20616d6f756e7460008301527f20657863656564732062616c616e6365206f662074686520686f6c64657200006020830152604082019050919050565b600061167c602683611c96565b91507f4f776e61626c653a206e6577206f776e657220697320746865207a65726f206160008301527f64647265737300000000000000000000000000000000000000000000000000006020830152604082019050919050565b60006116e2601483611c96565b91507f64732d6d6174682d6164642d6f766572666c6f770000000000000000000000006000830152602082019050919050565b6000611722603583611c96565b91507f537761706966795265776172647345524332303a20546f74616c20737570706c60008301527f79206578636565646564206d6178206c696d69742e00000000000000000000006020830152604082019050919050565b6000611788602f83611c96565b91507f537761706966795265776172647345524332303a20496e73756666696369656e60008301527f7420746f74616c20737570706c792e00000000000000000000000000000000006020830152604082019050919050565b60006117ee603e83611c96565b91507f537761706966795265776172647345524332303a205472616e7366657220616d60008301527f6f756e7420657863656564732062616c616e6365206f662073656e64657200006020830152604082019050919050565b6000611854602083611c96565b91507f4f776e61626c653a2063616c6c6572206973206e6f7420746865206f776e65726000830152602082019050919050565b6000611894602f83611c96565b91507f537761706966795265776172647345524332303a206275726e2066726f6d207460008301527f6865207a65726f206164647265737300000000000000000000000000000000006020830152604082019050919050565b60006118fa603b83611c96565b91507f537761706966795265776172647345524332303a20617070726f766520746f2060008301527f74686520696e76616c6964206f72207a65726f206164647265737300000000006020830152604082019050919050565b6000611960603683611c96565b91507f537761706966795265776172647345524332303a207472616e7366657220616d60008301527f6f756e74206578636565647320616c6c6f77616e6365000000000000000000006020830152604082019050919050565b60006119c6603a83611c96565b91507f537761706966795265776172647345524332303a2042616c616e6365206f662060008301527f6d696e746572206578636565646564206d6178206c696d69742e0000000000006020830152604082019050919050565b611a2881611d6f565b82525050565b611a3781611d79565b82525050565b6000602082019050611a5260008301846114a6565b92915050565b6000602082019050611a6d60008301846114b5565b92915050565b60006020820190508181036000830152611a8d81846114c4565b905092915050565b60006020820190508181036000830152611aae816114fd565b9050919050565b60006020820190508181036000830152611ace8161153d565b9050919050565b60006020820190508181036000830152611aee816115a3565b9050919050565b60006020820190508181036000830152611b0e81611609565b9050919050565b60006020820190508181036000830152611b2e8161166f565b9050919050565b60006020820190508181036000830152611b4e816116d5565b9050919050565b60006020820190508181036000830152611b6e81611715565b9050919050565b60006020820190508181036000830152611b8e8161177b565b9050919050565b60006020820190508181036000830152611bae816117e1565b9050919050565b60006020820190508181036000830152611bce81611847565b9050919050565b60006020820190508181036000830152611bee81611887565b9050919050565b60006020820190508181036000830152611c0e816118ed565b9050919050565b60006020820190508181036000830152611c2e81611953565b9050919050565b60006020820190508181036000830152611c4e816119b9565b9050919050565b6000602082019050611c6a6000830184611a1f565b92915050565b6000602082019050611c856000830184611a2e565b92915050565b600081519050919050565b600082825260208201905092915050565b6000611cb282611d6f565b9150611cbd83611d6f565b9250827fffffffffffffffffffffffffffffffffffffffffffffffffffffffffffffffff03821115611cf257611cf1611db9565b5b828201905092915050565b6000611d0882611d6f565b9150611d1383611d6f565b925082821015611d2657611d25611db9565b5b828203905092915050565b6000611d3c82611d4f565b9050919050565b60008115159050919050565b600073ffffffffffffffffffffffffffffffffffffffff82169050919050565b6000819050919050565b600060ff82169050919050565b60005b83811015611da4578082015181840152602081019050611d89565b83811115611db3576000848401525b50505050565b7f4e487b7100000000000000000000000000000000000000000000000000000000600052601160045260246000fd5b6000601f19601f8301169050919050565b611e0281611d31565b8114611e0d57600080fd5b50565b611e1981611d6f565b8114611e2457600080fd5b5056fea26469706673582212203d9499b8e14c8c5c3247bfc7549e4665aa527e92f9b6963cbefbe6175f15a67964736f6c63430008000033",
  "immutableReferences": {},
  "source": "// SPDX-License-Identifier: GPL-3.0-or-later\r\npragma solidity >=0.8.0;\r\n\r\nimport './Ownable.sol';\r\nimport './interfaces/IERC20.sol';\r\nimport './libraries/SafeMath.sol';\r\n\r\ncontract SwapifyRewardsERC20 is Ownable {\r\n    using SafeMath for uint;\r\n\r\n    string public constant name = 'Swapify Rewards Token';\r\n    string public constant symbol = 'SWAPIFY';\r\n    uint8 public constant decimals = 18;\r\n    uint public totalSupply;\r\n    mapping(address => uint) public balanceOf;\r\n    mapping(address => mapping(address => uint)) public allowance;\r\n\r\n    event Approval(address indexed owner, address indexed spender, uint value);\r\n    event Transfer(address indexed from, address indexed to, uint value);\r\n\r\n    /**\r\n     * @dev this internal function mints token to given address\r\n     */\r\n    function mint(address to, uint value) external onlyOwner {\r\n        require(value <= type(uint).max - totalSupply, \"SwapifyRewardsERC20: Total supply exceeded max limit.\");\r\n        totalSupply = totalSupply.add(value);\r\n        require(value <= type(uint).max - balanceOf[to], \"SwapifyRewardsERC20: Balance of minter exceeded max limit.\");\r\n        balanceOf[to] = balanceOf[to].add(value);\r\n        emit Transfer(address(0), to, value);\r\n    }\r\n    /**\r\n     * @dev this internal function burns rewards token from the given address\r\n     */\r\n    function burn(address from, uint value) external onlyOwner {\r\n        require(from != address(0), \"SwapifyRewardsERC20: burn from the zero address\");\r\n        require(balanceOf[from] >= value, \"SwapifyRewardsERC20: burn amount exceeds balance of the holder\");\r\n        balanceOf[from] = balanceOf[from].sub(value);\r\n        require(value <= totalSupply, \"SwapifyRewardsERC20: Insufficient total supply.\");\r\n        totalSupply = totalSupply.sub(value);\r\n        emit Transfer(from, address(0), value);\r\n    }\r\n\r\n    function _approve(address owner, address spender, uint value) private {\r\n        require(spender != address(0), \"SwapifyRewardsERC20: approve to the invalid or zero address\");\r\n        allowance[owner][spender] = value;\r\n        emit Approval(owner, spender, value);\r\n    }\r\n\r\n    function _transfer(address from, address to, uint value) private {\r\n        require(from != address(0), \"SwapifyRewardsERC20: Invalid Sender Address\");\r\n        require(to != address(0), \"SwapifyRewardsERC20: Invalid Recipient Address\");\r\n        require(balanceOf[from] >= value, \"SwapifyRewardsERC20: Transfer amount exceeds balance of sender\");\r\n        balanceOf[from] = balanceOf[from].sub(value);\r\n        balanceOf[to] = balanceOf[to].add(value);\r\n        emit Transfer(from, to, value);\r\n    }\r\n\r\n    function approve(address spender, uint value) external returns (bool) {\r\n        _approve(msg.sender, spender, value);\r\n        return true;\r\n    }\r\n\r\n    function transfer(address to, uint value) external returns (bool) {\r\n        _transfer(msg.sender, to, value);\r\n        return true;\r\n    }\r\n\r\n    function transferFrom(address from, address to, uint value) external returns (bool) {\r\n        require(allowance[from][msg.sender] >= value, \"SwapifyRewardsERC20: transfer amount exceeds allowance\");\r\n        if (allowance[from][msg.sender] != type(uint).max) {\r\n            allowance[from][msg.sender] = allowance[from][msg.sender].sub(value);\r\n        }\r\n        _transfer(from, to, value);\r\n        return true;\r\n    }\r\n}",
  "sourcePath": "C:/GitHub/Swapify-Lottery/contracts/SwapifyRewardsERC20.sol",
  "compiler": {
    "name": "solc",
    "version": "0.8.0+commit.c7dfd78e.Emscripten.clang"
  },
  "schemaVersion": "3.4.1",
  "updatedAt": "2022-03-03T20:19:31.925Z",
  "networkType": "ethereum",
  "devdoc": {
    "kind": "dev",
    "methods": {
      "burn(address,uint256)": {
        "details": "this internal function burns rewards token from the given address"
      },
      "isOwner()": {
        "details": "Returns true if the caller is the current owner."
      },
      "mint(address,uint256)": {
        "details": "this internal function mints token to given address"
      },
      "owner()": {
        "details": "Returns the address of the current owner."
      },
      "renounceOwnership()": {
        "details": "Leaves the contract without owner. It will not be possible to call `onlyOwner` functions anymore. Can only be called by the current owner. > Note: Renouncing ownership will leave the contract without an owner, thereby removing any functionality that is only available to the owner."
      },
      "transferOwnership(address)": {
        "details": "Transfers ownership of the contract to a new account (`newOwner`). Can only be called by the current owner."
      }
    },
    "version": 1
  },
  "userdoc": {
    "kind": "user",
    "methods": {},
    "version": 1
  }
}